:100000000C94F8210C9429220C9429220C94292276
:100010000C9429220C9429220C9429220C94292234
:100020000C9429220C9429220C9429220C94292224
:100030000C9429220C9429220C9429220C94292214
:100040000C9429220C9420F40C9429220C9429223B
:100050000C9429220C9429220C94CAC20D944808AD
:100060000C9429220C948D510C9429220C94292251
:100070000C9429220C9429220C9429220C942922D4
:100080000C9429220C9429220C9429220C942922C4
:100090000C9429220C9429220C9429220C942922B4
:1000A0000C9429220C9429220C9429220C942922A4
:1000B0000C9429220C9429220C9429220C94292294
:1000C0000C9429220C9429220C9429220C94292284
:1000D0000C9429220C9429220C9429220C94292274
:1000E0000C942922C451CA51DB51E651EE510352FE
:1000F000F2510352F651FA51035200520BA8F1A7E4
:10010000F4A7F7A7FAA706A8FDA717A800A803A8B1
:1001100038012C011C01EE00DC000C011E01320133
:100120004E010E014A010A013E01D8000C01F40003
:10013000E400E200180100015601F8004401E60065
:1001400008014601F200D2002A01EA004C01300108
:10015000E600520128012601084AD73B3BCE016E3A
:1001600084BCBFFDC12F3D6C74319ABD56833DDA0E
:100170003D00C77F11BED9E4BB4C3E916BAAAABE1D
:10018000000000803F05A84CCDB2D44EB93836A946
:10019000020C50B9918688083CA6AAAA2ABE000083
:1001A00000803F000D94A6070D9412170D94D814EB
:1001B0000D94EC060D9431210D94C1060D940F2B76
:1001C0000D94A40B0D94FA060D94F6060D94FB07FE
:1001D0000D9460150D94BA070D94C40E0D94BB06D2
:1001E0000D94BB270D949C070D94F2060D944E2C94
:1001F0000D9478070D94B5220D942F100D942114B1
:100200000D9469070D94A8060D94FC0D0D944806F5
:100210000D948C070D94E4060D94FF060D94DA06F8
:100220000D9439010D9423100D94BF270D940718D8
:100230000D9464070D94302B0D94B7060D94CC06E5
:100240000D94EF240D94350D0D94C5270D94F107F1
:100250000D94E7070D94B0070D94C8060D94501641
:100260000D94D3070D94D0060D94C2270D94BE2C87
:100270000D94C5060D942C100D942D100D94E806C8
:100280000D94CD320D94340D0D9482070D94940786
:100290000D94F3240D94DE060D94C9070D94D60633
:1002A0000D942B0D0D94DD070D9441320D946E07C6
:1002B0004E414E494E495459494E46CDCCCC3D0A4B
:1002C000D7233C17B7D13877CC2B329595E6241F2E
:1002D000B14F0A000020410000C84200401C4620E7
:1002E000BCBE4CCA1B0E5AAEC59D74434F4D4D55F6
:1002F0004E49434154494F4E0044525952554E00C5
:100300004552524F525300494E464F004543484FC5
:100310000047322F47332062616420706172616D43
:1003200065746572730A00536C6565702E2E2E001D
:10033000205A3A200020593A200042656420583A59
:1003400020004D65736820706F696E742063616E64
:100350006E6F74206265207265736F6C7665640AD7
:1003600000526573756D696E67207072696E7400F6
:100370004A656C6C79424F582052656164792E0051
:10038000436C69636B20746F20726573756D652EA5
:100390002E2E004E6F206D6F76652E00456E642008
:1003A00066696C65206C6973740A00426567696EE2
:1003B0002066696C65206C6973740A004D313235B2
:1003C000005344207072696E74696E67206279749C
:1003D0006520004E6F74205344207072696E7469FA
:1003E0006E670A0046696C652064656C65746564B7
:1003F0003A0044656C6574696F6E206661696C656E
:10040000642C2046696C653A20006F70656E20662A
:1004100061696C65642C2046696C653A20005072F5
:10042000696E742074696D653A20000001363726C4
:1004300003FF3C3D380EFF2E303E12FFFF0C080933
:10044000FFFFFF1A1C18FFFF08440AFF43FFFFFFCE
:10045000FFFFFF50726F7465637465642050696EAE
:100460000A0046696C616D656E7420757365643A47
:10047000200053746174733A20002C204C6F6E6717
:10048000657374206A6F623A2000546F74616C2047
:1004900074696D653A200053746174733A20002CBE
:1004A000204661696C65643A20002C2046696E69BB
:1004B000736865643A20005072696E74733A200064
:1004C00053746174733A2000452569202573004AEE
:1004D000656C6C79424F582052656164792E000C2E
:1004E0000307030003F902EB026F6666004445420E
:1004F00055473A004D3131332053006F6B0048654A
:100500006174696E6720646F6E652E0020573A0033
:10051000452569202573004A656C6C79424F582047
:1005200052656164792E0042656420646F6E652EA9
:100530000020573A004265642048656174696E671F
:100540002E004A656C6C79424F58204F66662E002B
:100550004155544F5245504F52545F53445F53548A
:100560004154555300454D455247454E43595F5000
:10057000415253455200434153455F4C494748540B
:100580005F4252494748544E45535300544F4747E2
:100590004C455F4C494748545300534F46545741CC
:1005A00052455F504F574552004255494C445F50A9
:1005B000455243454E54004C4556454C494E475FC5
:1005C00044415441005A5F50524F424500415554F6
:1005D0004F4C4556454C005052494E545F4A4F428D
:1005E0000050524F4752455353004155544F5245C6
:1005F000504F52545F54454D5000564F4C554D4549
:100600005452494300454550524F4D0053455249BD
:10061000414C5F584F4E5F584F4646004649524D39
:10062000574152455F4E414D453A4D61726C696E7E
:10063000206275676669782D312E312E7820284723
:1006400069746875622920534F555243455F434F83
:1006500044455F55524C3A68747470733A2F2F6753
:1006600069746875622E636F6D2F4D61726C696E6F
:100670004669726D776172652F4D61726C696E208B
:1006800050524F544F434F4C5F56455253494F4E73
:100690003A312E30204D414348494E455F54595020
:1006A000453A4A656C6C79424F582045585452552A
:1006B0004445525F434F554E543A312055554944B5
:1006C0003A63656465326132662D343161322D34AE
:1006D0003734382D396231322D6335356336326621
:1006E00033363766660A002F2F20007A5F6D696EF9
:1006F0003A2000795F6D696E3A2000785F6D696E0F
:100700003A20005265706F7274696E6720656E647E
:1007100073746F70207374617475730A004D313493
:100720003520533C696E6465783E206F7574206F88
:10073000662072616E67652028302D31290A0020FD
:10074000643A0020693A0020703A00426564204C07
:100750006576656C696E6720004661696C6564202A
:10076000746F20656E61626C6520426564204C6523
:1007700076656C696E670A004D65736820706F69F5
:100780006E742063616E6E6F742062652072657393
:100790006F6C7665640A004D34323120696E636F88
:1007A000727265637420706172616D657465722028
:1007B00075736167650A00454550524F4D204F4B98
:1007C0000A00496E736572742066696C616D656EAE
:1007D0007420616E64207072657373206275747426
:1007E0006F6E20286F72204D313038290A00507208
:1007F00065737320627574746F6E20286F72204D5C
:100800003130382920746F2068656174206E6F7AEA
:100810007A6C650A00496E736572742066696C6152
:100820006D656E7420616E642070726573732062F2
:100830007574746F6E20286F72204D313038290A1C
:1008400000416374697665204578747275646572D9
:100850003A2000496E76616C69642065787472751F
:100860006465720A00556E6B6E6F776E20636F6DF4
:100870006D616E643A2022002569730025696D2040
:10088000256973002569682025696D202569730035
:10089000256964202569682025696D202569730014
:1008A00025697920256964202569682025696D20DE
:1008B000256973004C696E65204E756D6265722006
:1008C0006973206E6F74204C617374204C696E657F
:1008D000204E756D6265722B312C204C6173742033
:1008E0004C696E653A200053544F505045442E20B9
:1008F000005072696E7465722073746F70706564F5
:100900002064756520746F206572726F72732E207B
:1009100046697820746865206572726F7220616E16
:100920006420757365204D39393920746F207265E4
:1009300073746172742E202854656D7065726174D1
:100940007572652069732072657365742E20536516
:1009500074206974206166746572207265737461B5
:100960007274696E67290A004E6F20436865636B75
:1009700073756D2077697468206C696E65206E757B
:100980006D6265722C204C617374204C696E653AFF
:100990002000636865636B73756D206D69736D61AD
:1009A0007463682C204C617374204C696E653A2026
:1009B000004D313130004D333100534420726561B8
:1009C00064206572726F720A00446F6E65207072E7
:1009D000696E74696E672066696C650A0020496EED
:1009E00076616C6964206578747275646572200044
:1009F000000020C1000000C00000000000003A43D9
:100A000000002E430000124342696C696E656172FA
:100A1000204C6576656C696E6720477269643A0A96
:100A200000537562646976696465642077697468E7
:100A3000204341544D554C4C20524F4D204C65762F
:100A4000656C696E6720477269643A0A0020706FAE
:100A5000736974696F6E206F7574206F66207261A0
:100A60006E67652E0A003F50726F62652000202875
:100A700044525952554E2900473239204175746FFE
:100A800020426564204C6576656C696E670028427B
:100A90002961636B00284629726F6E740028522901
:100AA0006967687400284C29656674003F285629D8
:100AB0006572626F7365206C6576656C2069732062
:100AC000696D706C61757369626C652028302D34B6
:100AD000292E0A00426164205A2076616C75650AED
:100AE000004E6F2062696C696E6561722067726981
:100AF000640A007C3C3E5E2B3D3F2F5B5D3B2C2A15
:100B0000225C0048617264636F64656420446566BA
:100B100061756C742053657474696E6773204C6FD3
:100B2000616465640A0088130000A00F000064007F
:100B30000000983A00000000964300009643000031
:100B4000204100008C420000A0420000A0420000B2
:100B5000C84400000C4320550020204D363033207F
:100B60004C0046696C616D656E74206C6F61642F1A
:100B7000756E6C6F6164206C656E677468733A0A99
:100B80000020204D383531205A005A2D50726F62A6
:100B900065204F666673657420286D6D293A0A00DA
:100BA00020440020490020204D33303420500020C4
:100BB000440020490020204D33303120500050495E
:100BC000442073657474696E67733A0A00204600A6
:100BD00020420020480020204D3134352053004D64
:100BE0006174657269616C206865617475702070EC
:100BF0006172616D65746572733A0A00205A002053
:100C00004A002020473239205720490020204D3407
:100C100032302053004175746F20426564204C656A
:100C200076656C696E673A0A00205A0020590020E8
:100C3000204D323036205800486F6D65206F666653
:100C40007365743A0A00204500205A00205900209C
:100C5000580020420020540020204D3230352053CF
:100C600000416476616E6365643A20533C6D696E41
:100C70005F66656564726174653E20543C6D696EA3
:100C80005F74726176656C5F6665656472617465D8
:100C90003E20423C6D696E5F7365676D656E745F83
:100CA00074696D655F75733E20583C6D61785F783F
:100CB000795F6A65726B3E205A3C6D61785F7A5F3E
:100CC0006A65726B3E20453C6D61785F655F6A6561
:100CD000726B3E0A0020540020520020204D32301A
:100CE00034205000416363656C65726174696F6E96
:100CF0002028756E6974732F7332293A20503C7026
:100D000072696E745F616363656C3E20523C72650C
:100D100074726163745F616363656C3E20543C74FC
:100D2000726176656C5F616363656C3E0A002045A5
:100D300000205A0020590020204D32303120580028
:100D40004D6178696D756D20416363656C65726195
:100D500074696F6E2028756E6974732F7332293A27
:100D60000A00204500205A0020590020204D323032
:100D7000332058004D6178696D756D206665656436
:100D800072617465732028756E6974732F73293AC4
:100D90000A00204500205A0020590020204D3932F9
:100DA00020580053746570732070657220756E69E9
:100DB000743A0A0020204D3230302044300A00209E
:100DC000204D3230302044002044697361626C65EC
:100DD000640A0046696C616D656E74207365747495
:100DE000696E67733A0020204D3134392043203B2F
:100DF00020556E69747320696E2043656C73697544
:100E0000730A002020473231202020203B20556EDD
:100E100069747320696E206D6D0A0020746F6F20F5
:100E20006C6F6E6720657874727573696F6E207071
:100E3000726576656E7465640A0020636F6C642069
:100E4000657874727573696F6E2070726576656E01
:100E50007465640A00627573793A20706175736510
:100E60006420666F7220696E7075740A0062757313
:100E7000793A2070617573656420666F72207573AE
:100E800065720A00627573793A2070726F636573D8
:100E900073696E670A004B494C4C45442E20004B49
:100EA000494C4C20636175736564206279204B491D
:100EB0004C4C20627574746F6E2F70696E0A004B13
:100EC000494C4C45442E20004B494C4C20636175E5
:100ED00073656420627920746F6F206D756368207C
:100EE000696E6163746976652074696D65202D2073
:100EF00063757272656E7420636F6D6D616E643AB6
:100F00002000506C656173652072657365740050D4
:100F100052494E5445522048414C54454400507269
:100F2000696E7465722068616C7465642E206B69EB
:100F30006C6C28292063616C6C6564210A00656E05
:100F40007175657565696E67202200000020C1001B
:100F50000000C000000000000048420000484200BD
:100F6000002041000000005761726E696E673A20F0
:100F7000486F6D696E672042756D702044697669AF
:100F8000736F72203C20310A000202040000A0406E
:100F90000000A04000000040000044430000304337
:100FA00000001243FFFFFF4572726F722077726973
:100FB00074696E6720746F20454550524F4D210A69
:100FC00000454550524F4D206461746173697A65E4
:100FD000206572726F722E0A00290A0020627974ED
:100FE00065733B20637263200053657474696E6798
:100FF000732053746F726564202800290A002062F0
:10100000797465733B2063726320002073746F7280
:1010100065642073657474696E6773207265747299
:101020006965766564202800202863616C63756CAF
:101030006174656429210A0020213D200045455046
:10104000524F4D20435243206D69736D6174636844
:10105000202D202873746F72656429200020536945
:101060007A653A2000496E6465783A2000204D6127
:10107000726C696E3D563532290A0028454550523A
:101080004F4D3D00454550524F4D20766572736976
:101090006F6E206D69736D61746368200020746FDA
:1010A0006F206C6F6E6720657874727573696F6EF0
:1010B0002070726576656E7465640A0020636F6CDB
:1010C0006420657874727573696F6E2070726576CE
:1010D000656E7465640A004573746570732F6D6D79
:1010E000004573746570732F6D6D005A737465706D
:1010F000732F6D6D005A73746570732F6D6D005989
:1011000073746570732F6D6D005973746570732FF0
:101110006D6D005873746570732F6D6D0058737426
:101120006570732F6D6D00476F204261636B0053D4
:10113000746570732F6D6D004A65726B0041636357
:10114000656C65726174696F6E0056656C6F63697A
:101150007479004C6976652061646A757374205AED
:1011600000476F204261636B004C6F6164206D6DBE
:10117000004C6F6164206D6D00556E6C6F61642072
:101180006D6D00556E6C6F6164206D6D0046696C0D
:101190002E204469612E0046696C2E204469612E20
:1011A000004F6666004F6E20004520696E206D6D11
:1011B0003300436F6E74726F6C0043616E6E6F74B8
:1011C00020656E746572207375626469723A2000DE
:1011D000022E2E004D61696E0000457874727564B0
:1011E000656420746F74616C3A2000256C642E2550
:1011F000696D00004C6F6E67657374206A6F6220C2
:1012000074696D653A200000546F74616C207072CF
:10121000696E742074696D653A2000436F6D706C5F
:10122000657465643A20005072696E7420436F756E
:101230006E743A20005053553A2047656E657269C6
:10124000630050726F746F636F6C3A20312E300000
:10125000426175643A203235303030300052414DB1
:10126000505320312E340042696C696E65617220E2
:101270004C6576656C696E67004578747275646557
:1012800072733A203100687474703A2F2F6D617256
:101290006C696E66772E6F7267004A656C6C794276
:1012A0004F5800323031382D30312D3230006275D8
:1012B000676669782D312E312E78004D61726C6928
:1012C0006E0053657420686F6D65206F6666736588
:1012D0007473004D343238006F6666736574732022
:1012E00020202020202020202020202020202020FE
:1012F00020202020202020202000616E64206869AA
:10130000742053657420486F6D65202020202020B4
:10131000202020202020202020202000696E206412
:1013200065736972656420706F736974696F6E208C
:1013300020202020202020202020202020004D6F51
:1013400076652062656420616E64206E6F7A7A6CC7
:101350006520202020202020202020202020200068
:10136000476F204261636B004D313034205335307C
:10137000004D31303420533430004D31343020535F
:101380003530004D31343020533430004D3130365B
:1013900020533130300054657374206265642068D6
:1013A000656174657200546573742066696C616D63
:1013B000656E742066616E730054657374206E6F81
:1013C0007A7A6C65206865617465720054756E6523
:1013D00020686F6D65206F66667365747300546571
:1013E000737420656E6473746F7073004368656313
:1013F0006B20656E6473746F707300546573742032
:101400006D6F746F727300476F204261636B0043AE
:101410007573746F6D0000464C455800005045547C
:10142000470000504C410000476F204261636B0051
:1014300045787472756465004D6F766520617865D6
:10144000730052656C65617365206D6F746F7273A4
:10145000004D383400486F6D6500507265666C69E8
:1014600067687420436865636B00547765616B201F
:1014700074686520317374206C6179657200476F00
:10148000204261636B0000060900FE070192032100
:10149000207FFF07FF07FF0000000600000107078D
:1014A0000602008080808080008003020206010521
:1014B000A0A00507070600005050F850F85050054E
:1014C00007070600002078A07028F020050707060F
:1014D0000000C0C8102040981805070706000060EB
:1014E00090A040A89068020303060104C040800356
:1014F0000707060100204080808040200307070680
:1015000001008040202020408005050506000120C4
:10151000A870A8200505050600012020F82020025B
:1015200003030602FFC04080050101060003F80224
:101530000202060200C0C0050505060001081020D1
:101540004080050707060000708888888888700337
:10155000070706010040C040404040E0050707067D
:101560000000708808708080F8050707060000F802
:101570001020100808F005070706000010305090F2
:10158000F81010050707060000F880F008088870BA
:10159000050707060000708080F08888700507073F
:1015A000060000F80810202020200507070600008C
:1015B0007088887088887005070706000070888822
:1015C00078080870020505060200C0C000C0C0020D
:1015D00006060602FFC0C000C040800407070600E0
:1015E0000010204080402010050303060002F80090
:1015F000F8040707060100804020102040800507FE
:101600000706000070880810200020050707060064
:101610000070880868A8A870050707060000708891
:1016200088F8888888050707060000F08888F08811
:1016300088F00507070600007088808080887005A4
:101640000707060000F08888888888F005070706E5
:101650000000F88080F08080F8050707060000F899
:101660008080F0808080050707060000708880B8C1
:10167000888870050707060000888888F8888888A9
:1016800001070706020080808080808080050707B0
:1016900006000038101010109060050707060000C3
:1016A0008890A0C0A0908805070706000080808071
:1016B000808080F805070706000088D8A8888888F9
:1016C000880507070600008888C8A8988888050745
:1016D000070600007088888888887005070706005C
:1016E00000F08888F0808080050707060000708879
:1016F0008888A89068050707060000F08888F0A091
:101700009088050707060000788080700808F005BB
:101710000707060000F820202020202005070706E4
:101720000000888888888888700507070600008878
:1017300088888888502005070706000088888888E0
:1017400088A8500507070600008888502050888820
:101750000507070600008888885020202005070715
:10176000060000F80810204080F803070706010073
:10177000E08080808080E005050506000180402033
:101780001008030707060100E02020202020E005C4
:101790000303060004205088050101060000F8023A
:1017A0000202060205804005050506000070087863
:1017B00088780507070600008080B0C88888F00593
:1017C0000505060000708080887005070706000088
:1017D000080868988888780505050600007088F86C
:1017E00080700507070600003048E0404040400593
:1017F00006060600FF70888878087005070706004F
:10180000008080B0C8888888010707060200800031
:1018100080808080800308080601FF2000202020AF
:1018200020A040040707060000808090A0C0A09080
:10183000030707060100C04040404040E0050505A1
:10184000060000D0A8A8A8A8050505060000B0C895
:101850008888880505050600007088888870050658
:10186000060600FFF08888F080800506060600FF67
:10187000788888780808050505060000B0C88080CB
:101880008005050506000070807008F00407070653
:1018900000004040E040404030050505060000885B
:1018A0008888986805050506000088888850200506
:1018B00005050600008888A8A85005050506000053
:1018C00088502050880506060600FF88888878081A
:1018D00070050505060000F8102040F8030707060C
:1018E00001002040408040402001070706020080A0
:1018F00080808080808003070706010080404020B0
:1019000040408005020206000268900000000600C8
:10191000005072696E746572205374617473004272
:101920006F61726420496E666F005072696E7465F3
:101930007220496E666F00476F204261636B004DF5
:1019400036303020423020542564004D373031206D
:10195000542564004D373032203B2564004D37302C
:10196000322054256400556E6C6F61642066696C8A
:10197000616D656E7400556E6C6F61642066696C94
:10198000616D656E74004D373032004D3730310077
:101990004C6F61642066696C616D656E74004D36D4
:1019A0003030204230004368616E67652066696CA4
:1019B000616D656E740050726570617265005052A1
:1019C000494E542050415553454400554E4C4F41CB
:1019D000442046494C414D454E54004C4F41442013
:1019E00046494C414D454E54005075726765206D17
:1019F0006F726500436F6E74696E75650052455372
:101A0000554D45204F5054494F4E533A0020204EDB
:101A10006F7A7A6C653A20006368616E6765006F63
:101A200066207468652066696C616D656E74005728
:101A300061697420666F7220737461727400202073
:101A40004E6F7A7A6C653A2000200066696C616D91
:101A5000656E7420756E6C6F6164005761697420E7
:101A6000666F720020204E6F7A7A6C653A200020F3
:101A700000506C6561736520776169742E2E2E00AD
:101A800048656174696E67206E6F7A7A6C650020B4
:101A9000204E6F7A7A6C653A200020006865617488
:101AA000206E6F7A7A6C652E0050726573732062B7
:101AB0007574746F6E20746F0020204E6F7A7A6C8C
:101AC000653A2000746F20636F6E74696E75652EC1
:101AD0002E2E00616E6420707265737320627574BF
:101AE000746F6E00496E736572742066696C616D07
:101AF000656E740020204E6F7A7A6C653A20002063
:101B00000066696C616D656E74206C6F616400576E
:101B100061697420666F720020204E6F7A7A6C655E
:101B20003A2000200066696C616D656E74207075E6
:101B3000726765005761697420666F7200746F2068
:101B4000726573756D65005761697420666F7220E8
:101B50007072696E74000E000E000E000E000E0012
:101B60000E000E000E007FC03F801F000E0004001C
:101B700004000E001F003F807FC00E000E000E000C
:101B80000E000E000E000E000E0003F8000FFE0007
:101B90001E0F00380700380380700380700FE0705C
:101BA00007C0700380700100700000380000380723
:101BB000001E0F000FFE0003F80000FE0003FF8070
:101BC0000783C00E01C00E00E01C00E07F00E03E75
:101BD00000E01C00E00800E00000E00001C00E0191
:101BE000C00F078007FF0001FC00FFFFFF7F80FFA1
:101BF000C0FFC0FFC07F807F80FFC0FFC0FFC03F2D
:101C0000001E000C004C6976652061646A7573746F
:101C1000205A005072656865617420504C4120451F
:101C20006E64005072656865617420504C412042BA
:101C30006564005072656865617420504C410050C5
:101C400072657061726500507265686561742041EB
:101C5000425320456E64005072656865617420418E
:101C6000425320426564005072656865617420418A
:101C700042530050726570617265004D3432380015
:101C80005072656865617420414253005072656806
:101C900065617420504C4100436F6F6C646F776EC8
:101CA000202D202030200943004368616E676520A5
:101CB00066696C616D656E740044697361626C6520
:101CC000207374657070657273004D38340053650D
:101CD0007420686F6D65206F66667365747300416C
:101CE00075746F737461727400426564204C65761C
:101CF000656C696E67004732380A473239004175B2
:101D0000746F20686F6D6500473238004D6F7665DF
:101D10002061786973004D61696E004D6F766520B2
:101D200058004D6F76652059004D6F7665205A003A
:101D300045787472756465004D6F766520302E317C
:101D40006D6D004D6F766520316D6D004D6F766560
:101D50002031306D6D004D6F7665206178697300BC
:101D600045787472756465004D6F7665205A004D34
:101D70006F76652059004D6F766520580045787460
:101D800072756465004D6F7665205A004D6F7665FB
:101D90002059004D6F766520580050726570617251
:101DA0006500496E697469616C697A6520454550C2
:101DB000524F4D00436F6E74726F6C0052657374B6
:101DC0006F7265206661696C73616665004C6F6156
:101DD000642073657474696E677300496E69746911
:101DE000616C697A6520454550524F4D0053746FC0
:101DF00072652073657474696E67730046696C61FF
:101E00006D656E74004D6F74696F6E0054656D7012
:101E100065726174757265004D61696E005072651E
:101E2000686561742041425320636F6E6600507292
:101E3000656865617420504C4120636F6E66005088
:101E400049442D4B64005049442D4B640050494493
:101E50002D4B69005049442D4B69005049442D4B8E
:101E600070005049442D4B70002008204661637477
:101E70000020082046616374002008204D6178002E
:101E80002008204D6178002008204D696E00200850
:101E9000204D696E004F6666004F6E2000417574DC
:101EA0006F74656D700046616E20737065656420A7
:101EB0002825290046616E207370656564202825F9
:101EC00029004265642028094329004265642028CE
:101ED000094329004E6F7A7A6C652028094329004E
:101EE0004E6F7A7A6C65202809432900436F6E741F
:101EF000726F6C0053746F72652073657474696ED1
:101F00006773004265642028094329004265642004
:101F100028094329004E6F7A7A6C652028094329E5
:101F2000004E6F7A7A6C6520280943290046616E5D
:101F3000207370656564202825290046616E207332
:101F400070656564202825290054656D706572618F
:101F5000747572650057726974696E6720746F20BA
:101F600066696C653A20006F70656E206661696C09
:101F700065642C2046696C653A20006F70656E20A0
:101F80006661696C65642C2046696C653A20004680
:101F9000696C652073656C65637465640A00205321
:101FA000697A653A200046696C65206F70656E65D8
:101FB000643A20006F70656E206661696C65642C00
:101FC0002046696C653A20002066696C653A2000FD
:101FD000646F696E67006672657368004E6F772084
:101FE00000454E4420535542524F5554494E450AE0
:101FF000002220706F73002220706172656E743A47
:102000002200535542524F5554494E452043414CAE
:102010004C207461726765743A22004B494C4C4500
:10202000442E2000747279696E6720746F2063619A
:102030006C6C207375622D67636F64652066696CD4
:102040006573207769746820746F6F206D616E7995
:10205000206C6576656C732E204D4158206C65763A
:10206000656C2069733A004572726F723A00436181
:102070006E6E6F74206F70656E2073756264697226
:1020800020006563686F3A006265640A002C207363
:10209000797374656D2073746F7070656421204866
:1020A00065617465725F49443A20004865617469EE
:1020B0006E67206661696C65640048656174696E6D
:1020C00067206661696C65640048656174696E6764
:1020D000206661696C65640048656174696E67209B
:1020E0006661696C6564004B494C4C45442E200088
:1020F00070012C0190012701B0012201C0011D01D6
:10210000F00118011002130130020E0160020901F2
:1021100090020401C002FF000003FA004003F50032
:102120008003F000D003EB002004E6007004E1001F
:10213000E004DC004005D700C005D2004006CD0019
:10214000D006C8008007C3003008BE00F008B90000
:10215000C009B400B00AAF00B00BAA00D00CA500B3
:10216000000EA000500F9B00C0109600501291006E
:1021700000148C00C0158700B0178200B0197D00D4
:10218000D01B7800001E730040206E009022690072
:10219000F024640040275F0090295A00E02B55008E
:1021A000102E500020304B0010324600E03341002A
:1021B00090353C001037370070383200A0392D00C0
:1021C000B03A2800A03B2300603C1E00103D1900DF
:1021D000903D1400103E0F00703E0A00C03E050006
:1021E000003F0000403FFBFF803FF6FFC03FF1FF94
:1021F00042454420544845524D414C2052554E4191
:1022000057415900544845524D414C2052554E417A
:1022100057415900546865726D616C2052756E614A
:10222000776179004572723A204D494E54454D50C0
:1022300020424544004572723A204D494E54454D66
:1022400050004D494E54454D502074726967676582
:10225000726564004572723A204D415854454D50A4
:1022600020424544004572723A204D415854454D34
:1022700050004D415854454D502074726967676550
:1022800072656400202F002042403A0020403A004E
:1022900000002200250028002B002E003100340011
:1022A00002010000050108010B01000020002300CD
:1022B000260029002C002F0032000001000003013D
:1022C00006010901050505050705080808080202B9
:1022D00002020A0A080804040404010101010101C0
:1022E00001010303030303030303040707070C0CA3
:1022F0000C0C0C0C0C0C020202020606060606066A
:1023000006060B0B0B0B0B0B0B0B0102102020080E
:102310000810204010204080020102010804020140
:1023200001020408102040808040201008040201AF
:102330008004020180402010080402010804020108
:10234000010204081020408001020408102040808F
:1023500000000A0B02090C0D0E080703040100001F
:10236000000000000000000000000000000000006D
:10237000000000000000000000000000121110002A
:10238000000000000000000000000000000000004D
:102390000000000000004B494C4C45442E2000201A
:1023A0002D20496E76616C6964206578747275645D
:1023B0006572206E756D62657220210A0000000052
:1023C0000000000000000000C0000000000000004D
:1023D0000001E0000000000000000007F80000001D
:1023E00000000000001FFE00000000000000007E52
:1023F0001F8000000000000000F807C3603043F1B8
:10240000FDFBF0E1E0C37070E3FDFDFBF8E3F0439A
:102410007070E30F80330CE7390378F1B3038073F6
:1024200006E6198378F1B303F8FB066619C36DB3AA
:102430001B03F81F062739C36FB3FB07800F0EC3BA
:10244000F1C367371F0F819F1CE1E1C3673E0FFD9A
:10245000FDFBF8F807C3623C03F1FC63F07E1F80CC
:10246000000000000000001FFE000000000000004F
:102470000007F8000000000000000001E00000007C
:10248000000000000000C00000000000000000008C
:102490000000000000000000004A656C6C79424FAB
:1024A000582052656164792E002020506C616E6E58
:1024B000657242756666657242797465733A20008A
:1024C0002046726565204D656D6F72793A20004334
:1024D0006F6D70696C65643A204D617220333020F5
:1024E000323031380A00207C20417574686F723AAE
:1024F0002028494D4144453344290A0032303138BF
:102500002D30312D323000204C61737420557064B1
:10251000617465643A20006275676669782D312EB2
:10252000312E780A004D61726C696E0020536F661F
:1025300074776172652052657365740A0020576173
:10254000746368646F672052657365740A00204283
:10255000726F776E206F75742052657365740A0010
:102560002045787465726E616C2052657365740ADB
:1025700000506F77657255700A0073746172740A47
:10258000006572726F722077726974696E67207469
:102590006F2066696C650A00456E6473746F7073B2
:1025A00020256320256320256320256300205A3AD7
:1025B0000020593A0020583A00656E6473746F70B9
:1025C00073206869743A2000446F6E6520736176E9
:1025D000696E672066696C652E0A004D32390043CA
:1025E00068616E67652066696C616D656E74004D2B
:1025F0003630302042300046616E2073706565646D
:10260000202825290046616E2073706565642028A6
:102610002529004265642028094329004265642079
:1026200028094329004E6F7A7A6C652028094329CE
:10263000004E6F7A7A6C6520280943290053706533
:1026400065642028252900537065656420282529A4
:1026500000466C6F772028252900466C6F7720286C
:102660002529004C6976652061646A757374205A67
:102670002068656967687400476F204261636B007A
:102680005049442D4B64005049442D4B640050493F
:10269000442D4B69005049442D4B69005049442D4D
:1026A0004B70005049442D4B7000476F20426163CE
:1026B0006B005049442D4B64005049442D4B64003D
:1026C0005049442D4B69005049442D4B69005049F5
:1026D000442D4B70005049442D4B7000476F2042F1
:1026E00061636B00503A30302E3020493A302E3042
:1026F00020443A3030302E30000043757272656EDF
:1027000074205049442076616C7565733A00004529
:10271000646974205049442076616C756573004883
:102720006F74656E6420504944206175746F7475D0
:102730006E65004D3330332043382045302053320E
:102740003235205500476F204261636B00503A30AC
:10275000302E3020493A302E3020443A3030302E5E
:1027600030000043757272656E74205049442076C3
:10277000616C7565733A0000456469742050494482
:102780002076616C75657300426564205049442071
:102790006175746F74756E65004D33303320433549
:1027A00020452D3120533635205500476F2042619A
:1027B000636B0046616E207370656564202825296F
:1027C0000046616E20737065656420282529004EDF
:1027D0006F7A7A6C652028094329004E6F7A7A6CEB
:1027E00065202809432900426564202809432900FF
:1027F0004265642028094329004265642050494409
:1028000000486F74656E642050494400476F204251
:1028100061636B0064656661756C74732E202020A3
:1028200020202020202020202020202020202020A8
:102830002020202000746865697220666163746FCF
:1028400072792020202020202020202020202020DD
:1028500020202020200068617665206265656E205A
:10286000726573657420746F202020202020202042
:10287000202020202020005375636365737321207E
:10288000416C6C2073657474696E6773202020201E
:1028900020202020202020004D3530320A4D3530B8
:1028A000300076616C7565732E202020202020205A
:1028B0002020202020202020202020007265736509
:1028C0007420746F2064656661756C74202020200C
:1028D000202020202000452D73746570732C2077F4
:1028E000696C6C20626520202020202020202000A0
:1028F00073657474696E67732C206C696B65205006
:102900004944206F722020202000534420636172CC
:10291000642C2062757420616C6C202020202020A3
:1029200020202000746F20796F75722066696C65B5
:1029300073206F6E207468652020202020004E6F69
:102940007468696E672077696C6C20686170706567
:102950006E202020202020006D656D6F7279202868
:10296000454550524F4D292E202020202020202048
:10297000200074686520696E7465726E616C2073E6
:10298000657474696E67732020202000466163744B
:102990006F72792072657365742077697065732032
:1029A000202020202000726573657420796F757275
:1029B000204A656C6C79424F582E20202020200040
:1029C000686F6C6420666F722035207365636F6E6C
:1029D000647320746F202020200027526573657473
:1029E000212720627574746F6E20616E6420202030
:1029F000202020002D2D203F202D2D20507265738A
:102A00007320746865202020202020202000476F3C
:102A1000204261636B00466163746F727920726556
:102A20007365742028212900476F204261636B0081
:102A300044616E676572207A6F6E65004D6F7469D0
:102A40006F6E0054656D70657261747572650047D4
:102A50006F204261636B00696D61646533642E634E
:102A60006F6D2F737570706F72742020202020207E
:102A70002020202020202000666F72756D2E696D49
:102A800061646533642E636F6D2020202020202038
:102A9000202020202020202000646F63732E696D89
:102AA00061646533642E636F6D2020202020202018
:102AB0002020202020202020200041626F757420DB
:102AC00074686973204A656C6C79424F5800476F8F
:102AD000204261636B004D6F76652058004D6F7624
:102AE000652059004D6F7665205A00437573746FE9
:102AF0006D206C656E67746820286D6D290031301B
:102B000030206D6D003530206D6D003130206D6DE1
:102B10000035206D6D0031206D6D00437573746F4D
:102B20006D206C656E67746820286D6D29004162A8
:102B30006F727420657874727573696F6E00697452
:102B400073206F776E2073616B652E20202020200C
:102B500020202020202020202020202020006672FD
:102B60006F6D206576656E20747279696E673B20A3
:102B7000666F7220202020202020202020004A651F
:102B80006C6C79424F5820697320666F7262696479
:102B900064656E20202020202020202020006772E5
:102BA000696E64696E672E20596F7572202020202F
:102BB0002020202020202020202020202000746F92
:102BC000206A616D6D696E6720616E64202020202F
:102BD00020202020202020202020202020006E6F78
:102BE0007A7A6C652077696C6C206F6E6C79206CDA
:102BF000656164202020202020202020200066699C
:102C00006C616D656E7420696E746F206120636FF6
:102C10006C642020202020202020202020002D2D2A
:102C2000203F202D2D20466F7263696E6720202083
:102C3000202020202020202020202020200075700F
:102C400020746F206174206C65617374203137309B
:102C500009432E2020202020202020202020006337
:102C60006F6C642E20506C656173652068656174BB
:102C700020697420202020202020202020200054A3
:102C80006865206E6F7A7A6C6520697320746F6F47
:102C9000202020202020202020202020202000472D
:102CA0006F204261636B0050726F62696E672066CD
:102CB00061696C65640A0050726F62696E672066B4
:102CC00061696C656400205A3A200020593A20005E
:102CD00042656420583A2000486F6D6520257325B1
:102CE0007325732066697273740020666972737449
:102CF0000A005A0059005800486F6D652000617540
:102D0000746F25692E67004D3234004D3233202513
:102D1000730053442063617264206F6B0A006F700C
:102D2000656E526F6F74206661696C65640A007627
:102D30006F6C756D652E696E6974206661696C656E
:102D4000640A00534420696E6974206661696C0AE4
:102D500000205A3A0020593A0020436F756E7420C3
:102D6000583A0020453A00205A3A0020593A005873
:102D70003A003A004361703A0053657474696E67B3
:102D80002054726176656C20416363656C65726185
:102D900074696F6E3A200053657474696E672052CF
:102DA00065747261637420416363656C65726174FC
:102DB000696F6E3A200053657474696E67205072B3
:102DC000696E7420416363656C65726174696F6ECE
:102DD0003A200053657474696E67205072696E748E
:102DE00020616E642054726176656C204163636576
:102DF0006C65726174696F6E3A2000205A00205928
:102E000000580020204D61783A2000205A002059B7
:102E100000580020204D696E3A20004F6E20004F70
:102E2000666600536F667420656E6473746F7073AA
:102E30003A200050726F6265205A204F66667365B3
:102E4000743A200020643A0020693A0020703A0069
:102E5000496E76616C696420657874727564657218
:102E60000A00486F74656E6420746F6F20636F6C26
:102E7000640A004D3630303A20546F6F20636F6C17
:102E80006400486F74656E6420746F6F20636F6CAC
:102E9000640A005374616E646172642044657669EB
:102EA0006174696F6E3A20002052616E67653A2046
:102EB00000204D61783A2000204D696E3A20004D87
:102EC00065616E3A200046696E6973686564210A1F
:102ED000002072616E67653A2000206D61783A20AB
:102EE00000206D696E3A2000207369676D613A2099
:102EF00000206D65616E3A20003A207A3A20002069
:102F00006F662000205A00205900205800476F6942
:102F10006E6720746F3A00436C6F636B77697365FB
:102F20000A00436F756E7465722D002044697265E6
:102F30006374696F6E3A2000202020616E676C65B3
:102F40003A20005374617274696E6720726164691B
:102F500075733A2000506F736974696F6E696E679C
:102F6000207468652070726F62652E2E2E0A003FF5
:102F70004E756D626572206F66206C65677320699F
:102F80006E206D6F76656D656E74206E6F74207047
:102F90006C61757369626C652028302D3135292E7E
:102FA0000A00590058003F53616D706C65207369C9
:102FB0007A65206E6F7420706C61757369626C65E0
:102FC0002028342D3530292E0A004D3438205A2D32
:102FD00050726F6265205265706561746162696CE0
:102FE00069747920546573740A003F285629657204
:102FF000626F7365206C6576656C20697320696DFE
:10300000706C61757369626C652028302D34292ECF
:103010000A004368616E67652066696C616D656E64
:103020007400556E6C6F61642066696C616D656ECD
:1030300074004C6F61642066696C616D656E74002C
:103040005072656865617420414253005072656832
:1030500065617420504C41004368616E676520666D
:10306000696C616D656E7400496E7365727420667B
:10307000696C616D656E7420616E64207072657339
:103080007320627574746F6E20286F72204D31301A
:1030900038290A00473238205A20466F7262696424
:1030A00064656E0A00473238205A20466F726269A2
:1030B0006464656E0024F4D43050C38E20C2A240F4
:1030C00017828B7011127A910D816CD90AA861E177
:1030D00008C7586607615143061E4B5D05C145A7E9
:1030E000041A411104093D9803713931034036DB5C
:1030F0000265339102D4305402802E1D02632CEEFF
:1031000001752AC501B028A001102781018F25640F
:10311000012B244B01E0223401AC211F018D200D35
:1031200001801FFC00841EED00971DDF00B81CD23B
:1031300000E61BC600201BBC00641AB200B219A82E
:10314000000A19A0006A189900D117910040178B46
:1031500000B516840031167E00B31579003A157358
:1031600000C7146F0058146A00EE136600881363DA
:103170000025135E00C7125B006C12570015125435
:1031800000C111510070114F0021114B00D61049A0
:10319000008D1047004610440002104200C00F404E
:1031A00000800F3E00420F3C00060F3B00CB0E3864
:1031B00000930E37005C0E3500270E3400F30D32FD
:1031C00000C10D3100900D3000600D2E00320D2D2C
:1031D00000050D2C00D90C2B00AE0C2900850C2904
:1031E000005C0C2700350C27000E0C2600E80B2491
:1031F00000C40B2400A00B23007D0B23005A0B21DD
:1032000000390B2100180B2000F80A1F00D90A1EF4
:1032100000BB0A1E009D0A1D00800A1D00630A1CD7
:1032200000470A1B002C0A1B00110A1A00F7091A92
:1032300000DD091900C4091900AB0919009209172A
:10324000007B091800630917004C0916003609169F
:1032500000200916000A091500F5081500E00814F9
:1032600000CC081400B8081400A408140090081337
:10327000007D0812006B081300580812004608125F
:103280000034081100230811001208110001081170
:1032900000F0071000E0071000D0071000C0071072
:1032A00000B0070F00A107100091070E0083070F61
:1032B0000074070F0065070E0057070E0049070E40
:1032C000003B070D002E070E0020070D0013070D11
:1032D0000006070D00F9060C00ED060D00E0060CD7
:1032E00000D4060C00C8060C00BC060C00B0060C8E
:1032F00000A4060B0099060C008D060B0082060B3D
:103300000077060B006C060B0061060A0057060BDF
:10331000004C060A0042060A0038060A002E060A79
:103320000024060A001A060A001006090007060A09
:1033300000FD050900F4050900EB050900E2050997
:1033400000D9050900D0050900C7050900BE050917
:1033500000B5050800AD050800A50509009C050895
:1033600000940508008C050800840508007C050809
:1033700000740508006C050700650508005D050779
:1033800000560508004E05070047050700400508E0
:103390000038050700310507002A05070023050747
:1033A000001C050600160507000F050700080506A6
:1033B0000002050700FB040600F5040700EE040602
:1033C00000E8040600E2040700DB040600D504065A
:1033D00000CF040600C9040600C3040600BD0406AD
:1033E00000B7040600B1040500AC040600A60406FC
:1033F00000A00405009B0406009504050090040647
:10340000008A04050085040500800406007A04058E
:103410000075040500700405006B040500660405D2
:1034200000610405005C0405005704050052040512
:10343000004D04050048040500430405003E040453
:10344000003A04050035040500300404002C04058E
:103450000027040400230405001E0404001A0404C9
:103460000016040500110404000D040400090405FD
:10347000000404040000040400FC030400F8030436
:1034800000F4030400F0030400EC030400E8030468
:1034900000E4030400E0030400DC030400D8030498
:1034A00000D4030400D0030400CC030400C80303C9
:1034B00000C503030024F404D9201BC40C5C0E983F
:1034C00004C4095F0265077101F405F900FB04B348
:1034D0000048048700C103690058035500030345F1
:1034E00000BE023A008402310053022A002902255C
:1034F0000004022000E4011C00C8011900AF0117FC
:103500000098011400840113007101100061011082
:103510000051010E0043010D0036010B002B010B81
:103520000020010B00150109000C0109000301082E
:1035300000FB000800F3000800EB000700E40006B1
:1035400000DE000600D8000600D2000600CC000510
:1035500000C7000500C2000500BD000400B900045A
:1035600000B5000400B1000400AD000400A900048F
:1035700000A5000300A20003009F0004009B0003BD
:1035800000980003009500020093000300900003E0
:10359000008D0002008B00030088000200860002FC
:1035A0000084000300810002007F0002007D000211
:1035B000007B000200790002007700010076000223
:1035C000007400020072000100710002006F00022E
:1035D000006D0001006C0002006A00010069000239
:1035E0000067000100660001006500010064000240
:1035F000006200010061000100600001005F000244
:10360000005D0001005C0001005B0001005A000148
:103610000059000100580001005700010056000148
:103620000055000100540001005300000053000148
:10363000005200010051000100500001004F000144
:10364000004E0000004E0001004D0001004C000142
:10365000004B0000004B0001004A0001004900013E
:10366000004800000048000100470001004600003B
:103670000046000100450000004500010044000133
:10368000004300000043000100420000004200012E
:10369000004100000041000100400001003F000027
:1036A000003F0001003E0000003E0001003D000020
:1036B000003D0001003C0000003C0000003C000117
:1036C000003B0000003B0001003A0000003A00010E
:1036D0000039000000390001003800000038000007
:1036E00000380001003700000037000100360000FC
:1036F00000360000003600010035000000350000F3
:1037000000350001003400000034000000340001E6
:1037100000330000003300000033000100320000DD
:1037200000320000003200010031000000310000D2
:1037300000310001003000000030000000300001C6
:10374000002F0000002F0000002F0000002F0001BC
:10375000002E0000002E0000002E0001002D0000B1
:10376000002D0000002D0000002D0001002C0000A5
:10377000002C0000002C0000002C0001002B000099
:10378000002B0000002B0000002B0001002A00008D
:10379000002A0000002A0000002A00010029000081
:1037A0000029000000290000002900000029000174
:1037B0000028000000280000002800000028000069
:1037C000002800010027000000270000002700005B
:1037D000002700000027000100260000002600004E
:1037E0000026000000260000002600010025000041
:1037F0000025000000250000002500000025000035
:103800000025000100240000002400000024000026
:103810000024000000240001002300000023000019
:10382000002300000023000000230000002300000C
:1038300000230001002200000022000000220000FE
:1038400000220000002200000022000100210000F0
:1038500000210000002100000021000000210000E4
:1038600000210000002100010020000000200000D5
:1038700000200000002000000020000000200000C8
:103880000020000000200001001F0000001F0000B9
:10389000001F0000001F0000001F0000001F0000AC
:1038A000001F0001001E0000001E0000001E00009E
:1038B000001E0000004D383420582059205A204561
:1038C000001000C90210012C0140012201700118F2
:1038D00001B0010E01F00104015002FA00B002F043
:1038E000003003E600D003DC009004D2007005C86D
:1038F00000A006BE000008B400B009AA00D00BA0CA
:1039000000600E960060118C00001582002019786E
:1039100000C01D6E00A0226400B0275A00902C50F9
:103920000000314600E0343C0010383200903A2864
:1039300000603C1E00A03D1400803E0A00203F00B5
:103940000025753A2530327500253032753A25301C
:1039500032750025756420253032753A2530327570
:10396000005A005900580009200000000000000023
:103970000000000000003FFFF00000000000000019
:10398000000000000038007000000000000000008F
:103990000000000030FC30000000000000000000CB
:1039A00000000020FC1000000000000000000000EB
:1039B000000020781000000000000000000000005F
:1039C0000020301000000000000000000000000097
:1039D0002C00D03FC0000000000000002082002E1C
:1039E00031D07FE0000000000000001041002F7B7C
:1039F000D07FE0000000000000001041002F7BD0CD
:103A00007FE0000000000000002082002E31D03F47
:103A1000C0000000000000004104002C00D03FC0A6
:103A2000000000000000008208002030107FE0004D
:103A30000000000000008208002078107FE00000F5
:103A4000000000000041040020FC107FE0000000A6
:103A50000000000020820030FC301F8000000000C9
:103A60000000000000003800700F0000000000009F
:103A70000000FFFFC03FFFF0060000000000000054
:103A800000FFFFC000000000000000000000000078
:103A90000000003FFFF000000000000000000000F8
:103AA000000038007000000000000000000000006E
:103AB000003186300000000000000000000000001F
:103AC0002387100000000000000000000000002715
:103AD00087900000000000000000000000002F8719
:103AE000D00000000000000000000000002F03D004
:103AF0003FC0000000000000002082002030107F46
:103B0000E0000000000000001041002078107FE07D
:103B1000000000000000001041002078107FE0004D
:103B20000000000000002082002030103FC0000094
:103B300000000000004104002F03D03FC00000003F
:103B4000000000008208002F87D07FE00000000006
:103B50000000008208002787907FE000000000003E
:103B600000004104002387107FE0000000000000F7
:103B7000002082003186301F80000000000000001D
:103B80000000003800700F0000000000000000FF7F
:103B9000FFC03FFFF0060000000000000000FFFF34
:103BA000C000000000060900FE000000000001093E
:103BB0000008FE000005080806000040F0C88888DC
:103BC000987810050808060000C0F888888888885A
:103BD000F80505050600012030F830200508080624
:103BE00000002070F820202020E00509090600FFD1
:103BF0002070A8A8B8888870200509090600FFE091
:103C000080C0B0A8283028280509090600FFF8A8B8
:103C10008888888888A8F8050A0A0600FE2050507F
:103C2000505088A8A8887003030306000340A040F2
:103C300000002100240027002A002D00300033005E
:103C400001010000040107010A014361726420724E
:103C5000656D6F766564004361726420696E73659B
:103C600072746564004D6F7665205A004D6F7665FD
:103C70002059004D6F766520580041626F727400C4
:103C8000476F204261636B00486F6D652058595A39
:103C90000047323820582059205A00486F6D65205F
:103CA0005900473238205900486F6D652058004749
:103CB0003238205800476F204261636B00457874AA
:103CC0007275646500004D6F7665205A00004D6F77
:103CD0007665205900004D6F766520580000476FCB
:103CE000204261636B005A20456E6473746F703AB2
:103CF000204E6F7420547269676765726564202076
:103D000020202020005A20456E6473746F703A2082
:103D10005472696767657265642020202020202026
:103D2000202020005920456E6473746F703A204E35
:103D30006F74205472696767657265642020202063
:103D40002020007A5F6D696E3A20005920456E642C
:103D500073746F703A205472696767657265642086
:103D6000202020202020202020005820456E647331
:103D7000746F703A204E6F74205472696767657271
:103D8000656420202020202000795F6D696E3A2034
:103D9000005820456E6473746F703A2054726967DE
:103DA00067657265642020202020202020202000CC
:103DB000785F6D696E3A2000476F204261636B0047
:103DC00054657374205A2070726F626500473238F0
:103DD000205A0062652061646A75737465642066A8
:103DE0006972737420202020202020202020202091
:103DF0002020005761726E696E6721205A20707210
:103E00006F6265206D757374202020202020202093
:103E1000202000476F204261636B0054657374205B
:103E20005A2070726F626500546573742059206562
:103E30006E6473746F700047323820590054657394
:103E400074205820656E6473746F70004732382098
:103E50005800476F204261636B0043290A0061628A
:103E60006C656420286D696E2074656D7020004358
:103E70006F6C642065787472756465732061726517
:103E800020004B64200023646566696E6520204431
:103E9000454641554C545F004B69200023646566DC
:103EA000696E65202044454641554C545F004B7077
:103EB000200023646566696E6520204445464155AF
:103EC0004C545F00504944204175746F74756E65A1
:103ED0002066696E6973686564212050757420746A
:103EE0006865206C617374204B702C204B692061D5
:103EF0006E64204B6420636F6E7374616E74732004
:103F000066726F6D2062656C6F7720696E746F20CA
:103F1000436F6E66696775726174696F6E2E680AA9
:103F200000504944204175746F74756E6520666158
:103F3000696C6564212074696D656F75740A00424F
:103F4000454420544845524D414C2052554E41570E
:103F5000415900544845524D414C2052554E41570D
:103F6000415900546865726D616C2052756E6177BD
:103F700061790048656174696E67206661696C6586
:103F8000640048656174696E67206661696C656488
:103F900000504944204175746F74756E65206661E8
:103FA000696C6564212054656D7065726174757209
:103FB0006520746F6F20686967680A00204B643A57
:103FC0002000204B693A2000204B703A20000A2044
:103FD000436C617373696320504944200A00205484
:103FE000753A2000204B753A2000206D61783A2008
:103FF00000206D696E3A200020643A20002062693A
:1040000061733A2000504944204175746F74756E95
:1040100065206661696C6564212042616420657871
:10402000747275646572206E756D6265720A0050F7
:104030004944204175746F74756E652073746172A4
:10404000740A004F666673657473206170706C69E2
:104050006564004572723A20546F6F206661722168
:1040600000546F6F206661722066726F6D207265FA
:10407000666572656E636520706F696E740A003ADA
:10408000200050726F6265205A204F666673657417
:10409000003F5A206F7574206F662072616E6765ED
:1040A00020282D323020746F203230290A004E6FC4
:1040B0002063617365206C696768740A00565472E6
:1040C0006176206D696E005654726176206D696E5E
:1040D000005654726176206D696E00566D696E00EF
:1040E000566D696E00566D696E00566D617820459B
:1040F00000566D6178204500566D61782045005668
:104100006D6178205A00566D6178205A00566D61B5
:1041100078205A00566D6178205900566D617820DC
:104120005900566D6178205900566D61782058000D
:10413000566D6178205800566D6178205800476FA1
:10414000204261636B00416D6178204500416D61E3
:1041500078204500416D6178205A00416D617820DA
:104160005A00416D6178205900416D6178205900F5
:10417000416D6178205800416D6178205800412DD3
:1041800074726176656C00412D74726176656C00A5
:10419000412D7265747261637400412D7265747291
:1041A00061637400416363656C00416363656C0027
:1041B000476F204261636B0056652D6A65726B0024
:1041C00056652D6A65726B0056652D6A65726B00C7
:1041D000567A2D6A65726B00567A2D6A65726B008D
:1041E00056792D6A65726B0056792D6A65726B007F
:1041F00056792D6A65726B0056782D6A65726B0070
:1042000056782D6A65726B0056782D6A65726B0060
:10421000476F204261636B005072696E7420706159
:1042200075736564004D31323500004D32340050F5
:1042300072696E742061626F727465640050726995
:104240006E742066726F6D20534420636172640047
:1042500053746F70207072696E7400526573756D5F
:1042600065207072696E74004E6F20534420636144
:104270007264005061757365207072696E740053CA
:104280007570706F72740053657474696E67730033
:1042900043616C6962726174696F6E005072656827
:1042A00065617400456A6563742066696C616D655B
:1042B0006E7400004C6F61642066696C616D656EA0
:1042C0007400005072696E742041646A7573746D75
:1042D000656E747300436F6E74726F6C00486F6D1F
:1042E0006520262052656C65617365004732380A87
:1042F0004D38340050726570617265005072696E9D
:10430000742041646A7573746D656E7473004C69D2
:1043100076652061646A757374205A00476F204285
:1043200061636B004265642028094329004E6F7A5F
:104330007A6C652028094329004D313034205330F0
:104340000A4D313430205330004D31303420533257
:1043500031300A4D31343020533535004D31303451
:1043600020533233350A4D31343020533635004D29
:1043700031303420533233300A4D3134302053350C
:104380003000464C4558202D203233302F35302018
:10439000094300504554202D20203233352F363527
:1043A00020094300437573746F6D202D203F2F3F0C
:1043B00020094300504C41202D20203231302F3530
:1043C0003520094300436F6F6C646F776E202D209A
:1043D00020302F3020094300476F204261636B007B
:1043E000526573656E643A20006F6B0040015401A2
:1043F00011241FBECFEFD1E2DEBFCDBF00E00CBF66
:1044000013E0A0E0B2E0ECE5FFE802E00BBF02C081
:1044100007900D92A237B107D9F725E1A2E7B3E0E3
:1044200001C01D92AC34B207E1F711E2C7EFD1E24F
:1044300000E006C021970109802FFE010F941B4761
:10444000C63FD10780E00807A9F70F9495330D9474
:104450009D470C9400002F923F924F925F926F9273
:104460007F928F929F92AF92BF92CF92DF92EF9204
:10447000FF920F931F93CF93DF93CDB7DEB7CE5745
:10448000D1090FB6F894DEBF0FBECDBF21E0209357
:10449000EB0D8091C3148D3411F40C94D32A843520
:1044A00011F40C94263A873411F00C94683A8091F8
:1044B000C1149091C2148C31910509F4A5C69CF4E5
:1044C000843091053CF4823091059CF597FF2AC019
:1044D0000C94823A8430910509F423C64B9709F471
:1044E00067C60C94823A8A32910509F405C74CF4E8
:1044F0008D31910509F48CC64E9709F48DC60C9444
:10450000823A8B35910509F4D2C78C35910509F4AF
:10451000D2C78A35910511F00C94823A1092760335
:104520000C94823A80912C0281110C94873A0C945D
:10453000823A20912C02222311F40C94823A11E049
:10454000029709F010E00E94D94682E50E94CD460C
:10455000882309F45CC10E9453466B017C014090A2
:104560005E0B50905F0B6090600B7090610B209120
:10457000620B3091630B4091640B5091650B2B964D
:104580002CAF3DAF4EAF5FAF2B978091F00D909168
:10459000F10DA091F20DB091F30D2F968CAF9DAF60
:1045A000AEAFBFAF2F972091F40D3091F50D409134
:1045B000F60D5091F70D67962CAF3DAF4EAF5FAF44
:1045C000679720E030E0A901C701B6010F94B63F1C
:1045D000882309F48CC5A30192012F966CAD7DADA3
:1045E0008EAD9FAD2F970F94B63F811111C02B96C2
:1045F0002CAD3DAD4EAD5FAD2B9767966CAD7DADEF
:104600008EAD9FAD67970F94B63F882309F46FC5B1
:1046100020E030E0A901C701B6010F94B63F881F22
:104620008827881F18130BC080E090E0A0E8BFE344
:10463000A3968CAF9DAFAEAFBFAFA3970AC020E0EB
:1046400030E040E85FEBA3962CAF3DAF4EAF5FAFDD
:10465000A397A30192012F966CAD7DAD8EAD9FAD5A
:104660002F970F941F446B966CAF7DAF8EAF9FAFAB
:104670006B972B962CAD3DAD4EAD5FAD2B976796EE
:104680006CAD7DAD8EAD9FAD67970F941F446F9657
:104690006CAF7DAF8EAF9FAF6F976B962CAD3DAD7E
:1046A0004EAD5FAD6B97CA01B9010F941B404B0132
:1046B0005C016F962CAD3DAD4EAD5FAD6F97CA01FD
:1046C000B9010F941B409B01AC01C501B4010F94CB
:1046D00020440F948B4663966CAF7DAF8EAF9FAF37
:1046E000639720E030E040E05FE30F941B404B0114
:1046F0005C01A7019601C701B6010F941B406B0135
:104700007C01A5019401C501B4010F941B409B01DC
:10471000AC01C701B6010F941F440F948B469B0157
:10472000AC01A3966CAD7DAD8EAD9FADA3970F94FC
:104730001B404B015C012F962CAD3DAD4EAD5FADE6
:104740002F97C301B2010F94204420E030E040E0F5
:104750005FE30F941B406B017C016F966CAD7DADE8
:104760008EAD9FAD6F97905863962CAD3DAD4EAD1D
:104770005FAD63970F94FC449B01AC01C501B4018C
:104780000F941B409B01AC01C701B6010F9420445C
:10479000A30192010F941F446B017C0167962CAD1D
:1047A0003DAD4EAD5FAD67972B966CAD7DAD8EADDB
:1047B0009FAD2B970F94204420E030E040E05FE372
:1047C0000F941B402B013C0163962CAD3DAD4EADCB
:1047D0005FAD63976B966CAD7DAD8EAD9FAD6B9706
:1047E0000F94FC449B01AC01C501B4010F941B4024
:1047F0009B01AC01C301B2010F9420442B962CAD58
:104800003DAD4EAD5FAD2B970F941F4414C089E4AE
:104810000E94CD46882329F00E9453466B017C01FB
:1048200003C0C12CD12C76018AE40E94CD46882396
:10483000F9F00E94534667966CAF7DAF8EAF9FAF85
:10484000679720E030E0A901C701B6010F94B63F99
:1048500081111EC020E030E0A90167966CAD7DADEE
:104860008EAD9FAD67970F94B63F811111C03FC4C5
:1048700020E030E0A901C701B6010F94B63F8823BC
:1048800009F435C467961CAE1DAE1EAE1FAE679709
:10489000D701C601B0582B968CAF9DAFAEAFBFAF5E
:1048A0002B9767962CAD3DAD4EAD5FAD67975058D9
:1048B0002F962CAF3DAF4EAF5FAF2F979C01AD0150
:1048C000BC01CD010F941B404B015C012F962CAD18
:1048D0003DAD4EAD5FAD2F97CA01B9010F941B409E
:1048E0009B01AC01C501B4010F9420440F948B4689
:1048F000EB966CAF7DAF8EAF9FAFEB9780915E0B69
:1049000090915F0BA091600BB091610B63968CAF9F
:104910009DAFAEAFBFAF6397A7019601BC01CD01BC
:104920000F942044A3966CAF7DAF8EAF9FAFA3973B
:104930002091620B3091630B4091640B5091650B99
:104940006B962CAF3DAF4EAF5FAF6B9767962CADBC
:104950003DAD4EAD5FAD67976B966CAD7DAD8EADE9
:104960009FAD6B970F942044A7966CAF7DAF8EAF31
:104970009FAFA7978091F00D9091F10DA091F20D4E
:10498000B091F30D6F968CAF9DAFAEAFBFAF6F9789
:10499000A3962CAD3DAD4EAD5FADA397BC01CD014F
:1049A0000F941F446B017C012091F40D3091F50DA3
:1049B0004091F60D5091F70DAB962CAF3DAF4EAF39
:1049C0005FAFAB97A7962CAD3DAD4EAD5FADA79752
:1049D000AB966CAD7DAD8EAD9FADAB970F941F4484
:1049E0004B015C018091660B9091670BA091680B65
:1049F000B091690BAF968CAF9DAFAEAFBFAFAF9725
:104A00009C01AD016091F80D7091F90D8091FA0D46
:104A10009091FB0D0F941F442B013C012091FC0D44
:104A20003091FD0D4091FE0D5091FF0DEF962CAF92
:104A30003DAF4EAF5FAFEF9780916A0B90916B0BDC
:104A4000A0916C0BB0916D0BE7968CAF9DAFAEAFA4
:104A5000BFAFE797A70196012B966CAD7DAD8EADEC
:104A60009FAD2B970F941B40E3966CAF7DAF8EAF3D
:104A70009FAFE397A50194012F966CAD7DAD8EADF0
:104A80009FAD2F970F941B409B01AC01E3966CAD3B
:104A90007DAD8EAD9FADE3970F942044E3966CAF50
:104AA0007DAF8EAF9FAFE397A50194012B966CADC0
:104AB0007DAD8EAD9FAD2B970F941B404B015C01DC
:104AC000A70196012F966CAD7DAD8EAD9FAD2F9752
:104AD0000F941B409B01AC01C501B4010F941F440E
:104AE000E3962CAD3DAD4EAD5FADE3970F9493448F
:104AF0006B017C0120E030E0A9010F94B63F87FFF5
:104B00000AC02BED3FE049EC50E4C701B6010F9419
:104B100020446B017C01112351F02BED3FE049EC67
:104B200050E4C701B6010F941F446B017C0120E0E3
:104B300030E0A901C701B6010F94B63F811128C02A
:104B40006F962CAD3DAD4EAD5FAD6F9763966CAD7E
:104B50007DAD8EAD9FAD63970F94B63F811118C0A8
:104B6000AB962CAD3DAD4EAD5FADAB976B966CADDE
:104B70007DAD8EAD9FAD6B970F94B63F811108C090
:104B80005BEDC52E5FE0D52E59ECE52E50E4F52EF9
:104B9000A7019601EB966CAD7DAD8EAD9FADEB9709
:104BA0000F941B404B015C0120E030E0A901C301E0
:104BB000B2010F94B63F8823C9F0A5019401C50145
:104BC000B4010F941B404B015C01A3019201C3018E
:104BD000B2010F941B409B01AC01C501B4010F94BD
:104BE00020440F948B464B015C0102C0E894B7F857
:104BF0002FE632E143E85AE3C501B4010F94B63F12
:104C000087FD71C2C501B4010F9495450F946945A4
:104C10001B01672B19F422242394312CB10180E06D
:104C200090E00F94BA3F4B015C019B01AC01C701BE
:104C3000B6010F94FC4463966CAF7DAF8EAF9FAF0F
:104C40006397A5019401C301B2010F94FC44EB9654
:104C50006CAF7DAF8EAF9FAFEB97E7962CAD3DADC0
:104C60004EAD5FADE797EF966CAD7DAD8EAD9FAD70
:104C7000EF970F941F44A50194010F94FC44EF9605
:104C80006CAF7DAF8EAF9FAFEF9763962CAD3DAD10
:104C90004EAD5FAD6397CA01B9010F941B4020E090
:104CA00030E040E05FE30F941B409B01AC0160E00B
:104CB00070E080E89FE30F941F44AB966CAF7DAF2C
:104CC0008EAF9FAFAB97AF962CAD3DAD4EAD5FAD08
:104CD000AF9729873A874B875C87E7968CAD9DAD68
:104CE000AEADBFADE7978D879E87AF87B88B8E013E
:104CF0000D5B1F4F6091360270913702072E000C3A
:104D0000880B990B0F94BC3F20913E0230913F02DB
:104D100040914002509141020F941B402AE037ED30
:104D200043E25CE30F941B40D8016D937D938D9318
:104D30009C9313970F943C089B01AC0128533F4F61
:104D40004F4F5F4FAF962CAF3DAF4EAF5FAFAF97BA
:104D500028964FAC289729965FAC29972A966FAC76
:104D60002A972B967FAC2B9741E050E06D965FAF72
:104D70004EAF6D9759E168965FAF6897E4960FAFB5
:104D8000E497E0961FAFE0976D96EEADFFAD6D979F
:104D9000E215F30509F462C10E94C4C50F943C08F2
:104DA000DC01CB01AF962CAD3DAD4EAD5FADAF9705
:104DB000821B930BA40BB50BB7FD11C00F943C08DD
:104DC0009B01AC0128533F4F4F4F5F4FAF962CAF25
:104DD0003DAF4EAF5FAFAF9780E00E94356A6896F7
:104DE0003FAD6897315068963FAF6897332309F419
:104DF0004BC0AB962CAD3DAD4EAD5FADAB972F9696
:104E00006CAD7DAD8EAD9FAD2F970F941B406B01A8
:104E10007C0163962CAD3DAD4EAD5FAD6397B201A5
:104E2000C3010F941B40A70196010F9420446B010E
:104E30007C01AB962CAD3DAD4EAD5FADAB97B201F5
:104E4000C3010F941B404B015C0163962CAD3DAD3B
:104E50004EAD5FAD63972F966CAD7DAD8EAD9FADC2
:104E60002F970F941B409B01AC01C501B4010F9417
:104E70001F442B013C01C601D7012F968CAF9DAF7B
:104E8000AEAFBFAF2F9761C06D964EAD5FAD6D9762
:104E9000BA0180E090E00F94BA3F63962CAD3DAD2F
:104EA0004EAD5FAD63970F941B404B015C010F94B7
:104EB000F9446B017C01C501B4010F9481464B019B
:104EC0005C01A70196012B966CAD7DAD8EAD9FADBB
:104ED0002B970F941B402B013C01A5019401679671
:104EE0006CAD7DAD8EAD9FAD67970F941B409B0160
:104EF000AC01C301B2010F9420442B013C01A50178
:104F000094012B966CAD7DAD8EAD9FAD2B970F941C
:104F10001B404B015C01A701960167966CAD7DAD0E
:104F20008EAD9FAD67970F941B409B01AC01C501EF
:104F3000B4010F941F442F966CAF7DAF8EAF9FAF1F
:104F40002F9759E168965FAF68979201A301A396E6
:104F50006CAD7DAD8EAD9FADA3970F94204469835A
:104F60007A838B839C832F962CAD3DAD4EAD5FAD88
:104F70002F97A7966CAD7DAD8EAD9FADA7970F9483
:104F800020446D837E838F839887EB962CAD3DAD57
:104F90004EAD5FADEB9769857A858B859C850F94C7
:104FA000204469877A878B879C87EF962CAD3DAD2F
:104FB0004EAD5FADEF976D857E858F8598890F9497
:104FC00020446D877E878F87988B80911F0288236E
:104FD00021F0CE0101960E94CA67E090EC0D1BAE55
:104FE0001CAE1DAE1EAE89819A81AB81BC8188A3A7
:104FF00099A3AAA3BBA38D819E81AF81B8858CA301
:105000009DA3AEA3BFA389859A85AB85BC8588A7E0
:1050100099A7AAA7BBA7CE0180960E945648CE01A9
:10502000CB966C01E4960FADE497E0961FADE09748
:105030009E01235F3F4FAE01485D5F4FBE016C5D37
:105040007F4F4B970E94DF8D6D96AEADBFAD6D97D4
:1050500011966D96BFAFAEAF6D9796CEE090EC0D0A
:1050600023961CAE1DAE1EAE1FAE23978091F00D91
:105070009091F10DA091F20DB091F30D88A399A339
:10508000AAA3BBA38091F40D9091F50DA091F60D0C
:10509000B091F70D8CA39DA3AEA3BFA38091F80D93
:1050A0009091F90DA091FA0DB091FB0D88A799A7E9
:1050B000AAA7BBA7CE0180960E9456489E01215CFC
:1050C0003F4F69018E010D5B1F4F2CEF3DE0AE019C
:1050D000485D5F4FBE016C5D7F4FCE0180960E94A0
:1050E000DF8D0E9468480E94EB480C94823AE7E604
:1050F000F0E284918F010F5F1F4F882321F00E94FF
:105100002E49F801F6CFE1E1F3E084918F010F5FC2
:105110001F4F882311F40C94823A0E942E49F80103
:10512000F4CF80E50E94CD46882329F00E941346E3
:105130006B017C0103C0C12CD12C760183E50E9458
:10514000CD46882361F00E94534620E030E04AE7D4
:1051500054E40F941B400F9469456B017C010E943D
:10516000B3C780917A05811105C060E087E293E0C2
:105170000F94A72D0E94EB4880919D0490919E046E
:10518000A0919F04B091A004C80ED91EEA1EFB1E78
:105190000F943C08DC01CB018C199D09AE09BF09B5
:1051A000B7FD02C00C94823A80E00E94356AF0CFCD
:1051B0000E94CEDC81110C94823A19821A821B82E1
:1051C0001C8280E090E0A4E2B3E48D839E83AF83F1
:1051D000B88780E090E0A0EAB1E489879A87AB873E
:1051E000BC8780E50E94CD46882319F00E942346A3
:1051F00001C060E068A3BE016F5F7F4FCE01809663
:105200000E94F05F0C94823A0E9408EE0C94823A5D
:105210000E94064D0C94823AC0905E0BD0905F0BBA
:10522000E090600BF090610B88E50E94CD46811103
:1052300009C020E030E040EB51E4C701B6010F9413
:10524000204402C00E94534668A379A38AA39BA36B
:10525000C090620BD090630BE090640BF090650BF4
:1052600089E50E94CD46811109C020E030E048EC7C
:1052700051E4C701B6010F94204402C00E94534676
:105280006B017C0169837A838B839C8388A099A0BE
:10529000AAA0BBA027EE3BEF4FE351E4C501B40148
:1052A0000F94464687FF02C00C94823A22E430E015
:1052B00044E353E4C501B4010F94B63F181614F447
:1052C0000C94823A24EF3DEF47EB51E4C701B6015D
:1052D0000F94464687FF02C00C94823A22E430E0E5
:1052E00048E253E4C701B6010F94B63F181614F410
:1052F0000C94823A0C948C3A80912C02882311F4FD
:105300000C94823A89E40E94CD46182F882321F01C
:105310000E942346E62E01C0E12C8AE40E94CD467D
:10532000082F882331F00E942346F62E111104C065
:105330000BC0F12C1123C1F032E03E1510F00C949B
:105340000A3EE2E4F3E004C042E04F15D0F30CC0A3
:1053500084918F010F5F1F4F882311F40C94823AC0
:105360000E942E49F801F4CF0E945E481123F1F00B
:105370002091F9033091FA035E2D5203B001539F3F
:10538000700D112480910C0590910D05680F791F07
:10539000072E000C880B990B0F94BC3F6093F00D07
:1053A0007093F10D8093F20D9093F30D0023F1F0C3
:1053B0002091FB033091FC034F2D4203B001439F2A
:1053C000700D112420910E0530910F05620F731F8F
:1053D000072E000C880B990B0F94BC3F6093F40DC3
:1053E0007093F50D8093F60D9093F70D80E50E9474
:1053F000CD46882319F00E94444603C080E50E94F0
:105400008646882381F11123B1F020E030E040EBA3
:1054100051E46091F00D7091F10D8091F20D909139
:10542000F30D0F941F446093F00D7093F10D809372
:10543000F20D9093F30D0023B1F020E030E048EC42
:1054400051E46091F40D7091F50D8091F60D9091FD
:10545000F70D0F941F446093F40D7093F50D809336
:10546000F60D9093F70D86E40E94CD468823D9F07F
:105470000E9453466B017C0120E030E0A9010F94AB
:105480004646181684F420E030E040E752E4C701B5
:10549000B6010F94FC4460933E0270933F028093E8
:1054A0004002909341020E94D86D0C94823A20935E
:1054B00076030C94823A0E94B3C721E6222E22E0A2
:1054C000322E3AEAC32E34E0D32EE12CF12C00E048
:1054D00010E0D1018D911D010E94CD46882309F471
:1054E0004EC00E9453462B013C01133059F0F70186
:1054F000E25BF44F20813181428153810F941F443C
:105500002B013C01F701E25AF44F208131814281A5
:105510005381C301B2010F941F444B015C012DEB79
:1055200037E346E855EB0F94464687FD0AC02DEB5E
:1055300037E346E855E3C501B4010F94B63F1816AA
:10554000F4F4133051F440926A0B50926B0B60925A
:105550006C0B70926D0B01E012C0A5019401F60175
:1055600060817181828193810F942044D6016D9373
:105570007D938D939C931397812F0E9499431F5F76
:10558000B4E0CB0ED11CE4E0EE0EF11C143009F0B7
:10559000A0CF002321F08AE69BE00E946BDD0E94F1
:1055A000D8E40C94823A8091C1149091C214883747
:1055B000910511F40C9482340CF0D2C08D34910515
:1055C00009F429C50CF057C08931910509F4F8C2D6
:1055D0001CF58431910509F46DC27CF4813191058B
:1055E00009F456C22CF4029708F4CBC10C94823A09
:1055F000429709F4FEC70C94823A8631910509F46A
:10560000A0C20CF49AC28731910509F4A0C2489750
:1056100009F4B3C20C94823A8F31910509F48CC419
:105620007CF48B31910509F4E7C20CF4D7C28C31BC
:10563000910509F41DC34E9709F424C30C94823AD2
:105640008033910509F4DFC44CF48032910509F4EC
:1056500027C48A9709F49AC40C94823A8B34910532
:1056600009F4D5C48C34910511F00C94823A0E944F
:1056700058C70C94823A8A36910509F46BC7B4F581
:105680008435910509F4B5C7CCF48135910509F449
:1056900097C734F48E34910509F4C1C40C94823A4E
:1056A0008235910509F4A2C78335910511F00C9458
:1056B000823A81E0809375030C94823A8C3591058F
:1056C00009F49AC74CF48535910511F00C94823A8F
:1056D0000E94DDE50C94823A8836910509F4A1C553
:1056E0008936910509F4BDC60C94823A813791053B
:1056F00009F46DC6ACF48D36910509F4F4C634F4A2
:105700008B36910509F449C70C94823A8E3691057F
:1057100009F4D9C58F36910509F4E8C50C94823A8D
:105720008537910511F40C94DF3364F482379105C9
:1057300009F4EAC78337910511F00C94823AECE141
:10574000F6E0E7C78637910511F40C94E733873705
:10575000910511F00C94823AE3E0F7E00C941E34CA
:105760008F32F1E09F0711F40C941E350CF080C0CD
:105770008C3C910511F40C940335D4F58B399105CB
:1057800009F48AC6DCF48D37910509F416C75CF478
:105790008937910511F00C94823A1092F805109215
:1057A000F7050C94823A8C38910509F43CC681398E
:1057B000910511F40C9487340C94823A883C91053D
:1057C00011F40C94FD3434F48E3B910509F4A8C611
:1057D0000C94823A893C910511F40C9400358B3C71
:1057E000910511F00C94823A0E947EE30C94823A67
:1057F0008D3D910511F40C941235B4F48E3C910555
:1058000011F40C94093514F40C940635833D91057C
:1058100011F40C940F358C3D910511F00C94823AE3
:105820000E94C1E10C94823A8C3231E0930711F46A
:105830000C94183574F4823E910511F40C941535CE
:105840008232914011F00C94823A0E9486E00C94CE
:10585000823A8D32A1E09A0711F40C941B358E32F6
:10586000914011F00C94823A0F94DB200C94823A10
:10587000853FE1E09E0711F40C94C4360CF042C061
:10588000823921E0920711F40C94A435F4F48336A4
:1058900041E0940711F40C949E353CF48033914020
:1058A00011F40C9421350C94823A8039B1E09B07B5
:1058B00011F40C94A1358139914011F00C94823A85
:1058C00081E00E940A430C94823A853AF1E09F07F6
:1058D00011F40C942E363CF4843A914011F40C945B
:1058E000A8350C94823A8C3A41E0940711F40C9458
:1058F0000C35843F914011F00C94823A0E94397427
:105900000C94823A8B35A2E09A0711F40C949838E3
:10591000B4F4873FE1E09E0711F40C94CA3614F406
:105920000C94C736883F21E0920711F40C94D636C8
:105930008835924011F40C94F9360C94823A8335F0
:1059400043E0940711F40C940E3A7CF48D3BA2E0F2
:105950009A0711F40C940D398E3B924011F00C947F
:10596000823A0F940A190C94823A803AE3E09E0737
:1059700009F4D5C2873E934011F40C94113A0C946B
:10598000823AA090BF14B090C01480E50E94CD462A
:10599000882359F00E9413466B017C0111E0672BAC
:1059A000682B692B31F410E004C010E0C12CD12C1D
:1059B000760183E50E94CD468823F1F00E9453468C
:1059C00020E030E04AE754E40F941B400F9469450F
:1059D0006B017C01111112C0672B682B692B71F4CC
:1059E000A114B10459F0D5018C91882339F061E0FC
:1059F000C5010F94C52D07C0112391F360E080E825
:105A000093E00F94A72D83E08093EB0D81E08093CA
:105A1000EA0D0E94B3C70E94EB48C114D104E1040F
:105A2000F104F1F080919D0490919E04A0919F0457
:105A3000B091A004C80ED91EEA1EFB1E0F943C08AC
:105A4000DC01CB018C199D09AE09BF09B7FF1CC051
:105A50008091EA0D8823C1F080E00E94356AEECF84
:105A60008091EA0D882321F080E00E94356AF8CF0A
:105A70008091510960E0823019F480E793E002C020
:105A800081E693E00F94A72D1092EA0D0C94823AD0
:105A900060E083E993E00F94A72D5F988A989FB701
:105AA000F894809108018E7F809308019FBF12981F
:105AB0000C94823AEBEAF3E084918F010F5F1F4F61
:105AC000882321F00E942E49F801F6CF1092C508D4
:105AD00040E050E0BA0181E796E00E946C558BE10E
