:100000000C94F1260C9422270C9422270C9422277E
:100010000C9422270C9422270C9422270C9422273C
:100020000C9422270C9422270C9422270C9422272C
:100030000C9422270C9422270C9422270C9422271C
:100040000C9422270C9498F70C9422270C942227C6
:100050000C9422270C9422270C941B7A0C946D94F8
:100060000C9422270C942A680C9422270C942227A3
:100070000C9422270C9422270C9422270C942227DC
:100080000C9422270C9422270C9422270C942227CC
:100090000C9422270C9422270C9422270C942227BC
:1000A0000C9422270C9422270C9422270C942227AC
:1000B0000C9422270C9422270C9422270C9422279C
:1000C0000C9422270C9422270C9422270C9422278C
:1000D0000C9422270C9422270C9422270C9422277C
:1000E0000C9422277B447E448144844487448A4480
:1000F0008D44904489938E9393939D93A7932094DA
:10010000B193B993C193CB93D593DF93EE93F893C7
:10011000209402940C941694E0B5E9B5F3B5FCB5BF
:1001200005B620B62DB636B60EB617B600D803D82B
:10013000F2D7F6D7FCD73AD807D80BD811D815D8AC
:1001400019D81FD823D827D83AD82DD831D835D8A0
:10015000084AD73B3BCE016E84BCBFFDC12F3D6C2E
:1001600074319ABD56833DDA3D00C77F11BED9E494
:10017000BB4C3E916BAAAABE000000803F05A84C74
:10018000CDB2D44EB93836A9020C50B99186880840
:100190003CA6AAAA2ABE000000803F000D94D6000B
:1001A0000D945A030D9492200D94B2010D94B4282D
:1001B0000D94BC290D94B62A0D944E2F0D94643ED7
:1001C0000D9450020D94E73C4E414E494E4954590E
:1001D000494E46CDCCCC3D0AD7233C17B7D1387712
:1001E000CC2B329595E6241FB14F0A000020410028
:1001F00000C84200401C4620BCBE4CCA1B0E5AAE72
:10020000C59D74434F4D4D554E49434154494F4E42
:100210000044525952554E004552524F52530049D4
:100220004E464F004543484F0020746F6F206C6F5F
:100230006E6720657874727573696F6E2070726571
:1002400076656E7465640A0020636F6C642065785F
:1002500074727573696F6E2070726576656E746501
:10026000640A0047322F4733206261642070617254
:10027000616D65746572730A00536C6565702E2E2E
:100280002E00205A3A200020593A2000426564206E
:10029000583A20004A656C6C79424F5820697320A7
:1002A00072656164792E00526573756D696E6720A1
:1002B0007072696E7400436C69636B20746F207296
:1002C0006573756D652E2E2E004E6F206D6F7665F1
:1002D0002E00456E642066696C65206C6973740A33
:1002E00000426567696E2066696C65206C6973748D
:1002F0000A004D313235005344207072696E7469C2
:100300006E67206279746520004E6F74205344201C
:100310007072696E74696E670A005072696E74203B
:1003200074696D653A200024021F0218021102034D
:10033000026F66660044454255473A004B494C4CB3
:1003400045442E20004D3131332053006F6B00485F
:10035000656174696E6720646F6E652E0020573A80
:10036000002573004A656C6C79424F5820697320F0
:1003700072656164792E0042656420646F6E652E3B
:100380000020573A004265642048656174696E67D1
:100390002E004A656C6C79424F58204F66662E00DD
:1003A0004361703A454D455247454E43595F504170
:1003B000525345523A300A004361703A4341534523
:1003C0005F4C494748545F4252494748544E455351
:1003D000533A300A004361703A544F47474C455FE7
:1003E0004C49474854533A300A004361703A534FDE
:1003F0004654574152455F504F5745523A300A00D4
:100400004361703A4C4556454C494E475F44415410
:10041000413A310A004361703A5A5F50524F4245A7
:100420003A310A004361703A4155544F4C455645A4
:100430004C3A310A004361703A5052494E545F4A77
:100440004F423A310A004361703A50524F47524589
:1004500053533A300A004361703A4155544F524564
:10046000504F52545F54454D503A310A0043617029
:100470003A454550524F4D3A310A004649524D5780
:100480004152455F4E414D453A4D61726C696E2057
:100490004A422D4D61726C696E2D322E302D5243C1
:1004A000342E332D6420286769746875622E636F5B
:1004B0006D2F696D61646533642F4D61726C696E77
:1004C0002F72656C65617365732920534F555243D4
:1004D000455F434F44455F55524C3A68747470739E
:1004E0003A2F2F6769746875622E636F6D2F494DBF
:1004F00041444533442F4D61726C696E2050524F18
:10050000544F434F4C5F56455253494F4E3A312E4C
:1005100030204D414348494E455F545950453A4A71
:10052000656C6C79424F5820455854525544455299
:100530005F434F554E543A3120555549443A63650F
:100540006465326132662D343161322D343734388E
:100550002D396231322D63353563363266333637A5
:1005600066660A002F2F200066696C616D656E74E7
:100570003A20007A5F6D696E3A2000795F6D696E8E
:100580003A2000785F6D696E3A20005265706F7294
:1005900074696E6720656E6473746F702073746124
:1005A0007475730A004D31343520533C696E6465AF
:1005B000783E206F7574206F662072616E676520CB
:1005C00028302D31290A00000136372603FF3C3D33
:1005D000380EFF2E303E12FFFF0C0809FFFFFF1AF6
:1005E0001C18FFFF08440AFF43FFFFFFFFFFFF2027
:1005F000643A0020693A0020703A0020643A0020F2
:10060000693A0020703A0043290A0061626C65640F
:1006100020286D696E2074656D702000436F6C64D6
:100620002065787472756465732061726520004B73
:1006300064200023646566696E6520204445464158
:10064000554C545F004B69200023646566696E65F4
:10065000202044454641554C545F004B70200023F8
:10066000646566696E65202044454641554C545F7B
:1006700000504944206175746F74756E6520636F16
:100680006D706C6574652100504944204175746F2C
:1006900074756E652066696E6973686564212050A3
:1006A000757420746865206C617374204B702C2005
:1006B0004B6920616E64204B6420636F6E737461BC
:1006C0006E74732066726F6D2062656C6F7720693F
:1006D0006E746F20436F6E66696775726174696FBF
:1006E0006E2E680A00504944204175746F74756E0F
:1006F00065206661696C6564212074696D656F753C
:10070000740A00504944204175746F74756E6520F9
:100710006661696C6564212054656D7065726174F1
:1007200075726520746F6F20686967680A005049A8
:1007300044206175746F74756E6520696E207072E7
:100740006F67726573732E0038206F6620382063E0
:1007500079636C657320636F6D706C6574650037C9
:10076000206F662038206379636C657320636F6D3A
:10077000706C6574650036206F662038206379637D
:100780006C657320636F6D706C6574650035202F28
:100790002035206379636C657320636F6D706C65C1
:1007A00074650034202F2035206379636C657320D5
:1007B000636F6D706C6574650033202F2035206386
:1007C00079636C657320636F6D706C65746500325E
:1007D000202F2035206379636C657320636F6D7003
:1007E0006C6574650031202F2035206379636C655A
:1007F0007320636F6D706C65746500204B643A20E4
:1008000000204B693A2000204B703A20000A204318
:100810006C617373696320504944200A0020547549
:100820003A2000204B753A2000206D61783A200074
:10083000206D696E3A200020643A200020626961D0
:10084000733A2000426564204C6576656C696E677A
:1008500020004661696C656420746F20656E61627A
:100860006C6520426564204C6576656C696E670A2C
:1008700000426564204C6576656C20436F7272653A
:100880006374696F6E204D61747269783A004E6FBF
:100890002063617365206C696768740A0041637442
:1008A0006976652045787472756465723A200055E2
:1008B0006E6B6E6F776E20636F6D6D616E643A2044
:1008C0002200000A0A426564204C6576656C20436C
:1008D0006F7272656374696F6E204D6174726978AE
:1008E0003A00202B000A436F7272656374656420BE
:1008F000426564204865696768742076732E2042DB
:10090000656420546F706F6C6F67793A0A00202B12
:10091000000A4265642048656967687420546F70F6
:100920006F6772617068793A0A2020202B2D2D2D77
:10093000204241434B202D2D2B0A2020207C2020BB
:100940002020202020202020207C0A204C207C20D9
:10095000202020282B29202020207C20520A2045DE
:10096000207C20202020202020202020207C2049A6
:100970000A2046207C20282D29204E20282B2920A3
:100980007C20470A2054207C20202020202020206A
:100990002020207C20480A2020207C202020202885
:1009A0002D29202020207C20540A2020207C20205B
:1009B0002020202020202020207C0A2020204F2DB5
:1009C0002D2046524F4E54202D2D2B0A2028302CFE
:1009D00030290A004D65616E206F662073616D706D
:1009E0006C656420706F696E74733A200020643AFD
:1009F000200020623A200045716E20636F656666B4
:100A0000696369656E74733A20613A200052756EAD
:100A10006E696E6720696E204452592D52554E20E2
:100A20006D6F64650A00473239204175746F20424A
:100A30006564204C6576656C696E670A00284229FA
:100A400061636B00284629726F6E74002852296911
:100A500067687400284C29656674003F4E756D62A6
:100A60006572206F662070726F626520706F696EAC
:100A7000747320697320696D706C61757369626C41
:100A800065202832206D696E696D756D292E0A000A
:100A90003F2856296572626F7365206C6576656CB8
:100AA00020697320696D706C61757369626C652073
:100AB00028302D34292E0A002569730025696D2000
:100AC000256973002569682025696D2025697300F3
:100AD000256964202569682025696D2025697300D2
:100AE00025697920256964202569682025696D209C
:100AF000256973004E6F204C696E65204E756D62DE
:100B00006572207769746820636865636B73756DBF
:100B10002C204C617374204C696E653A20004B495F
:100B20004C4C45442E200053544F505045442E20E9
:100B3000005072696E7465722073746F70706564B2
:100B40002064756520746F206572726F72732E2039
:100B500046697820746865206572726F7220616ED4
:100B60006420757365204D39393920746F207265A2
:100B700073746172742E202854656D70657261748F
:100B80007572652069732072657365742E205365D4
:100B90007420697420616674657220726573746173
:100BA0007274696E67290A004E6F20436865636B33
:100BB00073756D2077697468206C696E65206E7539
:100BC0006D6265722C204C617374204C696E653ABD
:100BD0002000636865636B73756D206D69736D616B
:100BE0007463682C204C617374204C696E653A20E4
:100BF000004C696E65204E756D62657220697320C8
:100C00006E6F74204C617374204C696E65204E7554
:100C10006D6265722B312C204C617374204C696EAF
:100C2000653A20004D313130004D3331004D3834BC
:100C300020582059205A2045005344207265616491
:100C4000206572726F720A00446F6E65207072695F
:100C50006E74696E672066696C650A0020496E765D
:100C6000616C696420657874727564657220000037
:100C70000020C1000000C00000000000003A430056
:100C80000026430000124320706F736974696F6E11
:100C9000206F7574206F662072616E67652E0A0082
:100CA0003F50726F626520004572726F72207772DA
:100CB0006974696E6720746F20454550524F4D210D
:100CC0000A00290A002062797465733B206372630D
:100CD000200053657474696E67732053746F726576
:100CE00064202800202863616C63756C61746564FE
:100CF00029210A0020213D2000454550524F4D201A
:100D0000435243206D69736D61746368202D202800
:100D100073746F726564292000290A002062797457
:100D200065733B2063726320002073746F72656487
:100D30002073657474696E67732072657472696577
:100D4000766564202800204D61726C696E3D5633D3
:100D500039290A0028454550524F4D3D0045455020
:100D6000524F4D2076657273696F6E206D69736D99
:100D700061746368200048617264636F6465642015
:100D800044656661756C742053657474696E67732D
:100D9000204C6F616465640A0088130000881300AA
:100DA0000064000000983A0000000096430000969E
:100DB000430000204100008C420000A0420000A03F
:100DC000420000C84400000C431000C90210012C6E
:100DD000014001220170011801B0010E01F001046F
:100DE000015002FA00B002F0003003E600D003DC4C
:100DF000009004D2007005C800A006BE000008B430
:100E000000B009AA00D00BA000600E960060118C03
:100E1000000015820020197800C01D6E00A0226419
:100E200000B0275A00902C500000314600E0343CBE
:100E30000010383200903A2800603C1E00A03D149B
:100E400000803E0A00203F00006265640A002C20FA
:100E500073797374656D2073746F7070656421208D
:100E60004865617465725F49443A20004865617461
:100E7000696E67206661696C6564004865617469C4
:100E80006E67206661696C65640048656174696EAF
:100E900067206661696C65640048656174696E67A6
:100EA000206661696C65640070012C019001270166
:100EB000B0012201C0011D01F0011801100213014F
:100EC00030020E016002090190020401C002FF001D
:100ED0000003FA004003F5008003F000D003EB00AC
:100EE0002004E6007004E100E004DC004005D700C7
:100EF000C005D2004006CD00D006C8008007C30060
:100F00003008BE00F008B900C009B400B00AAF0054
:100F1000B00BAA00D00CA500000EA000500F9B0043
:100F2000C01096005012910000148C00C01587006C
:100F3000B0178200B0197D00D01B7800001E73002E
:100F400040206E0090226900F024640040275F007A
:100F500090295A00E02B5500102E500020304B00F5
:100F600010324600E033410090353C001037370026
:100F700070383200A0392D00B03A2800A03B230081
:100F8000603C1E00103D1900903D1400103E0F0003
:100F9000703E0A00C03E0500003F0000403FFBFFDE
:100FA000803FF6FFC03FF1FF544845524D414C2071
:100FB00052554E4157415900546865726D616C201D
:100FC00052756E61776179004572723A204D494ED3
:100FD00054454D5020424544004572723A204D49D7
:100FE0004E54454D50004D494E54454D502074725D
:100FF00069676765726564004572723A204D4158B1
:1010000054454D5020424544004572723A204D41AE
:101010005854454D50004D415854454D5020747220
:101020006967676572656400004578747275646508
:101030006420746F74616C3A2000256C642E2569FD
:101040006D00004C6F6E67657374206A6F62207468
:10105000696D653A200000546F74616C207072698C
:101060006E742074696D653A2000436F6D706C6515
:101070007465643A20005072696E7420436F756E17
:10108000743A2000506F77657220537570706C79D8
:101090003A2047656E657269630050726F746F63C2
:1010A0006F6C3A20312E3000426175643A2032353F
:1010B000303030300052414D505320312E340049F1
:1010C0004D41444533442F4D61726C696E00687424
:1010D00074703A2F2F6769746875622E636F6D2F75
:1010E00000534F555243452055524C3A003230314F
:1010F000382D31322D31380044495354524942552C
:1011000054494F4E20444154453A00686561746526
:101110006420626564004A656C6C79424F582032E5
:101120002E30004A454C4C59424F582056415249A6
:10113000414E543A004A422D4D61726C696E2D3217
:101140002E302D5243342E332D64004649524D57D4
:101150004152452056455253494F4E3A00696D6100
:10116000646533642E636F6D2F737570706F727466
:1011700000666F72756D2E696D61646533642E63F0
:101180006F6D00646F63732E696D61646533642EE7
:10119000636F6D0041626F75742074686973204AD3
:1011A000656C6C79424F5800476F204261636B0059
:1011B0005072696E74657220537461747300426F6B
:1011C00061726420496E666F005072696E74657258
:1011D00020496E666F00476F204261636B002020DC
:1011E0004E6F7A7A6C653A20002000476F2042618A
:1011F000636B004D696E696D756D2054656D70206F
:101200006973203137302E0048656174696E67203C
:101210006661696C65640045787472756465206DFB
:101220006F726500526573756D65207072696E74BA
:1012300000524553554D45204F5054494F4E533A57
:101240000020204E6F7A7A6C653A20006368616EE8
:101250006765006F66207468652066696C616D65FE
:101260006E74005761697420666F722073746172C6
:1012700074005052494E542050415553454400206B
:10128000204E6F7A7A6C653A2000200066696C61A6
:101290006D656E7420756E6C6F6164005761697462
:1012A00020666F72005052494E54205041555345AC
:1012B000440020204E6F7A7A6C653A20002000505E
:1012C0006C6561736520776169742E2E2E00486508
:1012D0006174696E67206E6F7A7A6C65005052494E
:1012E0004E54205041555345440020204E6F7A7A89
:1012F0006C653A2000200068656174206E6F7A7A10
:101300006C652E00507265737320627574746F6E15
:1013100020746F005052494E54205041555345445B
:101320000020204E6F7A7A6C653A2000746F20633B
:101330006F6E74696E75652E2E2E00616E6420705E
:101340007265737320627574746F6E00496E736595
:1013500072742066696C616D656E74005052494EFE
:1013600054205041555345440073657474696E6749
:10137000732E20202020202020202020202020200C
:1013800020202020006F7665727772697465207462
:101390006865206F6C642050494420202020202064
:1013A0000054686520726573756C74732077696C7E
:1013B0006C20202020202020202020200068656133
:1013C00074696E6720706572666F726D616E6365B9
:1013D0002E20202020202020006461746120746F62
:1013E000206F7074696D697A6520746865202020AB
:1013F000202020200074696D65732C20616E6420AC
:1014000075736573207468652020202020202020BB
:1014100000636F6F6C20646F776E206D756C7469FC
:10142000706C6520202020202020202000686F7410
:10143000656E64206865617420757020616E64203B
:101440002020202020202020006D696E7574657397
:101450002E204974206C65747320746865202020E8
:10146000202020200074616B65732073657665729F
:10147000616C2020202020202020202020202020DF
:10148000004175746F74756E652070726F6365646A
:10149000757265202020202020202020002D2D2066
:1014A0003F202D2D205468652050494420202020C5
:1014B00020202020202020200053746172742050AE
:1014C0004944204175746F74756E6500476F204202
:1014D00061636B004D333033205531204525692041
:1014E000532569004175746F74756E6520696E20AF
:1014F00070726F67726573732E2020202020200089
:1015000074686520686F74656E642E2050494420AD
:101510002020202020202020202020002D2D2021D0
:10152000202D2D20446F6E277420746F7563682002
:10153000202020202020200041626F72742050491A
:1015400044204175746F74756E6500476F20426169
:10155000636B00504944206175746F74756E65202B
:10156000696E2070726F67726573732E004D313033
:101570003420533000504944206175746F74756E87
:10158000652061626F72746564005049442D4B643C
:10159000005049442D4B64005049442D4B69005084
:1015A00049442D4B69005049442D4B70005049442B
:1015B0002D4B7000476F204261636B00565472617F
:1015C00076206D696E005654726176206D696E00EA
:1015D0005654726176206D696E00566D696E0056C4
:1015E0006D696E00566D696E00566D61782045001C
:1015F000566D6178204500566D6178204500566D26
:101600006178205A00566D6178205A00566D6178D5
:10161000205A00566D6178205900566D6178205926
:1016200000566D6178205900566D6178205800563B
:101630006D6178205800566D6178205800476F2002
:101640004261636B00416D6178204500416D6178B6
:10165000204500416D6178205A00416D6178205A23
:1016600000416D6178205900416D61782059004139
:101670006D6178205800416D6178205800412D74CB
:10168000726176656C00412D74726176656C004103
:101690002D7265747261637400412D72657472619C
:1016A000637400416363656C00416363656C00476C
:1016B0006F204261636B005A206F66667365740029
:1016C0004D363030204230004368616E67652066D9
:1016D000696C616D656E740046616E20737065653E
:1016E00064202825290046616E207370656564209A
:1016F00028252900426564202809432900426564A1
:101700002028094329004E6F7A7A6C652028094306
:1017100029004E6F7A7A6C6520280943290053709E
:101720006565642028252900537065656420282597
:101730002900466C6F772028252900466C6F77209A
:10174000282529004C6976652061646A75737420C8
:101750005A2068656967687400476F204261636B4F
:101760000046616E20737065656420282529004657
:10177000616E2073706565642028252900426564C8
:101780002028094329004265642028094329004E86
:101790006F7A7A6C652028094329004E6F7A7A6C3B
:1017A0006520280943290053706565642028252990
:1017B0000053706565642028252900466C6F7720EA
:1017C00028252900466C6F7720282529004C69764A
:1017D000652061646A757374205A2068656967685A
:1017E0007400476F204261636B00582D6F72696708
:1017F000696E207365742120202020202020200085
:101800005049442054756E696E670046616E2073BE
:1018100070656564202825290046616E2073706517
:101820006564202825290042656420280943290091
:101830004265642028094329004E6F7A7A6C65203E
:1018400028094329004E6F7A7A6C652028094329BC
:1018500000476F204261636B00443A00493A0050F0
:101860003A0043757272656E742050494420766167
:101870006C7565733A202020202020202020202015
:1018800020202020200045646974205049442056BF
:10189000616C75657300504944204175746F7475AF
:1018A0006E6500476F204261636B005A203A204EFC
:1018B0006F74205472696767657265642020202008
:1018C0002020005A203A2054726967676572656467
:1018D000202020202020202020200059203A204EA7
:1018E0006F742054726967676572656420202020D8
:1018F0002020007A5F6D696E3A200059203A20540A
:10190000726967676572656420202020202020208E
:1019100020200058203A204E6F7420547269676767
:101920006572656420202020202000795F6D696E3B
:101930003A200058203A20547269676765726564DE
:101940002020202020202020202000785F6D696E3C
:101950003A2000436C69636B20746F20557064619A
:1019600074650000476F204261636B0054657374B7
:10197000205A2070726F626500473238205A002D5D
:1019800054657374205820616E64207465737420EC
:1019900059202020202020002D5365747570205A76
:1019A0002070726F62652068656967687420202006
:1019B00000212020507265726571756973697465C4
:1019C00073202021202020202000476F20426163C7
:1019D0006B0054657374205A2070726F62650054F6
:1019E000657374205920656E6473746F700047329C
:1019F0003820590054657374205820656E647374E0
:101A00006F7000473238205800476F204261636B87
:101A100000202D20436C69636B20746F20636F6E10
:101A200074696E7565202D00746865206275696C37
:101A30006420706C6174652E2020202020200074AA
:101A40006865206C6566742065646765206F662034
:101A50002020202020006E6F7A7A6C65206F7665DA
:101A600072202020202020202020202000506F7372
:101A70006974696F6E207468652020202020202002
:101A8000202020004730205A302059302058300084
:101A90004732380077686F6C65206275696C642026
:101AA000706C6174652E2020202020202000656E3F
:101AB0007375726520796F752063616E207573652B
:101AC000207468652020003F20546869732070727C
:101AD0006F6365647572652077696C6C20202020C7
:101AE000200053657420582D6F726967696E004736
:101AF0006F204261636B006275696C6420706C6179
:101B000074652E20202020202020202020200074FA
:101B100068652072656D6F7661626C65202020209B
:101B200020202020200021204D616B6520737572DC
:101B30006520746F20696E736572742020200054D4
:101B400065737420626564206C6576656C696E6788
:101B5000004732380A47323900476F204261636BD1
:101B6000002E436C69636B20746F2073746F702058
:101B700068656174696E6720616E6420676F2062BA
:101B800061636B20746F20507265666C696768745E
:101B9000004D31303420533530002E436C69636B77
:101BA00020746F2073746F702068656174696E674C
:101BB00020616E6420676F206261636B20746F2008
:101BC000507265666C69676874004D31343020531B
:101BD000343000392E20204C6F61642066696C61BE
:101BE0006D656E7400382E20546573742066696CC0
:101BF000616D656E742066616E73004D3130362004
:101C0000533235350A47342053310A4D31303620AE
:101C1000533133300A47342053310A4D31303620A6
:101C2000533000372E205465737420626564206839
:101C300065617465720031302E20456A65637420D9
:101C400066696C616D656E7400362E205465737420
:101C5000206E6F7A7A6C65206865617465720035F4
:101C60002E205465737420626564206C6576656C03
:101C7000696E6700342E20536574206F726967693E
:101C80006E00332E205465737420656E6473746F18
:101C9000707300322E20456E6473746F70207374FD
:101CA0006174757300312E2054657374206D6F74E8
:101CB0006F727300476F204261636B0020204E6F8C
:101CC0007A7A6C653A2000200066696C616D656EF9
:101CD00074206C6F6164005761697420666F7200D4
:101CE0005052494E54205041555345440020204EF7
:101CF0006F7A7A6C653A2000200066696C616D65C8
:101D00006E7420657874727564650057616974201B
:101D1000666F72005052494E54205041555345440D
:101D200000746F20726573756D650057616974206A
:101D3000666F72207072696E74005052494E542062
:101D400050415553454400436172642072656D6F84
:101D5000766564004361726420696E7365727465B0
:101D6000640056652D6A65726B0056652D6A657252
:101D70006B0056652D6A65726B00567A2D6A657226
:101D80006B00567A2D6A65726B0056792D6A657202
:101D90006B0056792D6A65726B0056792D6A6572F3
:101DA0006B0056782D6A65726B0056782D6A6572E5
:101DB0006B0056782D6A65726B00476F2042616335
:101DC0006B004573746570732F6D6D00457374659A
:101DD00070732F6D6D005A73746570732F6D6D0085
:101DE0005A73746570732F6D6D00597374657073D9
:101DF0002F6D6D005973746570732F6D6D0058737E
:101E0000746570732F6D6D005873746570732F6DEA
:101E10006D00476F204261636B0053746570732FD0
:101E20006D6D004A65726B00416363656C6572613C
:101E300074696F6E0056656C6F6369747900582021
:101E4000686F6D65206F6666736574005820686FF3
:101E50006D65206F6666736574005A206F666673E1
:101E60006574005A206F666673657400476F204280
:101E700061636B004D6F76652058004D3432380A2F
:101E80004D353030004D6F76652058004D6F7665CA
:101E90002059004D6F7665205A00437573746F6D3D
:101EA000206C656E67746820286D6D2900313030B4
:101EB000206D6D00203530206D6D00203130206D9B
:101EC0006D00302E35206D6D00437573746F6D207D
:101ED0006C656E67746820286D6D290041626F72B1
:101EE0007420657874727573696F6E0069747320FD
:101EF0006F776E2073616B652E20202020202020BC
:101F000020202020202020202020200066726F6DBD
:101F1000206576656E20747279696E673B20666F06
:101F20007220202020202020202020004A656C6C78
:101F300079424F5820697320666F726269646465E4
:101F40006E20202020202020202020006772696E33
:101F500064696E672E20596F757220202020202022
:101F6000202020202020202020202000746F206AA4
:101F7000616D6D696E6720616E64202020202020D5
:101F80002020202020202020202020006E6F7A7A20
:101F90006C652077696C6C206F6E6C79206C656164
:101FA00064202020202020202020200066696C61F1
:101FB0006D656E7420696E746F206120636F6C6450
:101FC0002020202020202020202020002D2D203FF8
:101FD000202D2D20466F7263696E672020202020FF
:101FE0002020202020202020202020007570207418
:101FF0006F206174206C6561737420313730094340
:102000002E202020202020202020202000636F6C04
:10201000642E20506C656173652068656174206969
:1020200074202020202020202020202000546865BB
:10203000206E6F7A7A6C6520697320746F6F202030
:1020400020202020202020202020202000476F203A
:102050004261636B0020746F6F206C6F6E67206548
:102060007874727573696F6E2070726576656E74C0
:1020700065640A0020636F6C642065787472757300
:10208000696F6E2070726576656E7465640A0053C0
:1020900074616E6461726420446576696174696F0D
:1020A0006E3A20002052616E67653A2000204D6133
:1020B000783A2000204D696E3A20004D65616E3AF5
:1020C000200046696E697368656421002072616E44
:1020D00067653A2000206D61783A2000206D696EB6
:1020E0003A2000207369676D613A2000206D6561B8
:1020F0006E3A20003A207A3A2000206F66200020B5
:102100005A00205900205800476F696E6720746F8D
:102110003A00436C6F636B776973650A00436F75B0
:102120006E7465722D0020446972656374696F6E08
:102130003A2000202020616E676C653A20005374BD
:10214000617274696E67207261646975733A200008
:10215000506F736974696F6E696E6720746865206B
:1021600070726F62652E2E2E0A003F4E756D62658D
:1021700072206F66206C65677320696E206D6F76C4
:10218000656D656E74206E6F7420706C6175736917
:10219000626C652028302D3135292E0A00590058EF
:1021A000003F53616D706C652073697A65206E6FB6
:1021B0007420706C61757369626C652028342D35EC
:1021C00030292E0A004D3438205A2D50726F626526
:1021D000205265706561746162696C69747920541C
:1021E0006573740A003F2856296572626F73652013
:1021F0006C6576656C20697320696D706C617573B0
:1022000069626C652028302D34292E0A006D004645
:10221000696C616D656E7420757365643A20005356
:10222000746174733A20002C204C6F6E6765737470
:10223000206A6F623A2000546F74616C2074696D7B
:10224000653A200053746174733A20002C20466173
:10225000696C65643A20002C2046696E6973686574
:10226000643A20005072696E74733A2000537461AE
:1022700074733A2000202F002042403A0020403A58
:102280000000002100240027002A002D0030003328
:102290000001010000040107010A010000220025DD
:1022A0000028002B002E0031003400020100000540
:1022B0000108010B01000020002300260029002C4A
:1022C000002F003200000100000301060109010592
:1022D000050505070508080808020202020A0A089F
:1022E00008040404040101010101010101030303C5
:1022F0000303030303040707070C0C0C0C0C0C0C62
:102300000C0202020206060606060606060B0B0B68
:102310000B0B0B0B0B0102102020080810204010A3
:102320002040800201020108040201010204081099
:1023300020408080402010080402018004020180B7
:1023400040201008040201080402010102040810E0
:10235000204080010204081020408000000A0B0287
:10236000090C0D0E08070304010000000000000026
:10237000000000000000000000000000000000005D
:10238000000000000000001211100000000000001A
:10239000000000000000000000000000000000003D
:1023A000004B494C4C45442E2000202D20496E7690
:1023B000616C6964206578747275646572206E75ED
:1023C0006D62657220210A002020506C616E6E657E
:1023D0007242756666657242797465733A200020B0
:1023E00046726565204D656D6F72793A2000436FC6
:1023F0006D70696C65643A20446563203230203228
:102400003031380A00207C20417574686F723A20A0
:1024100028494D4144453344290A00323031382D92
:1024200031322D313800204C617374205570646155
:102430007465643A20004A422D4D61726C696E2DBC
:10244000322E302D5243342E332D640A004D6172EA
:102450006C696E0020536F667477617265205265F7
:102460007365740A00205761746368646F67205253
:10247000657365740A002042726F776E206F757401
:102480002052657365740A002045787465726E6128
:102490006C2052657365740A00506F7765725570D1
:1024A0000A0073746172740A006572726F72207729
:1024B000726974696E6720746F2066696C650A00C2
:1024C000456E6473746F7073202563202563202527
:1024D0006320256300205A3A0020593A0020583AD8
:1024E00000656E6473746F7073206869743A2000BD
:1024F000446F6E6520736176696E672066696C65EE
:102500002E0A004D32390042656420280943290013
:102510004E6F7A7A6C652028094329007768696CC8
:102520006520696E20626574612074657374696EDC
:10253000672E006F6E20796F75722053442063619F
:1025400072640027536372697074732700506C655E
:10255000617365206C61756E63682066726F6D00D3
:10256000476F204261636B005045544700504C4117
:1025700000476F204261636B004578747275646533
:10258000004D6F766520617865730052656C6561FA
:102590007365206D6F746F7273004D383400486F2F
:1025A0006D6500507265666C696768742043686584
:1025B000636B00476F204261636B004D3130342004
:1025C00053300A4D313430205330004D31303420F7
:1025D000533138300A4D31343020533435004D31C9
:1025E000303420533231300A4D31343020533535B8
:1025F000004D31303420533233350A4D31343020E0
:1026000053363500504C41202020202020202D2002
:102610003231302F353520094300556E69766572A9
:1026200073616C202D203138302F34352009430060
:10263000504554202020202020202D203233352FBB
:10264000363520094300437573746F6D20202020B8
:102650002D203F2F3F20094300436F6F6C646F773D
:102660006E20202D20302F3020094300476F20425C
:1026700061636B004D31303420533332350A4732B9
:102680003820580A4D383420580A4D3130392053FB
:10269000323335200A4D383420450A4D333030204E
:1026A0005334343020503530300A473420503530E0
:1026B000300A4D33303020533434302050353030F0
:1026C0000A4D3020496E736572742066696C616DC5
:1026D000656E74206E6F770A4D313137204C6F6113
:1026E00064696E672066696C616D656E742E2E2E4E
:1026F0000A473932204530200A4739310A4D3131F5
:1027000037204C6F6164696E672038306D6D2E2EF6
:102710002E0A473120463330302045350A4D3430BB
:10272000300A4D313137204C6F6164696E67203754
:10273000356D6D2E2E2E0A47312046333030204520
:10274000350A4D3430300A4D313137204C6F6164D9
:10275000696E672037306D6D2E2E2E0A4731204668
:102760003330302045350A4D3430300A4D31313761
:10277000204C6F6164696E672036356D6D2E2E2E8C
:102780000A473120463330302045350A4D34303049
:102790000A4D313137204C6F6164696E67203630E5
:1027A0006D6D2E2E2E0A47312046333030204535B0
:1027B0000A4D3430300A4D313137204C6F61646935
:1027C0006E672035356D6D2E2E2E0A47312046332B
:1027D00030302045350A4D3430300A4D3131372004
:1027E0004C6F6164696E672035306D6D2E2E2E0A38
:1027F000473120463330302045350A4D3430300AD9
:102800004D313137204C6F6164696E672034356D0E
:102810006D2E2E2E0A473120463330302045350AA2
:102820004D3430300A4D313137204C6F6164696E60
:10283000672034306D6D2E2E2E0A473120463330FE
:10284000302045350A4D3430300A4D313137204C77
:102850006F6164696E672033356D6D2E2E2E0A47C9
:102860003120463237352045350A4D3430300A4D57
:10287000313137204C6F6164696E672033306D6D84
:102880002E2E2E0A473120463235302045350A4D4E
:102890003430300A4D313137204C6F6164696E67D6
:1028A0002032356D6D2E2E2E0A47312046323235BC
:1028B0002045350A4D3430300A4D313137204C6FC8
:1028C0006164696E672032306D6D2E2E2E0A47319D
:1028D00020463230302045350A4D3430300A4D31F3
:1028E0003137204C6F6164696E672031356D6D2E14
:1028F0002E2E0A473120463230302045350A4D34DD
:1029000030300A4D313137204C6F6164696E672079
:1029100031306D6D2E2E2E0A473120463230302058
:1029200045350A4D3430300A4D313137204C6F6116
:1029300064696E6720356D6D2E2E2E0A4731204654
:102940003230302045350A4D3430300A4731204589
:102950002D3330204632353030200A473930200AB6
:102960004739322045300A4D38342045200A4D3150
:1029700030342053300A4D302046696C616D656EED
:1029800074206C6F6164656421004D3130392053CF
:10299000323335200A4D31313720456A6563746919
:1029A0006E672066696C616D656E742E2E2E0A4707
:1029B000393220453930200A473931200A0A4D3151
:1029C0003137205072652D50757267696E672E2EF3
:1029D0002E0A47312046333530204531350A4D31F6
:1029E000313720456A656374696E672036306D6DD6
:1029F0002E2E2E0A4731204636353020452D350AF9
:102A00004D3430300A4D31313720456A6563746981
:102A10006E672035356D6D2E2E2E0A4731204636D5
:102A2000353020452D350A4D3430300A4D3131379F
:102A300020456A656374696E672035306D6D2E2E92
:102A40002E0A4731204636353020452D350A4D3483
:102A500030300A4D31313720456A656374696E67DD
:102A60002034356D6D2E2E2E0A47312046363530F6
:102A700020452D350A4D3430300A4D31313720454F
:102A80006A656374696E672034306D6D2E2E2E0A70
:102A90004731204637303020452D350A4D3430300F
:102AA0000A4D31313720456A656374696E6720339A
:102AB000356D6D2E2E2E0A47312046373530204594
:102AC0002D350A4D3430300A4D31313720456A6595
:102AD0006374696E672033306D6D2E2E2E0A473178
:102AE000204638303020452D350A4D3430300A4DDF
:102AF00031313720456A656374696E672032356D00
:102B00006D2E2E2E0A4731204638353020452D3582
:102B10000A4D3430300A4D31313720456A656374CF
:102B2000696E672032306D6D2E2E2E0A4731204699
:102B300039303020452D350A4D3430300A4D313191
:102B40003720456A656374696E672031356D6D2E77
:102B50002E2E0A4731204639353020452D350A4D75
:102B60003430300A4D31313720456A656374696EFF
:102B7000672031306D6D2E2E2E0A473120463130C0
:102B8000303020452D350A4D3430300A4D31313743
:102B900020456A656374696E6720356D6D2E2E2E33
:102BA0000A473120463130303020452D350A4D342A
:102BB00030300A4D38342045200A4D333030205310
:102BC0003434302050353030200A473420503530EE
:102BD000300A4D33303020533434302050353030CB
:102BE000200A473930200A473932204530200A4D23
:102BF000313034205330200A4D3020556E6C6F63D5
:102C00006B20616E642070756C6C206F7574210090
:102C100043616C69627261746520317374206C6108
:102C200079657200456A6563742066696C616D65DB
:102C30006E740050726568656174004C6F61642049
:102C400066696C616D656E7400476F204261636BED
:102C5000004D3432380000060900FE0701920321BE
:102C600020FFFF08FF07FF00000006000001070724
:102C70000602008080808080008003020206010539
:102C8000A0A00507070600005050F850F850500566
:102C900007070600002078A07028F0200507070627
:102CA0000000C0C810204098180507070600006003
:102CB00090A040A89068020303060104C04080036E
:102CC0000707060100204080808040200307070698
:102CD00001008040202020408005050506000120DD
:102CE000A870A8200505050600012020F820200274
:102CF00003030602FFC04080050101060003F8023D
:102D00000202060200C0C0050505060001081020E9
:102D1000408005070706000070888888888870034F
:102D2000070706010040C040404040E00507070695
:102D30000000708808708080F8050707060000F81A
:102D40001020100808F0050707060000103050900A
:102D5000F81010050707060000F880F008088870D2
:102D6000050707060000708080F088887005070757
:102D7000060000F8081020202020050707060000A4
:102D8000708888708888700507070600007088883A
:102D900078080870020505060200C0C000C0C00225
:102DA00006060602FFC0C000C040800407070600F8
:102DB0000010204080402010050303060002F800A8
:102DC000F804070706010080402010204080050716
:102DD000070600007088081020002005070706007D
:102DE0000070880868A8A8700507070600007088AA
:102DF00088F8888888050707060000F08888F0882A
:102E000088F00507070600007088808080887005BC
:102E10000707060000F08888888888F005070706FD
:102E20000000F88080F08080F8050707060000F8B1
:102E30008080F0808080050707060000708880B8D9
:102E4000888870050707060000888888F8888888C1
:102E500001070706020080808080808080050707C8
:102E600006000038101010109060050707060000DB
:102E70008890A0C0A0908805070706000080808089
:102E8000808080F805070706000088D8A888888811
:102E9000880507070600008888C8A898888805075D
:102EA0000706000070888888888870050707060074
:102EB00000F08888F0808080050707060000708891
:102EC0008888A89068050707060000F08888F0A0A9
:102ED0009088050707060000788080700808F005D4
:102EE0000707060000F820202020202005070706FD
:102EF0000000888888888888700507070600008891
:102F000088888888502005070706000088888888F8
:102F100088A8500507070600008888502050888838
:102F2000050707060000888888502020200507072D
:102F3000060000F80810204080F80307070601008B
:102F4000E08080808080E00505050600018040204B
:102F50001008030707060100E02020202020E005DC
:102F60000303060004205088050101060000F80252
:102F7000020206020580400505050600007008787B
:102F800088780507070600008080B0C88888F005AB
:102F900005050600007080808870050707060000A0
:102FA000080868988888780505050600007088F884
:102FB00080700507070600003048E04040404005AB
:102FC00006060600FF708888780870050707060067
:102FD000008080B0C888888801070706020080004A
:102FE00080808080800308080601FF2000202020C8
:102FF00020A040040707060000808090A0C0A09099
:10300000030707060100C04040404040E0050505B9
:10301000060000D0A8A8A8A8050505060000B0C8AD
:103020008888880505050600007088888870050670
:10303000060600FFF08888F080800506060600FF7F
:10304000788888780808050505060000B0C88080E3
:103050008005050506000070807008F0040707066B
:1030600000004040E0404040300505050600008873
:10307000888898680505050600008888885020051E
:1030800005050600008888A8A8500505050600006B
:1030900088502050880506060600FF888888780832
:1030A00070050505060000F8102040F80307070624
:1030B00001002040408040402001070706020080B8
:1030C00080808080808003070706010080404020C8
:1030D00040408005020206000268900000000600E1
:1030E00000000000060000000000060000000000D4
:1030F00006000000000006000000000006000000BE
:1031000000000600000000000600000000000600AD
:1031100000000000060000000000060000000000A3
:10312000060000000000060000000000060000008D
:10313000000006000000000006000000000006007D
:103140000000000006000000000006000000000073
:10315000060000000000060000000000060000005D
:10316000000006000000000006000000000006004D
:103170000000000006000000000006000000000043
:10318000060000000000060000000000060000002D
:10319000000006000000000006000000000006001D
:1031A0000000000006000001070706020080008002
:1031B000808080800507070600002070A8A0A87006
:1031C00020050707060000304040E04050A80505F4
:1031D0000506000088705070880507070600008803
:1031E0005020F820F82001070706020080808000A8
:1031F000808080050808060000304820505020904C
:1032000060030101060107A0050707060000F88812
:10321000B8B8B888F80507070600017008788878FC
:1032200000F80505050600012850A05028050303F5
:10323000060001F80808020202060206408005079F
:1032400007060000F888A88898A8F805010106007C
:1032500006F8040404060003609090600507070662
:1032600000002020F8202000F80405050600036077
:10327000902040F0030505060003E020E020E00276
:10328000020206020640800508080600FF888888BA
:103290008898E880800507070600007898987818D5
:1032A0001818020202060202C0C00202020602FF51
:1032B000408003050506000340C04040E0050707C5
:1032C000060001708888887000F805050506000171
:1032D000A0502850A00507070600008890A858B8FD
:1032E00008080507070600008890B84898203805A8
:1032F0000808060000C040C048D83808080507077D
:1033000006000020002040808870050808060000A4
:103310004020007088F88888050808060000102002
:10332000007088F8888805080806000020500070A2
:1033300088F888880508080600006890007088F8FA
:1033400088880508080600005000708888F888887A
:103350000508080600002050207088F888880507B6
:10336000070600003860A0B8E0A0B805080806000D
:10337000FF70888080887020600508080600004083
:103380002000F880F080F80508080600000810000A
:10339000F880F080F8050808060000205000F8804A
:1033A000F080F80507070600005000F880F080F86C
:1033B000030808060100804000E0404040E00308A8
:1033C00008060100204000E0404040E003080806F5
:1033D000010040A000E0404040E003070706010074
:1033E000A000E0404040E0050707060000704848A4
:1033F000E848487005080806000068900088C8A8DA
:103400009888050808060000402070888888887021
:103410000508080600001020708888888870050854
:10342000080600002050007088888870050808068B
:103430000000689000708888887005080806000001
:10344000500070888888887005050506000188503E
:103450002050880508080600FF1070A8A8A8A870CA
:103460004005080806000040208888888888700584
:1034700008080600001020888888888870050808D9
:10348000060000205000888888887005080806001B
:103490000050008888888888700508080600001099
:1034A000208850202020200509090600FFC0407018
:1034B0004848704040E00408080601FF609090A072
:1034C0009090E08005080806000040200070087811
:1034D00088780508080600001020007008788878B1
:1034E0000508080600002050007008788878050854
:1034F00008060000689000700878887805070706BD
:103500000000500070087888780508080600002040
:1035100050207008788878050606060000D02878C4
:10352000A0A8500506060600FF7080887020600580
:1035300008080600004020007088F8807005080820
:103540000600001020007088F8807005080806004A
:10355000002050007088F8807005070706000050B2
:10356000007088F880700308080601008040004061
:10357000C04040E003080806010020400040C04071
:1035800040E003080806010040A00040C04040E0C1
:10359000030707060100A00040C04040E005070700
:1035A000060000A040A010788870050808060000FA
:1035B000689000B0C8888888050808060000402088
:1035C00000708888887005080806000010200070C8
:1035D00088888870050808060000205000708888D8
:1035E0008870050808060000689000708888887058
:1035F00005070706000050007088888870050505DB
:103600000600012000F800200507070600FF1070E3
:10361000A8A8A87040050808060000402000888877
:103620008898680508080600001020008888889897
:1036300068050808060000205000888888986805FA
:103640000707060000500088888898680509090661
:1036500000FF102000888888F8087004070706011A
:10366000FFC04060506040E00508080600FF5000C1
:10367000888888780870486F6D65202573257325C4
:1036800073206669727374002066697273740A002D
:103690005A0059005800486F6D652000534420635C
:1036A000617264206F6B0A006F70656E526F6F7489
:1036B000206661696C65640A00766F6C756D652EB5
:1036C000696E6974206661696C65640A0053442000
:1036D000696E6974206661696C0A006175746F2592
:1036E000692E67004D3234004D3233202573005768
:1036F000726974696E6720746F2066696C653A2020
:10370000006F70656E206661696C65642C20466987
:103710006C653A20006F70656E206661696C656447
:103720002C2046696C653A200046696C65207365FB
:103730006C65637465640A002053697A653A2000F9
:1037400046696C65206F70656E65643A20006F7025
:10375000656E206661696C65642C2046696C653A0B
:1037600020002066696C653A20004E6F77200022A9
:1037700020706F73002220706172656E743A2200AF
:10378000535542524F5554494E452043414C4C20CD
:103790007461726765743A22004B494C4C45442E63
:1037A0002000747279696E6720746F2063616C6C9D
:1037B000207375622D67636F64652066696C65733D
:1037C000207769746820746F6F206D616E79206C4A
:1037D0006576656C732E204D4158206C6576656C5E
:1037E0002069733A004572726F723A0025753A2566
:1037F00030327500253032753A2530327500257526
:103800006420253032753A25303275005A0059004F
:103810005800092000000000000000000000000027
:10382000007FFFE00000000000000000000000003A
:103830007000E000000000000000000000000061D7
:10384000F86000000000000000000000000041F8E7
:103850002000000000000000000000000040F020F8
:103860000000000000000000000000004060200098
:1038700000000000000000000000005801A07F8050
:10388000000000000000004104005C63A0FFC000D5
:103890000000000000002082005EF7A0FFC00000D2
:1038A00000000000002082005EF7A0FFC0000000C2
:1038B000000000004104005C63A07F800000000065
:1038C0000000008208005801A07F80000000000076
:1038D0000001041000406020FFC000000000000054
:1038E0000104100040F020FFC000000000000000B4
:1038F00082080041F820FFC00000000000000041E5
:10390000040061F8603F00000000000000000000BB
:10391000007000E01E0000000000000001FFFF80BA
:103920007FFFE00C0000000000000001FFFF8000AE
:1039300000000000000000000000000000007FFF09
:10394000E00000000000000000000000007000E047
:10395000000000000000000000000000630C600098
:103960000000000000000000000000470E200000E2
:10397000000000000000000000004F0F20000000C9
:103980000000000000000000005F0FA00000000029
:1039900000000000000000005E07A07F8000000023
:1039A00000000000410400406020FFC00000000053
:1039B00000000020820040F020FFC0000000000056
:1039C000000020820040F020FFC000000000000046
:1039D000004104004060207F8000000000000000E3
:1039E0008208005E07A07F80000000000000010444
:1039F00010005F0FA0FFC0000000000000010410D5
:103A0000004F0F20FFC000000000000000820800EF
:103A1000470E20FFC00000000000000041040063CA
:103A20000C603F000000000000000000000070007B
:103A3000E01E0000000000000001FFFF807FFFE0AB
:103A40000C0000000000000001FFFF800000004D9E
:103A5000313430205330004D313034205330004A5F
:103A6000656C6C79424F5820697320726561647986
:103A70000000060900FE000000000001090008FE29
:103A8000000005080806000040F0C88888987810F3
:103A9000050808060000C0F88888888888F80505A9
:103AA000050600012030F830200508080600002037
:103AB00070F820202020E00509090600FF2070A8EA
:103AC000A8B8888870200509090600FFE080C0B00A
:103AD000A8283028280509090600FFF8A888888842
:103AE0008888A8F8050A0A0600FE20505050508821
:103AF000A8A8887003030306000340A0405A207062
:103B0000726F6265206F75742E206265640A005AB8
:103B10002070726F6265206F75742E20626564007C
:103B2000473238205A20466F7262696464656E0AB3
:103B300000473238205A20466F7262696464656EAD
:103B400000205A3A200020593A200042656420584B
:103B50003A200043616E6E6F74206F70656E207343
:103B600075626469722000656E7175657565696E50
:103B7000672022006563686F3A0024F4D43050C394
:103B80008E20C2A24017828B7011127A910D816C27
:103B9000D90AA861E108C7586607615143061E4B60
:103BA0005D05C145A7041A411104093D9803713907
:103BB00031034036DB0265339102D4305402802E4B
:103BC0001D02632CEE01752AC501B028A001102743
:103BD00081018F2564012B244B01E0223401AC21AB
:103BE0001F018D200D01801FFC00841EED00971D1C
:103BF000DF00B81CD200E61BC600201BBC00641A04
:103C0000B200B219A8000A19A0006A189900D117C9
:103C1000910040178B00B516840031167E00B31555
:103C200079003A157300C7146F0058146A00EE1338
:103C300066008813630025135E00C7125B006C12D8
:103C4000570015125400C111510070114F0021117D
:103C50004B00D61049008D1047004610440002105A
:103C60004200C00F4000800F3E00420F3C00060F94
:103C70003B00CB0E3800930E37005C0E3500270E4C
:103C80003400F30D3200C10D3100900D3000600D95
:103C90002E00320D2D00050D2C00D90C2B00AE0C82
:103CA0002900850C29005C0C2700350C27000E0C20
:103CB0002600E80B2400C40B2400A00B23007D0B7E
:103CC00023005A0B2100390B2100180B2000F80AA1
:103CD0001F00D90A1E00BB0A1E009D0A1D00800A93
:103CE0001D00630A1C00470A1B002C0A1B00110A56
:103CF0001A00F7091A00DD091900C4091900AB09F7
:103D00001900920917007B091800630917004C0974
:103D1000160036091600200916000A091500F508D4
:103D20001500E0081400CC081400B8081400A4081A
:103D30001400900813007D0812006B081300580847
:103D4000120046081200340811002308110012085E
:103D5000110001081100F0071000E0071000D00763
:103D60001000C0071000B0070F00A1071000910756
:103D70000E0083070F0074070F0065070E0057073A
:103D80000E0049070E003B070D002E070E0020070E
:103D90000D0013070D0006070D00F9060C00ED06D7
:103DA0000D00E0060C00D4060C00C8060C00BC0692
:103DB0000C00B0060C00A4060B0099060C008D0642
:103DC0000B0082060B0077060B006C060B006106E9
:103DD0000A0057060B004C060A0042060A00380685
:103DE0000A002E060A0024060A001A060A00100617
:103DF000090007060A00FD050900F4050900EB05A6
:103E00000900E2050900D9050900D0050900C70528
:103E10000900BE050900B5050800AD050800A505A7
:103E200009009C050800940508008C05080084051D
:103E300008007C050800740508006C05070065058E
:103E400008005D050700560508004E0507004705F8
:103E500007004005080038050700310507002A055E
:103E60000700230507001C050600160507000F05BF
:103E700007000805060002050700FB040600F5041C
:103E80000700EE040600E8040600E2040700DB0475
:103E90000600D5040600CF040600C9040600C304CA
:103EA0000600BD040600B7040600B1040500AC041A
:103EB0000600A6040600A00405009B040600950465
:103EC0000500900406008A040500850405008004AE
:103ED00006007A04050075040500700405006B04F3
:103EE000050066040500610405005C040500570434
:103EF0000500520405004D04050048040500430474
:103F000005003E0404003A040500350405003004B1
:103F100004002C04050027040400230405001E04EB
:103F200004001A04040016040500110404000D0422
:103F30000400090405000404040000040400FC0358
:103F40000400F8030400F4030400F0030400EC038D
:103F50000400E8030400E4030400E0030400DC03BD
:103F60000400D8030400D4030400D0030400CC03ED
:103F70000400C8030300C503030024F404D9201B74
:103F8000C40C5C0E9804C4095F0265077101F40556
:103F9000F900FB04B30048048700C103690058031B
:103FA000550003034500BE023A008402310053026B
:103FB0002A002902250004022000E4011C00C80197
:103FC0001900AF011700980114008401130071015A
:103FD00010006101100051010E0043010D00360177
:103FE0000B002B010B0020010B00150109000C0137
:103FF000090003010800FB000800F3000800EB00C3
:104000000700E4000600DE000600D8000600D2002B
:104010000600CC000500C7000500C2000500BD0079
:104020000400B9000400B5000400B1000400AD00B4
:104030000400A9000400A5000300A20003009F00E3
:1040400004009B0003009800030095000200930009
:104050000300900003008D0002008B000300880025
:1040600002008600020084000300810002007F003D
:1040700002007D0002007B00020079000200770050
:10408000010076000200740002007200010071005D
:1040900002006F0002006D0001006C0002006A0067
:1040A0000100690002006700010066000100650070
:1040B0000100640002006200010061000100600074
:1040C00001005F0002005D0001005C0001005B0078
:1040D00001005A000100590001005800010057007A
:1040E000010056000100550001005400010053007A
:1040F0000000530001005200010051000100500077
:1041000001004F0001004E0000004E0001004D0074
:1041100001004C0001004B0000004B0001004A0070
:10412000010049000100480000004800010047006C
:104130000100460000004600010045000000450067
:104140000100440001004300000043000100420060
:104150000000420001004100000041000100400059
:1041600001003F0000003F0001003E0000003E0053
:1041700001003D0000003D0001003C0000003C004B
:1041800000003C0001003B0000003B0001003A0041
:1041900000003A0001003900000039000100380039
:1041A0000000380000003800010037000000370030
:1041B0000100360000003600000036000100350026
:1041C000000035000000350001003400000034001C
:1041D0000000340001003300000033000000330011
:1041E0000100320000003200000032000100310006
:1041F00000003100000031000100300000003000FC
:104200000000300001002F0000002F0000002F00F0
:1042100000002F0001002E0000002E0000002E00E4
:1042200001002D0000002D0000002D0000002D00D9
:1042300001002C0000002C0000002C0000002C00CD
:1042400001002B0000002B0000002B0000002B00C1
:1042500001002A0000002A0000002A0000002A00B5
:1042600001002900000029000000290000002900A9
:10427000000029000100280000002800000028009C
:10428000000028000000280001002700000027008F
:104290000000270000002700000027000100260082
:1042A0000000260000002600000026000000260076
:1042B0000100250000002500000025000000250069
:1042C000000025000000250001002400000024005B
:1042D000000024000000240000002400010023004E
:1042E0000000230000002300000023000000230042
:1042F0000000230000002300010022000000220033
:104300000000220000002200000022000000220025
:104310000100210000002100000021000000210018
:104320000000210000002100000021000100200009
:1043300000002000000020000000200000002000FD
:1043400000002000000020000000200001001F00ED
:1043500000001F0000001F0000001F0000001F00E1
:1043600000001F0000001F0001001E0000001E00D2
:1043700000001E0000001E0000004D3834205820B0
:1043800059205A204500466163746F727920526546
:1043900073657400476F204261636B0064656661FA
:1043A000756C74732E2020202020202020202020B7
:1043B000202020202020202020202020007468653C
:1043C000697220666163746F72792020202020203A
:1043D0002020202020202020202020202000686174
:1043E0007665206265656E20726573657420746FF2
:1043F00020202020202020202020202020200053AA
:104400007563636573732120416C6C2073657474EC
:10441000696E67732020202020202020202020008B
:104420004D3530320A4D3530300076616C7565732C
:104430002E2020202020202020202020202020206E
:1044400020202000726573657420746F2064656697
:1044500061756C7420202020202020202000452D14
:1044600073746570732C2077696C6C2062652020F2
:10447000202020202020200073657474696E6773EB
:104480002C206C696B6520504944206F72202020DD
:104490002000534420636172642C20627574206193
:1044A0006C6C20202020202020202000746F207998
:1044B0006F75722066696C6573206F6E2074686515
:1044C0002020202020004E6F7468696E6720776975
:1044D0006C6C2068617070656E20202020202000A8
:1044E0006D656D6F72792028454550524F4D292ECC
:1044F0002020202020202020200074686520696E64
:104500007465726E616C2073657474696E67732074
:1045100020202000466163746F7279207265736594
:104520007420776970657320202020202000726538
:1045300073657420796F7572204A656C6C79424F8F
:10454000582E202020202000686F6C6420666F7237
:104550002035207365636F6E647320746F20202094
:104560002000275265736574212720627574746F6B
:104570006E20616E64202020202020002D2D203F01
:10458000202D2D20507265737320746865202020C3
:104590002020202020005265736574212028636C40
:1045A00069636B202620686F6C64290000476F20C8
:1045B0004261636B0044616E676572205A6F6E657D
:1045C000004D6F74696F6E0054656D706572617433
:1045D00075726500476F204261636B0043616E6EC8
:1045E0006F7420656E746572207375626469723AC7
:1045F0002000022E2E00476F204261636B00205A7C
:104600003A0020593A0020436F756E7420583A00E2
:1046100020453A00205A3A0020593A00583A0053AF
:10462000657474696E672054726176656C204163AD
:1046300063656C65726174696F6E3A2000536574CE
:1046400074696E672052657472616374204163639C
:10465000656C65726174696F6E3A2000536574749D
:10466000696E67205072696E7420416363656C6582
:10467000726174696F6E3A200053657474696E6775
:10468000205072696E7420616E6420547261766588
:104690006C20416363656C65726174696F6E3A206A
:1046A00000205A00205900580020204D61783A20FF
:1046B00000205A00205900580020204D696E3A20F1
:1046C000004F6E20004F666600536F667420656E63
:1046D0006473746F70733A20004F66667365747309
:1046E000206170706C696564004572723A20546F85
:1046F0006F206661722100546F6F206661722066C0
:10470000726F6D207265666572656E636520706F8D
:10471000696E740A003A20007A5F6D696E3A202053
:104720002D3230207A5F6D61783A20203230005A85
:10473000206F66667365742000000020C1000000D1
:10474000C000000000000048420000484200002075
:1047500041000000005761726E696E673A20486F31
:104760006D696E672042756D702044697669736F5C
:1047700072203C20310A000202040000A040000028
:10478000A040000000400000444300002843000017
:104790001243FFFFFF4D36303020486F74656E6462
:1047A00020746F6F20636F6C6420746F2063686186
:1047B0006E67652066696C616D656E740A007C3C8D
:1047C0003E5E2B3D3F2F5B5D3B2C2A225C00202070
:1047D0004D383531205A005A2D50726F6265204F86
:1047E000666673657420286D6D293A0A00204400BE
:1047F00020490020204D3330342050002044002038
:10480000490020204D33303120500050494420735E
:10481000657474696E67733A0A002046002042008E
:1048200020480020204D3134352053004D617465FF
:104830007269616C20686561747570207061726165
:104840006D65746572733A0A0020204D3432302051
:1048500053004175746F20426564204C6576656C29
:10486000696E673A0A00205A0020590020204D3214
:104870003036205800486F6D65206F66667365742A
:104880003A0A00204500205A0020590020580020F4
:10489000420020540020204D323035205300416426
:1048A00076616E6365643A20533C6D696E5F666540
:1048B0006564726174653E20543C6D696E5F74720C
:1048C0006176656C5F66656564726174653E204201
:1048D0003C6D696E5F7365676D656E745F74696D5D
:1048E000655F6D733E20583C6D61785F78795F6AD3
:1048F00065726B3E205A3C6D61785F7A5F6A6572C3
:104900006B3E20453C6D61785F655F6A65726B3E0A
:104910000A0020540020520020204D323034205014
:1049200000416363656C65726174696F6E20287500
:104930006E6974732F7332293A20503C7072696E1D
:10494000745F616363656C3E20523C726574726192
:1049500063745F616363656C3E20543C747261767E
:10496000656C5F616363656C3E0A00204500205AF8
:104970000020590020204D3230312058004D617800
:10498000696D756D20416363656C65726174696FF3
:104990006E2028756E6974732F7332293A0A0020CD
:1049A0004500205A0020590020204D323033205835
:1049B000004D6178696D756D20666565647261741E
:1049C00065732028756E6974732F73293A0A002065
:1049D0004500205A0020590020204D39322058002F
:1049E00053746570732070657220756E69743A0A2D
:1049F0000020204D3230302044300A0020204D323B
:104A000030302044002044697361626C65640A00A0
:104A100046696C616D656E742073657474696E6748
:104A2000733A0020204D3134392043203B20556E0D
:104A300069747320696E2043656C736975730A002D
:104A40002020473231202020203B20556E6974738E
:104A500020696E206D6D0A0000000000000000005B
:104A6000000000C0000000000000000001E00000A5
:104A700000000000000007F8000000000000000037
:104A80001FFE00000000000000007E1F80000000EC
:104A900000000000F807C3603043F1FDFBF0E1E0E7
:104AA000C37070E3FDFDFBF8E3F0437070E30F802B
:104AB000330CE7390378F1B303807306E619837882
:104AC000F1B303F8FB066619C36DB31B03F81F06A9
:104AD0002739C36FB3FB07800F0EC3F1C367371FBE
:104AE0000F819F1CE1E1C3673E0FFDFDFBF8F80756
:104AF000C3623C03F1FC63F07E1F800000000000F5
:104B000000001FFE000000000000000007F8000089
:104B100000000000000001E00000000000000000B4
:104B200000C00000000000000000000000000000C5
:104B300000000000526573656E643A20006F6B00E0
:104B4000627573793A2070617573656420666F725F
:104B500020696E7075740A00627573793A2070610D
:104B60007573656420666F7220757365720A0062E2
:104B70007573793A2070726F63657373696E670A33
:104B8000004D363030004B494C4C45442E20004BF4
:104B9000494C4C20636175736564206279204B49F0
:104BA0004C4C20627574746F6E2F70696E0A004BE6
:104BB000494C4C45442E20004B494C4C20636175B8
:104BC00073656420627920746F6F206D756368204F
:104BD000696E6163746976652074696D65202D2046
:104BE00063757272656E7420636F6D6D616E643A89
:104BF0002000506C656173652072657365740050A8
:104C000052494E5445522048414C5445440050723C
:104C1000696E7465722068616C7465642E206B69BE
:104C20006C6C28292063616C6C6564210A004D6FEF
:104C30007665205A004D6F76652059004D6F766578
:104C400020580041626F727400476F204261636BAD
:104C500000486F6D652058595A0047323820582057
:104C600059205A00486F6D65205900473238205945
:104C700000486F6D65205800473238205800476F54
:104C8000204261636B004578747275646572004DF3
:104C90006F7665205A004D333032205031004D6F11
:104CA00076652059004D6F7665205800476F204289
:104CB00061636B0046696C652064656C657465644E
:104CC0003A0044656C6574696F6E206661696C6555
:104CD000642C2046696C653A20006F70656E206612
:104CE00061696C65642C2046696C653A20005072DD
:104CF0006F7465637465642050696E0A00473238CA
:104D00000A4D3834005072696E7420706175736595
:104D100064004D31323500004D3234005072696EFE
:104D2000742061626F727465640053746F702070D8
:104D300072696E7400526573756D65207072696E6C
:104D400074004E6F20534420636172642020202041
:104D500020202020202020202020202000506175AD
:104D60007365207072696E7400537570706F727421
:104D70000053657474696E6773004D61696E746584
:104D80006E616E6365004D6174657269616C00509F
:104D900072696E742061646A7573746D656E747384
:104DA00000486F6D6520262052656C656173650053
:104DB0005072696E742066726F6D20534420636177
:104DC0007264005072696E742061646A7573746DE8
:104DD000656E747300476F204261636B0000E200F0
:104DE000DE0011241FBECFEFD1E2DEBFCDBF00E059
:104DF0000CBF14E0A0E0B2E0E6E6F7E902E00BBF8A
:104E000002C007900D92A831B107D9F725E1A8E1BA
:104E1000B4E001C01D92AF30B207E1F716E2C0EF77
:104E2000D6E200E006C021970109802FFE010F9411
:104E30001C4BCF3ED10780E00807A9F70F94A133A0
:104E40000D94A24B0C9400002F923F924F925F92D0
:104E50006F927F928F929F92AF92BF92CF92DF928A
:104E6000EF92FF920F931F93CF93DF93CDB7DEB7EF
:104E7000CC59D1090FB6F894DEBF0FBECDBF00915B
:104E8000B90720E6029F80011124075C194F809129
:104E9000940580FF1AC0E4E7FBE384917F013FEFB4
:104EA000E31AF30A811102C0780104C00E94DB6397
:104EB000F701F3CFD7018D917D01882319F00E946E
:104EC000DB63F8CF8AE00E94DB6381E090E090939F
:104ED00005138093041310923A04109239048FE35F
:104EE00080934304109242041092410410923204C1
:104EF000109233041092340410923504F80180812A
:104F00000F5F1F4F8032D1F38E34B1F4818190ED69
:104F1000980F9A3020F08D3211F08B3269F432966E
:104F2000DF0131962C9120532A30D0F3CD01FC01C2
:104F3000019620812032D9F3F093B714E093B61490
:104F40007F01BFEFEB1AFB0A10816AE270E0C70134
:104F50000F946A4B009731F0FC01319780818032C9
:104F6000E1F311821D3429F0143519F0173409F0DA
:104F7000CCC0F70180812FEFE21AF20A8032C9F328
:104F800080538A3008F0C1C010934304209141043B
:104F9000309142044AE03196429FC001439F900DF8
:104FA0001124DF0111972C91022E000C330B20539A
:104FB0003109280F391F808180538A3060F3309384
:104FC000420420934104CF013196DC014C914032E0
:104FD000D1F31D34D1F42E31310591F03CF4273159
:104FE000310571F02C31310581F40AC025373105C6
:104FF00064F02737310524F0203AE3E03E0729F436
:1050000090933A048093390480C010923A0410922D
:1050100039040091B61461E070E0FD0131968C9185
:10502000882309F472C08132A1F41D3491F4203236
:10503000310579F4F0933A04E093390463E270E0C7
:10504000CF010F946A4B009709F45FC0DC011C92FA
:105050005CC09FEBD92ED80E49E1C42ECD14C0F10F
:10506000AF01FA0190814F5F5F4F9032D1F340ED75
:10507000490F4A3040F043ED490F423020F09B3257
:1050800011F00C94753FAF01AD2CB12C750183E08C
:10509000F594E7948A95E1F7C7018E5C9B4F7C01FC
:1050A0008D2D8770DB0102C0AA0FBB1F8A95E2F726
:1050B000CD01D7019C91892B8C934115510511F09D
:1050C000401B01C040E0D501A85EBB4F4C930AC015
:1050D0008091390490913A04892B21F4B0933A04D9
:1050E000A0933904808181548A3110F4DF0195CF77
:1050F000DF0131969C9190539A30D0F3CD01FC01A1
:10510000019640814032D9F3F1CF809143048D3430
:1051100011F40C94B730843511F40C94123F873499
:1051200011F00C94543F80914104909142048C31D1
:10513000910509F400C784F48430910544F4823069
:1051400091050CF013C197FF1FC00C946E3F04979C
:1051500009F4AAC60C946E3F8A35910509F47BC701
:105160004CF48D31910509F4EAC64E9709F4EBC66B
:105170000C946E3F8B35910509F471C78C35910500
:1051800009F472C70C946E3F80910002882311F4D9
:105190000C946E3F0E94356284E69AE00F941628C4
:1051A0000E9498638091940583FD8FC0C090700A1F
:1051B000D090710AE090720AF090730A2091EB0788
:1051C0003091EC074091ED075091EE07C701B60111
:1051D0000F94B743882309F478C080919305811117
:1051E00038C06091330270913402072E000C880B96
:1051F000990B0F94BD439B01AC016091DD0570914B
:10520000DE058091DF059091E0050F94B74387FF9D
:1052100020C0C092EB07D092EC07E092ED07F0922D
:10522000EE07E4E7FBE384918F010F5F1F4F8823B4
:1052300021F00E94DB63F801F6CFE8E4F2E084910C
:105240008F010F5F1F4F882321F00E94DB63F8015D
:10525000F6CFC090700AD090710AE090720AF09078
:10526000730A2091EB073091EC074091ED075091C4
:10527000EE07C701B6010F94204820E030E048E473
:1052800053E40F94474A181604F5C092EB07D092E6
:10529000EC07E092ED07F092EE07E4E7FBE3849180
:1052A0008F010F5F1F4F882321F00E94DB63F801FD
:1052B000F6CFE9E2F2E084918F010F5F1F4F882360
:1052C00021F00E94DB63F801F6CF2091640A30914F
:1052D000650A4091660A5091670A6091DF077091F4
:1052E000E0078091E1079091E2070F94B7438111A5
:1052F0001DC02091680A3091690A40916A0A509154
:105300006B0A6091E3077091E4078091E507909143
:10531000E6070F94B743811109C060918A0270912A
:105320008B0280918C0290918D021AC060912002B4
:1053300070912102072E000C880B990B0F94BD432E
:1053400020918A0230918B0240918C0250918D0203
:105350000F941C442AE037ED43E25CE30F941C44B5
:105360000E94625F0E94585F0C946E3F2091000281
:10537000222311F40C946E3F11E0029709F010E023
:105380000E94356282E50E942962882309F44AC19D
:105390000E94C7616B017C014090DF075090E007DD
:1053A0006090E1077090E2072091E3073091E407F5
:1053B0004091E5075091E60728AF39AF4AAF5BAFA0
:1053C0008091640A9091650AA091660AB091670A7B
:1053D0008CAF9DAFAEAFBFAF2091680A3091690A24
:1053E00040916A0A50916B0A24962CAF3DAF4EAFA4
:1053F0005FAF249720E030E0A901C701B6010F9408
:10540000B743882309F436C5A30192016CAD7DAD85
:105410008EAD9FAD0F94B74381110FC028AD39AD4C
:105420004AAD5BAD24966CAD7DAD8EAD9FAD24973E
:105430000F94B743882309F41DC520E030E0A9018B
:10544000C701B6010F94B743881F8827881F181318
:105450000BC080E090E0A0E8BFE364968CAF9DAF06
:10546000AEAFBFAF64970AC020E030E040E85FEB2A
:1054700064962CAF3DAF4EAF5FAF6497A30192012E
:105480006CAD7DAD8EAD9FAD0F9420482C966CAF6A
:105490007DAF8EAF9FAF2C9728AD39AD4AAD5BADD8
:1054A00024966CAD7DAD8EAD9FAD24970F942048B2
:1054B00060966CAF7DAF8EAF9FAF60972C962CAD92
:1054C0003DAD4EAD5FAD2C97CA01B9010F941C44A0
:1054D0004B015C0160962CAD3DAD4EAD5FAD60976C
:1054E000CA01B9010F941C449B01AC01C501B40170
:1054F0000F9421480F948C4A28966CAF7DAF8EAFE5
:105500009FAF289720E030E040E05FE30F941C4419
:105510004B015C01A7019601C701B6010F941C4421
:105520006B017C01A5019401C501B4010F941C44D9
:105530009B01AC01C701B6010F9420480F948C4A1F
:105540009B01AC0164966CAD7DAD8EAD9FAD649753
:105550000F941C444B015C012CAD3DAD4EAD5FADD5
:10556000C301B2010F94214820E030E040E05FE346
:105570000F941C446B017C0160966CAD7DAD8EADCB
:105580009FAD6097905828962CAD3DAD4EAD5FAD68
:1055900028970F94FD489B01AC01C501B4010F94FD
:1055A0001C449B01AC01C701B6010F942148A30123
:1055B00092010F9420486B017C0124962CAD3DADE7
:1055C0004EAD5FAD249768AD79AD8AAD9BAD0F94BC
:1055D000214820E030E040E05FE30F941C442B01C1
:1055E0003C0128962CAD3DAD4EAD5FAD28972C9675
:1055F0006CAD7DAD8EAD9FAD2C970F94FD489B019A
:10560000AC01C501B4010F941C449B01AC01C30162
:10561000B2010F94214828AD39AD4AAD5BAD0F946E
:10562000204814C089E40E942962882329F00E943E
:10563000C7616B017C0103C0C12CD12C76018AE4C7
:105640000E9429628823F9F00E94C76124966CAFFA
:105650007DAF8EAF9FAF249720E030E0A901C70156
:10566000B6010F94B74381111EC020E030E0A901BC
:1056700024966CAD7DAD8EAD9FAD24970F94B7434E
:10568000811111C0F7C320E030E0A901C701B601C4
:105690000F94B743882309F4EDC324961CAE1DAEC6
:1056A0001EAE1FAE2497D701C601B05888AF99AF80
:1056B000AAAFBBAF24962CAD3DAD4EAD5FAD2497E8
:1056C00050582CAF3DAF4EAF5FAF9C01AD01BC0158
:1056D000CD010F941C444B015C012CAD3DAD4EAD92
:1056E0005FADCA01B9010F941C449B01AC01C50117
:1056F000B4010F9421480F948C4AA8966CAF7DAFEB
:105700008EAF9FAFA8978091DF079091E007A0919F
:10571000E107B091E20728968CAF9DAFAEAFBFAF67
:105720002897A7019601BC01CD010F9421486496EA
:105730006CAF7DAF8EAF9FAF64972091E307309140
:10574000E4074091E5075091E60760962CAF3DAF26
:105750004EAF5FAF609724962CAD3DAD4EAD5FADC3
:10576000249760966CAD7DAD8EAD9FAD60970F9424
:10577000214868966CAF7DAF8EAF9FAF68978091E0
:10578000640A9091650AA091660AB091670A6C96C6
:105790008CAF9DAFAEAFBFAF6C9764962CAD3DADF7
:1057A0004EAD5FAD6497BC01CD010F9420486B01F5
:1057B0007C012091680A3091690A40916A0A5091EF
:1057C0006B0AA0962CAF3DAF4EAF5FAFA097689627
:1057D0002CAD3DAD4EAD5FAD6897A0966CAD7DAD87
:1057E0008EAD9FADA0970F9420484B015C01809136
:1057F000E7079091E807A091E907B091EA07A4961E
:105800008CAF9DAFAEAFBFAFA4979C01AD016091CF
:105810006C0A70916D0A80916E0A90916F0A0F94D4
:1058200020482C966CAF7DAF8EAF9FAF2C97209108
:10583000700A3091710A4091720A5091730AAC96C5
:105840002CAF3DAF4EAF5FAFAC978091EB0790911F
:10585000EC07A091ED07B091EE07E0968CAF9DAFFD
:10586000AEAFBFAFE097A701960168AD79AD8AAD45
:105870009BAD0F941C442B013C01A50194016CAD20
:105880007DAD8EAD9FAD0F941C449B01AC01C30157
:10589000B2010F9421482B013C01A501940168AD90
:1058A00079AD8AAD9BAD0F941C444B015C01A701FF
:1058B00096016CAD7DAD8EAD9FAD0F941C449B01E8
:1058C000AC01C501B4010F942048A30192010F94CB
:1058D00094486B017C0120E030E0A9010F94B743AC
:1058E00087FF0AC02BED3FE049EC50E4C701B60149
:1058F0000F9421486B017C01112351F02BED3FE007
:1059000049EC50E4C701B6010F9420486B017C01BB
:1059100020E030E0A901C701B6010F94B74381111F
:1059200028C06C962CAD3DAD4EAD5FAD6C97289602
:105930006CAD7DAD8EAD9FAD28970F94B7438111AF
:1059400018C0A0962CAD3DAD4EAD5FADA097609652
:105950006CAD7DAD8EAD9FAD60970F94B743811157
:1059600008C01BEDC12E1FE0D12E19ECE12E10E472
:10597000F12EA8962CAD3DAD4EAD5FADA897C701F9
:10598000B6010F941C449B01AC010F941C444B01C5
:105990005C012C962CAD3DAD4EAD5FAD2C97CA0190
:1059A000B9010F941C449B01AC01C501B4010F94D3
:1059B00021480F948C4A4B015C012FE632E143E809
:1059C0005AE30F94B74387FD51C2C501B4010F9448
:1059D00096490F946A491B01672B19F422242394DA
:1059E000312CB10180E090E00F94BB434B015C018E
:1059F0009B01AC01C701B6010F94FD4828966CAF1E
:105A00007DAF8EAF9FAF2897A50194012C966CAD0A
:105A10007DAD8EAD9FAD2C970F94FD48A8966CAFD1
:105A20007DAF8EAF9FAFA897E0962CAD3DAD4EAD4C
:105A30005FADE097AC966CAD7DAD8EAD9FADAC9794
:105A40000F942048A50194010F94FD48AC966CAFCB
:105A50007DAF8EAF9FAFAC9728962CAD3DAD4EADD0
:105A60005FAD2897CA01B9010F941C4420E030E0D3
:105A700040E05FE30F941C449B01AC0160E070E0E8
:105A800080E89FE30F9420486C966CAF7DAF8EAF9B
:105A90009FAF6C97A4962CAD3DAD4EAD5FADA49776
:105AA00029873A874B875C87E0968CAD9DADAEAD7C
:105AB000BFADE0978D879E87AF87B88B609120023E
:105AC00070912102072E000C880B990B0F94BD4397
:105AD00020918A0230918B0240918C0250918D026C
