:100000000C94E8260C9419270C9419270C941927A2
:100010000C9419270C9419270C9419270C94192760
:100020000C9419270C9419270C9419270C94192750
:100030000C9419270C9419270C9419270C94192740
:100040000C9419270D94AD150C9419270C941927AD
:100050000C9419270C9419270C94766D0C944DA5CB
:100060000C9419270C94C4680C9419270C94192724
:100070000C9419270C9419270C9419270C94192700
:100080000C9419270C9419270C9419270C941927F0
:100090000C9419270C9419270C9419270C941927E0
:1000A0000C9419270C9419270C9419270C941927D0
:1000B0000C9419270C9419270C9419270C941927C0
:1000C0000C9419270C9419270C9419270C941927B0
:1000D0000C9419270C9419270C9419270C941927A0
:1000E0000C9419272145244527452A452D4530459F
:1000F00033453645917C9A7CA47CAD7CB67CD17C22
:10010000DE7CE77CBF7CC87C69A46EA473A47DA45C
:1001100087A400A591A499A4A1A4ABA4B5A4BFA44D
:10012000CEA4D8A400A5E2A4ECA4F6A427D82AD88B
:1001300019D81DD823D861D82ED832D838D83CD871
:1001400040D846D84AD84ED861D854D858D85CD868
:10015000084AD73B3BCE016E84BCBFFDC12F3D6C2E
:1001600074319ABD56833DDA3D00C77F11BED9E494
:10017000BB4C3E916BAAAABE000000803F05A84C74
:10018000CDB2D44EB93836A9020C50B99186880840
:100190003CA6AAAA2ABE000000803F000D94F00BE6
:1001A0000D94480A0D94E60A0D9475260D94851C4D
:1001B0000D9474070D94B5240D94E3300D94483AD2
:1001C0000D9405270D9491250D94D6270D946C0957
:1001D0000D94A92B4E414E494E495459494E46CD96
:1001E000CCCC3D0AD7233C17B7D13877CC2B3295EE
:1001F00095E6241FB14F0A000020410000C84200CC
:10020000401C4620BCBE4CCA1B0E5AAEC59D744352
:100210004F4D4D554E49434154494F4E004452595C
:1002200052554E004552524F525300494E464F00D0
:100230004543484F0020746F6F206C6F6E672065D8
:100240007874727573696F6E2070726576656E74FE
:1002500065640A0020636F6C64206578747275733E
:10026000696F6E2070726576656E7465640A00470A
:10027000322F47332062616420706172616D657452
:100280006572730A00536C6565702E2E2E00205A1D
:100290003A200020593A200042656420583A200054
:1002A000456E642066696C65206C6973740A00424F
:1002B0006567696E2066696C65206C6973740A00F5
:1002C0004D313235005344207072696E74696E6727
:1002D000206279746520004E6F7420534420707240
:1002E000696E74696E670A0046696C652064656CA6
:1002F000657465643A0044656C6574696F6E206668
:1003000061696C65642C2046696C653A20006F70E9
:10031000656E206661696C65642C2046696C653A7F
:1003200020005072696E742074696D653A20006D0A
:100330000046696C616D656E7420757365643A2062
:100340000053746174733A20002C204C6F6E676503
:100350007374206A6F623A2000546F74616C207469
:10036000696D653A200053746174733A20002C2043
:100370004661696C65643A20002C2046696E697399
:100380006865643A20005072696E74733A200053B5
:10039000746174733A200030022B0224021D020F94
:1003A000026F66660044454255473A004B494C4C43
:1003B00045442E20004D3131332053006F6B0048EF
:1003C000656174696E6720646F6E652E0020573A10
:1003D000002573004A656C6C79424F582069732080
:1003E00072656164792E0042656420646F6E652ECB
:1003F0000020573A004265642048656174696E6761
:100400002E004D31343520533C696E6465783E20B2
:100410006F7574206F662072616E67652028302DBD
:1004200031290A00000136372603FF3C3D380EFF14
:100430002E303E12FFFF0C0809FFFFFF1A1C18FFA9
:10044000FF08440AFF43FFFFFFFFFFFF20643A005D
:1004500020693A0020703A0043290A0061626C6505
:100460006420286D696E2074656D702000436F6C88
:10047000642065787472756465732061726520000C
:1004800023646566696E65202044454641554C5499
:100490005F4B64200023646566696E6520204445D7
:1004A0004641554C545F4B69200023646566696E74
:1004B00065202044454641554C545F4B7020005008
:1004C0004944206175746F74756E6520636F6D703B
:1004D0006C6574652100504944204175746F7475D2
:1004E0006E652066696E6973686564212050757455
:1004F00020746865206C617374204B702C204B69EC
:1005000020616E64204B6420636F6E7374616E743F
:10051000732066726F6D2062656C6F7720696E74F0
:100520006F20436F6E66696775726174696F6E2EB6
:10053000680A00504944204175746F74756E6520D7
:100540006661696C6564212074696D656F75740AF4
:1005500000504944204175746F74756E6520666162
:10056000696C6564212054656D7065726174757283
:100570006520746F6F20686967680A0050494420DD
:100580006175746F74756E6520696E2070726F6727
:10059000726573732E0038206F662038206379638C
:1005A0006C657320636F6D706C6574650037206FC8
:1005B000662038206379636C657320636F6D706C9F
:1005C0006574650036206F662038206379636C653A
:1005D0007320636F6D706C6574650035202F203556
:1005E000206379636C657320636F6D706C657465EF
:1005F0000034202F2035206379636C657320636F8E
:100600006D706C6574650033202F2035206379632D
:100610006C657320636F6D706C6574650032202F9C
:100620002035206379636C657320636F6D706C6532
:1006300074650031202F2035206379636C65732049
:10064000636F6D706C65746500204B643A20002008
:100650004B693A2000204B703A20000A20436C611D
:100660007373696320504944200A002054753A206E
:1006700000204B753A2000206D61783A2000206DF3
:10068000696E3A200020643A200020626961733A62
:100690002000426564204C6576656C696E672000B9
:1006A0004661696C656420746F20656E61626C657B
:1006B00020426564204C6576656C696E670A00426D
:1006C0006564204C6576656C20436F727265637457
:1006D000696F6E204D61747269783A004F66667377
:1006E000657473206170706C696564004572723A5C
:1006F00020546F6F206661722100546F6F20666115
:10070000722066726F6D207265666572656E6365D4
:1007100020706F696E740A004163746976652045C4
:10072000787472756465723A2000556E6B6E6F77DF
:100730006E20636F6D6D616E643A202200000A0ABC
:10074000426564204C6576656C20436F7272656308
:1007500074696F6E204D61747269783A00202B00C5
:100760000A436F7272656374656420426564204851
:1007700065696768742076732E2042656420546F23
:10078000706F6C6F67793A0A00202B000A4265642B
:100790002048656967687420546F706F6772617074
:1007A00068793A0A2020202B2D2D2D204241434BE1
:1007B000202D2D2B0A2020207C20202020202020CE
:1007C000202020207C0A204C207C20202020282B48
:1007D00029202020207C20520A2045207C20202017
:1007E00020202020202020207C20490A2046207C18
:1007F00020282D29204E20282B29207C20470A2024
:1008000054207C20202020202020202020207C20FC
:10081000480A2020207C20202020282D292020204C
:10082000207C20540A2020207C20202020202020F2
:10083000202020207C0A2020204F2D2D2046524FA2
:100840004E54202D2D2B0A2028302C30290A004D03
:1008500065616E206F662073616D706C65642070D9
:100860006F696E74733A200020643A200020623A67
:10087000200045716E20636F656666696369656E09
:1008800074733A20613A200052756E6E696E67206B
:10089000696E204452592D52554E206D6F64650A81
:1008A00000473239204175746F20426564204C65E1
:1008B00076656C696E670A0028422961636B0028BF
:1008C0004629726F6E74002852296967687400287F
:1008D0004C29656674003F4E756D626572206F66C7
:1008E0002070726F626520706F696E747320697317
:1008F00020696D706C61757369626C6520283220A7
:100900006D696E696D756D292E0A003F285629653F
:1009100072626F7365206C6576656C2069732069FF
:100920006D706C61757369626C652028302D342997
:100930002E0A002569730025696D2025697300253D
:1009400069682025696D2025697300256964202563
:1009500069682025696D202569730025697920253E
:100960006964202569682025696D20256973004E1A
:100970006F204C696E65204E756D626572207769D7
:10098000746820636865636B73756D2C204C6173AC
:1009900074204C696E653A20004B494C4C45442EFE
:1009A000200053544F505045442E20005072696E21
:1009B0007465722073746F7070656420647565204F
:1009C000746F206572726F72732E2046697820747E
:1009D0006865206572726F7220616E642075736540
:1009E000204D39393920746F2072657374617274C7
:1009F0002E202854656D706572617475726520696A
:100A0000732072657365742E205365742069742099
:100A100061667465722072657374617274696E6761
:100A2000290A004E6F20436865636B73756D2077EC
:100A3000697468206C696E65206E756D6265722CD4
:100A4000204C617374204C696E653A2000636865C0
:100A5000636B73756D206D69736D617463682C20B1
:100A60004C617374204C696E653A20004C696E6568
:100A7000204E756D626572206973206E6F74204C14
:100A8000617374204C696E65204E756D6265722BC2
:100A9000312C204C617374204C696E653A20004DF6
:100AA000313130004D3331004D3834205820592039
:100AB0005A20450053442072656164206572726F4C
:100AC000720A00446F6E65207072696E74696E6799
:100AD0002066696C650A0020496E76616C69642045
:100AE00065787472756465722000000020C1000092
:100AF00000C00000000000003A4300002643000050
:100B0000124320706F736974696F6E206F75742063
:100B10006F662072616E67652E0A003F50726F62C9
:100B20006520001000C90210012C01400122017053
:100B3000011801B0010E01F00104015002FA00B0E9
:100B400002F0003003E600D003DC009004D2007015
:100B500005C800A006BE000008B400B009AA00D075
:100B60000BA000600E960060118C00001582002022
:100B7000197800C01D6E00A0226400B0275A0090B2
:100B80002C500000314600E0343C00103832009018
:100B90003A2800603C1E00A03D1400803E0A002060
:100BA0003F00006265640A002C2073797374656DE0
:100BB0002073746F7070656421204865617465727C
:100BC0005F49443A200048656174696E6720666138
:100BD000696C65640048656174696E672066616967
:100BE0006C65640048656174696E67206661696C54
:100BF00065640048656174696E67206661696C654B
:100C0000640070012C0190012701B0012201C00194
:100C10001D01F00118011002130130020E016002E3
:100C2000090190020401C002FF000003FA00400322
:100C3000F5008003F000D003EB002004E600700410
:100C4000E100E004DC004005D700C005D20040060A
:100C5000CD00D006C8008007C3003008BE00F008F1
:100C6000B900C009B400B00AAF00B00BAA00D00CA4
:100C7000A500000EA000500F9B00C010960050125F
:100C8000910000148C00C0158700B0178200B019C5
:100C90007D00D01B7800001E730040206E00902263
:100CA0006900F024640040275F0090295A00E02B7F
:100CB0005500102E500020304B0010324600E0331B
:100CC000410090353C001037370070383200A039B1
:100CD0002D00B03A2800A03B2300603C1E00103DD0
:100CE0001900903D1400103E0F00703E0A00C03EF7
:100CF0000500003F0000403FFBFF803FF6FFC03F84
:100D0000F1FF544845524D414C2052554E415741F8
:100D10005900546865726D616C2052756E6177611F
:100D200079004572723A204D494E54454D5020424B
:100D30004544004572723A204D494E54454D50008D
:100D40004D494E54454D5020747269676765726510
:100D500064004572723A204D415854454D5020422E
:100D60004544004572723A204D415854454D50005B
:100D70004D415854454D50207472696767657265DE
:100D8000640020204E6F7A7A6C653A20002000477C
:100D90006F204261636B004D696E696D756D205403
:100DA000656D70206973203137302E00486561749D
:100DB000696E67206661696C656400457874727558
:100DC0006465206D6F726500526573756D65207086
:100DD00072696E7400524553554D45204F50544929
:100DE0004F4E533A0020204E6F7A7A6C653A2000BD
:100DF0006368616E6765006F662074686520666968
:100E00006C616D656E74005761697420666F722045
:100E10007374617274005052494E542050415553BE
:100E200045440020204E6F7A7A6C653A20002000FD
:100E300066696C616D656E7420756E6C6F616400BF
:100E40005761697420666F72005052494E542050A9
:100E500041555345440020204E6F7A7A6C653A2004
:100E6000002000506C6561736520776169742E2ED7
:100E70002E0048656174696E67206E6F7A7A6C65C2
:100E8000005052494E5420504155534544002020B3
:100E90004E6F7A7A6C653A20002000686561742094
:100EA0006E6F7A7A6C652E0050726573732062756E
:100EB00074746F6E20746F005052494E542050412C
:100EC000555345440020204E6F7A7A6C653A2000D5
:100ED000746F20636F6E74696E75652E2E2E0061BF
:100EE0006E6420707265737320627574746F6E0027
:100EF000496E736572742066696C616D656E74000D
:100F00005052494E54205041555345440020204EE4
:100F10006F7A7A6C653A2000200066696C616D65B5
:100F20006E74206C6F6164005761697420666F7223
:100F3000005052494E542050415553454400202002
:100F40004E6F7A7A6C653A2000200066696C616D9C
:100F5000656E742065787472756465005761697494
:100F600020666F72005052494E54205041555345EF
:100F70004400746F20726573756D65005761697404
:100F800020666F72207072696E74005052494E5420
:100F9000205041555345440020746F6F206C6F6E94
:100FA0006720657874727573696F6E2070726576EC
:100FB000656E7465640A0020636F6C6420657874E4
:100FC000727573696F6E2070726576656E74656494
:100FD0000A004572726F722077726974696E6720B9
:100FE000746F20454550524F4D210A00290A0020B8
:100FF00062797465733B2063726320005365747477
:10100000696E67732053746F72656420280020280E
:1010100063616C63756C6174656429210A00202129
:101020003D2000454550524F4D20435243206D69AD
:10103000736D61746368202D202873746F7265640A
:10104000292000290A002062797465733B206372AD
:101050006320002073746F72656420736574746913
:101060006E67732072657472696576656420280006
:10107000204D61726C696E3D563339290A0028454E
:101080004550524F4D3D00454550524F4D207665DD
:101090007273696F6E206D69736D6174636820008F
:1010A00048617264636F6465642044656661756C51
:1010B000742053657474696E6773204C6F61646546
:1010C000640A008813000088130000640000009880
:1010D0003A000000009643000096430000204100C3
:1010E000008C420000A0420000A0420000C8440062
:1010F000000C4373657474696E67732E2020202082
:101100002020202020202020202020202020006FB0
:10111000766572777269746520746865206F6C6497
:10112000205049442020202020200054686520724F
:101130006573756C74732077696C6C202020202097
:101140002020202020200068656174696E6720706F
:101150006572666F726D616E63652E20202020209F
:101160002020006461746120746F206F7074696D59
:10117000697A652074686520202020202020007472
:10118000696D65732C20616E6420757365732074BE
:101190006865202020202020202000636F6F6C20B5
:1011A000646F776E206D756C7469706C652020209B
:1011B00020202020202000686F74656E6420686500
:1011C000617420757020616E642020202020202012
:1011D0002020006D696E757465732E204974206C33
:1011E00065747320746865202020202020200074FE
:1011F000616B6573207365766572616C20202020B9
:1012000020202020202020202020004175746F7491
:10121000756E652070726F6365647572652020203D
:10122000202020202020002D2D203F202D2D205457
:1012300068652050494420202020202020202020A4
:101240002020005374617274205049442041757409
:101250006F74756E6500476F204261636B004D339C
:1012600030332055312045256920532569004175CB
:10127000746F74756E6520696E2070726F67726529
:1012800073732E2020202020200074686520686F52
:1012900074656E642E205049442020202020202098
:1012A0002020202020002D2D2021202D2D20446FB6
:1012B0006E277420746F7563682020202020202002
:1012C000200041626F727420504944204175746F50
:1012D00074756E6500476F204261636B005049442E
:1012E000206175746F74756E6520696E2070726F01
:1012F00067726573732E004D3130342053300050C7
:101300004944206175746F74756E652061626F72F7
:10131000746564005049442D4B64005049442D4B82
:1013200064005049442D4B69005049442D4B6900DD
:101330005049442D4B70005049442D4B7000476F6D
:10134000204261636B005654726176206D696E00B5
:101350005654726176206D696E0056547261762023
:101360006D696E00566D696E00566D696E00566D42
:10137000696E00566D6178204500566D6178204594
:1013800000566D6178204500566D6178205A0056F0
:101390006D6178205A00566D6178205A00566D6153
:1013A00078205900566D6178205900566D6178207B
:1013B0005900566D6178205800566D6178205800AC
:1013C000566D6178205800476F204261636B004181
:1013D0006D6178204500416D6178204500416D6167
:1013E00078205A00416D6178205A00416D61782063
:1013F0005900416D6178205900416D617820580095
:10140000416D6178205800412D74726176656C00E1
:10141000412D74726176656C00412D726574726144
:10142000637400412D72657472616374004163637B
:10143000656C00416363656C00476F204261636BBC
:1014400000436172642072656D6F7665640043616C
:10145000726420696E736572746564004D6F7665A1
:10146000205A004D6F76652059004D6F76652058E3
:101470000041626F727400476F204261636B0048E5
:101480006F6D652058595A0047323820582059202E
:101490005A00486F6D65205900473238205900487E
:1014A0006F6D65205800473238205800476F204242
:1014B00061636B004578747275646572004D6F7678
:1014C00065205A004D333032205031004D6F766523
:1014D0002059004D6F7665205800476F20426163A8
:1014E0006B005A206F6666736574004D363030208D
:1014F0004230004368616E67652066696C616D65A6
:101500006E740046616E207370656564202825291D
:101510000046616E207370656564202825290042AD
:10152000656420280943290042656420280943296D
:10153000004E6F7A7A6C652028094329004E6F7A35
:101540007A6C65202809432900537065656420285A
:1015500025290053706565642028252900466C6F95
:10156000772028252900466C6F7720282529004CF4
:101570006976652061646A757374205A20686569AC
:1015800067687400476F204261636B0046616E209C
:101590007370656564202825290046616E2073708C
:1015A00065656420282529004265642028094329AF
:1015B000004265642028094329004E6F7A7A6C65E1
:1015C0002028094329004E6F7A7A6C652028094348
:1015D00029005370656564202825290053706565CE
:1015E000642028252900466C6F772028252900468D
:1015F0006C6F7720282529004C6976652061646A24
:10160000757374205A2068656967687400476F2095
:101610004261636B00582D6F726967696E20736554
:1016200074212020202020202020005049442054D4
:10163000756E696E670046616E2073706565642023
:101640002825290046616E20737065656420282571
:101650002900426564202809432900426564202846
:10166000094329004E6F7A7A6C65202809432900C6
:101670004E6F7A7A6C65202809432900476F204213
:1016800061636B00443A00493A00503A0043757276
:1016900072656E74205049442076616C7565733AAA
:1016A000202020202020202020202020202020203A
:1016B0000045646974205049442056616C75657317
:1016C00000504944204175746F74756E6500476F12
:1016D000204261636B005A203A204E6F742054728E
:1016E00069676765726564202020202020005A20E9
:1016F0003A20547269676765726564202020202053
:1017000020202020200059203A204E6F742054724F
:1017100069676765726564202020202020007A5F59
:101720006D696E3A200059203A20547269676765E6
:1017300072656420202020202020202020005820B6
:101740003A204E6F74205472696767657265642031
:10175000202020202000795F6D696E3A20005820FB
:101760003A205472696767657265642020202020E2
:10177000202020202000785F6D696E3A2000436CA5
:1017800069636B20746F2055706461746500004755
:101790006F204261636B0054657374205A2070722D
:1017A0006F626500473238205A002D5465737420EB
:1017B0005820616E642074657374205920202020A5
:1017C0002020002D5365747570205A2070726F624E
:1017D00065206865696768742020200021202050FA
:1017E0007265726571756973697465732020212053
:1017F0002020202000476F204261636B00546573F6
:1018000074205A2070726F62650054657374205999
:1018100020656E6473746F7000473238205900542D
:10182000657374205820656E6473746F700047325E
:1018300038205800476F204261636B00202D204301
:101840006C69636B20746F20636F6E74696E75656D
:10185000202D00746865206275696C6420706C616D
:1018600074652E20202020202000746865206C657F
:1018700066742065646765206F6620202020202024
:10188000006E6F7A7A6C65206F766572202020205A
:101890002020202020202000506F736974696F6E13
:1018A0002074686520202020202020202020004750
:1018B00030205A30205930205830004732380077D5
:1018C000686F6C65206275696C6420706C6174650A
:1018D0002E2020202020202000656E737572652048
:1018E000796F752063616E2075736520746865205B
:1018F00020003F20546869732070726F63656475BF
:1019000072652077696C6C2020202020005365745C
:1019100020582D6F726967696E00476F20426163BE
:101920006B006275696C6420706C6174652E202098
:10193000202020202020202020007468652072654F
:101940006D6F7661626C6520202020202020202091
:101950000021204D616B65207375726520746F20C6
:10196000696E736572742020200054657374206260
:101970006564206C6576656C696E67004732380A6D
:1019800047323900476F204261636B002E436C6918
:10199000636B20746F2073746F7020686561746965
:1019A0006E6720616E6420676F206261636B2074D4
:1019B0006F20507265666C69676874004D31303411
:1019C00020533530002E436C69636B20746F207395
:1019D000746F702068656174696E6720616E642041
:1019E000676F206261636B20746F20507265666C54
:1019F00069676874004D3134302053343000392E1B
:101A000020204C6F61642066696C616D656E7400A6
:101A1000382E20546573742066696C616D656E7430
:101A20002066616E73004D31303620533235350AF1
:101A300047342053310A4D31303620533133300A88
:101A400047342053310A4D31303620533000372E81
:101A500020546573742062656420686561746572E2
:101A60000031302E20456A6563742066696C616DB3
:101A7000656E7400362E2054657374206E6F7A7A0A
:101A80006C652068656174657200352E205465733D
:101A90007420626564206C6576656C696E670034DD
:101AA0002E20536574206F726967696E00332E2093
:101AB0005465737420656E6473746F707300322E96
:101AC00020456E6473746F70207374617475730055
:101AD000312E2054657374206D6F746F72730047DC
:101AE0006F204261636B00627573793A2070617593
:101AF00073656420666F7220696E7075740A006287
:101B00007573793A2070617573656420666F722011
:101B1000757365720A00627573793A2070726F632B
:101B2000657373696E670A004D363030004B494C5F
:101B30004C45442E20004B494C4C20636175736525
:101B400064206279204B494C4C20627574746F6E2E
:101B50002F70696E0A004B494C4C45442E20004BB7
:101B6000494C4C2063617573656420627920746F01
:101B70006F206D75636820696E6163746976652096
:101B800074696D65202D2063757272656E742063B3
:101B90006F6D6D616E643A2000506C6561736520F5
:101BA0007265736574005052494E54455220484145
:101BB0004C544544005072696E7465722068616CC3
:101BC0007465642E206B696C6C28292063616C6CD1
:101BD0006564210A00000020C1000000C000000070
:101BE0000000004842000048420000204100000080
:101BF000005761726E696E673A20486F6D696E6753
:101C00002042756D702044697669736F72203C20A4
:101C1000310A000202040000A0400000A0400000C1
:101C20000040000044430000284300001243FFFF2F
:101C3000FF4D36303020486F74656E6420746F6FCE
:101C400020636F6C6420746F206368616E67652029
:101C500066696C616D656E740A0056652D6A657201
:101C60006B0056652D6A65726B0056652D6A65724C
:101C70006B00567A2D6A65726B00567A2D6A657212
:101C80006B0056792D6A65726B0056792D6A657204
:101C90006B0056792D6A65726B0056782D6A6572F5
:101CA0006B0056782D6A65726B0056782D6A6572E6
:101CB0006B00476F204261636B00457374657073FE
:101CC0002F6D6D004573746570732F6D6D005A73C1
:101CD000746570732F6D6D005A73746570732F6D1A
:101CE0006D005973746570732F6D6D005973746551
:101CF00070732F6D6D005873746570732F6D6D0068
:101D00005873746570732F6D6D00476F2042616367
:101D10006B0053746570732F6D6D004A65726B00B4
:101D2000416363656C65726174696F6E0056656CC2
:101D30006F63697479005820686F6D65206F6666FF
:101D4000736574005820686F6D65206F66667365F3
:101D500074005A206F6666736574005A206F666659
:101D600073657400476F204261636B004D6F766549
:101D70002058004D3432380A4D353030004D6F76E2
:101D8000652058004D6F76652059004D6F766520AF
:101D90005A00437573746F6D206C656E67746820AC
:101DA000286D6D2900313030206D6D0020353020D8
:101DB0006D6D00203130206D6D00302E35206D6D41
:101DC00000437573746F6D206C656E6774682028AE
:101DD0006D6D290041626F7274206578747275733D
:101DE000696F6E00697473206F776E2073616B6525
:101DF0002E202020202020202020202020202020D5
:101E00002020200066726F6D206576656E207472EA
:101E100079696E673B20666F722020202020202089
:101E2000202020004A656C6C79424F58206973204D
:101E3000666F7262696464656E2020202020202015
:101E4000202020006772696E64696E672E20596FCA
:101E500075722020202020202020202020202020DB
:101E600020202000746F206A616D6D696E672061AB
:101E70006E642020202020202020202020202020D0
:101E8000202020006E6F7A7A6C652077696C6C2058
:101E90006F6E6C79206C65616420202020202020EA
:101EA0002020200066696C616D656E7420696E7417
:101EB0006F206120636F6C64202020202020202070
:101EC000202020002D2D203F202D2D20466F7263D5
:101ED000696E672020202020202020202020202024
:101EE00020202000757020746F206174206C656163
:101EF00073742031373009432E20202020202020E9
:101F00002020202000636F6C642E20506C6561736C
:101F100065206865617420697420202020202020BD
:101F20002020202000546865206E6F7A7A6C65202E
:101F3000697320746F6F2020202020202020202013
:101F40002020202000476F204261636B00000021A9
:101F500000240027002A002D00300033000101007A
:101F600000040107010A0100002200250028002BBF
:101F7000002E003100340002010000050108010BB1
:101F800001000020002300260029002C002F003231
:101F90000000010000030106010901050505050710
:101FA0000508080808020202020A0A0808040404D4
:101FB0000401010101010101010303030303030300
:101FC00003040707070C0C0C0C0C0C0C0C0202028F
:101FD0000206060606060606060B0B0B0B0B0B0B82
:101FE0000B01021020200808102040102040800221
:101FF000010201080402010102040810204080804F
:1020000040201008040201800402018040201008D2
:1020100004020108040201010204081020408001AA
:102020000204081020408000000A0B02090C0D0E6B
:102030000807030401000000000000000000000089
:102040000000000000000000000000000000000090
:10205000000000121110000000000000000000004D
:10206000000000000000000000000000004B494C90
:102070004C45442E2000202D20496E76616C696409
:10208000206578747275646572206E756D62657214
:1020900020210A002020506C616E6E6572427566C8
:1020A00066657242797465733A20002046726565F0
:1020B000204D656D6F72793A2000436F6D70696CC9
:1020C00065643A2044656320323020323031380A6A
:1020D00000207C20417574686F723A2028494D4178
:1020E00044453344290A00323031382D31322D3104
:1020F0003800204C61737420557064617465643AD3
:1021000020004A422D4D61726C696E2D322E302DA9
:102110005243342E332D640A004D61726C696E0097
:1021200020536F6674776172652052657365740A17
:1021300000205761746368646F672052657365742B
:102140000A002042726F776E206F7574205265739B
:1021500065740A002045787465726E616C20526562
:102160007365740A00506F77657255700A00737456
:102170006172740A006572726F7220777269746995
:102180006E6720746F2066696C650A00456E647323
:10219000746F7073202563202563202563202563D9
:1021A00000205A3A0020593A0020583A00656E64DF
:1021B00073746F7073206869743A2000446F6E65A1
:1021C00020736176696E672066696C652E0A004D22
:1021D0003239007C3C3E5E2B3D3F2F5B5D3B2C2A21
:1021E000225C004265642028094329004E6F7A7AF8
:1021F0006C652028094329007768696C6520696E41
:1022000020626574612074657374696E672E006F57
:102210006E20796F757220534420636172640027C9
:10222000536372697074732700506C656173652025
:102230006C61756E63682066726F6D00476F204237
:1022400061636B005045544700504C4100476F207C
:102250004261636B0045787472756465004D6F76FA
:102260006520617865730052656C65617365206DEA
:102270006F746F7273004D383400486F6D65005095
:102280007265666C6967687420436865636B0047B4
:102290006F204261636B004D3130342053300A4D62
:1022A000313430205330004D313034205331383008
:1022B0000A4D31343020533435004D313034205301
:1022C0003231300A4D31343020533535004D313004
:1022D0003420533233350A4D3134302053363500F3
:1022E000504C41202020202020202D203231302F22
:1022F000353520094300556E6976657273616C202F
:102300002D203138302F34352009430050455420DA
:102310002020202020202D203233352F3635200953
:102320004300437573746F6D202020202D203F2FB4
:102330003F20094300436F6F6C646F776E20202D40
:1023400020302F3020094300476F204261636B002B
:102350004D31303420533332350A47323820580A51
:102360004D383420580A4D3130392053323335201E
:102370000A4D383420450A4D333030205334343040
:1023800020503530300A473420503530300A4D3334
:102390003030205334343020503530300A4D302026
:1023A000496E736572742066696C616D656E742028
:1023B0006E6F770A4D313137204C6F6164696E67FB
:1023C0002066696C616D656E742E2E2E0A47393257
:1023D000204530200A4739310A4D313137204C6FC2
:1023E0006164696E672038306D6D2E2E2E0A47317C
:1023F00020463330302045350A4D3430300A4D31D7
:102400003137204C6F6164696E672037356D6D2EF2
:102410002E2E0A473120463330302045350A4D34C0
:1024200030300A4D313137204C6F6164696E67205E
:1024300037306D6D2E2E2E0A473120463330302036
:1024400045350A4D3430300A4D313137204C6F61FB
:1024500064696E672036356D6D2E2E2E0A47312049
:10246000463330302045350A4D3430300A4D313155
:1024700037204C6F6164696E672036306D6D2E2E8B
:102480002E0A473120463330302045350A4D34304E
:10249000300A4D313137204C6F6164696E672035E9
:1024A000356D6D2E2E2E0A473120463330302045B3
:1024B000350A4D3430300A4D313137204C6F61646C
:1024C000696E672035306D6D2E2E2E0A47312046FD
:1024D0003330302045350A4D3430300A4D313137F4
:1024E000204C6F6164696E672034356D6D2E2E2E21
:1024F0000A473120463330302045350A4D343030DC
:102500000A4D313137204C6F6164696E6720343079
:102510006D6D2E2E2E0A4731204633303020453542
:102520000A4D3430300A4D313137204C6F616469C7
:102530006E672033356D6D2E2E2E0A4731204632C0
:1025400037352045350A4D3430300A4D313137208A
:102550004C6F6164696E672033306D6D2E2E2E0ACC
:10256000473120463235302045350A4D3430300A67
:102570004D313137204C6F6164696E672032356DA3
:102580006D2E2E2E0A473120463232352045350A2F
:102590004D3430300A4D313137204C6F6164696EF3
:1025A000672032306D6D2E2E2E0A47312046323094
:1025B000302045350A4D3430300A4D313137204C0A
:1025C0006F6164696E672031356D6D2E2E2E0A475E
:1025D0003120463230302045350A4D3430300A4DF6
:1025E000313137204C6F6164696E672031306D6D19
:1025F0002E2E2E0A473120463230302045350A4DE6
:102600003430300A4D313137204C6F6164696E6768
:1026100020356D6D2E2E2E0A473120463230302067
:1026200045350A4D3430300A473120452D333020AE
:102630004632353030200A473930200A47393220B7
:1026400045300A4D38342045200A4D31303420536E
:10265000300A4D302046696C616D656E74206C6F78
:102660006164656421004D313039205332333520A7
:102670000A4D31313720456A656374696E6720669B
:10268000696C616D656E742E2E2E0A4739322045B5
:102690003930200A473931200A0A4D31313720506C
:1026A00072652D50757267696E672E2E2E0A47313E
:1026B0002046333530204531350A4D3131372045FC
:1026C0006A656374696E672036306D6D2E2E2E0A32
:1026D0004731204636353020452D350A4D343030CF
:1026E0000A4D31313720456A656374696E6720355C
:1026F000356D6D2E2E2E0A47312046363530204559
:102700002D350A4D3430300A4D31313720456A6558
:102710006374696E672035306D6D2E2E2E0A473139
:10272000204636353020452D350A4D3430300A4D9F
:1027300031313720456A656374696E672034356DC1
:102740006D2E2E2E0A4731204636353020452D3548
:102750000A4D3430300A4D31313720456A65637493
:10276000696E672034306D6D2E2E2E0A473120465B
:1027700037303020452D350A4D3430300A4D313157
:102780003720456A656374696E672033356D6D2E39
:102790002E2E0A4731204637353020452D350A4D3B
:1027A0003430300A4D31313720456A656374696EC3
:1027B000672033306D6D2E2E2E0A4731204638307B
:1027C0003020452D350A4D3430300A4D3131372017
:1027D000456A656374696E672032356D6D2E2E2EE5
:1027E0000A4731204638353020452D350A4D3430E2
:1027F000300A4D31313720456A656374696E672050
:1028000032306D6D2E2E2E0A473120463930302061
:10281000452D350A4D3430300A4D31313720456A67
:10282000656374696E672031356D6D2E2E2E0A47F3
:1028300031204639353020452D350A4D3430300AA7
:102840004D31313720456A656374696E67203130D8
:102850006D6D2E2E2E0A4731204631303030204506
:102860002D350A4D3430300A4D31313720456A65F7
:102870006374696E6720356D6D2E2E2E0A473120E8
:10288000463130303020452D350A4D3430300A4D38
:1028900038342045200A4D33303020533434302032
:1028A00050353030200A473420503530300A4D330F
:1028B000303020533434302050353030200A4739FE
:1028C00030200A473932204530200A4D313034203B
:1028D0005330200A4D3020556E6C6F636B20616E53
:1028E000642070756C6C206F7574210043616C6995
:1028F000627261746520317374206C617965720055
:10290000456A6563742066696C616D656E7400501C
:10291000726568656174004C6F61642066696C6102
:102920006D656E7400476F204261636B004D3432F9
:10293000380000060900FE070192032120FFFF086E
:10294000FF07FF00000006000001070706020080E5
:10295000808080800080030202060105A0A0050798
:10296000070600005050F850F850500507070600C1
:10297000002078A07028F020050707060000C0C8D6
:1029800010204098180507070600006090A040A896
:102990009068020303060104C04080030707060194
:1029A000002040808080402003070706010080400F
:1029B000202020408005050506000120A870A820E1
:1029C0000505050600012020F82020020303060269
:1029D000FFC04080050101060003F8020202060262
:1029E00000C0C0050505060001081020408005074D
:1029F000070600007088888888887003070706012A
:102A00000040C040404040E00507070600007088D5
:102A100008708080F8050707060000F810201008ED
:102A200008F005070706000010305090F810100558
:102A30000707060000F880F00808887005070706F9
:102A40000000708080F0888870050707060000F895
:102A500008102020202005070706000070888870D5
:102A60008888700507070600007088887808087055
:102A7000020505060200C0C000C0C002060606022C
:102A8000FFC0C000C04080040707060000102040BF
:102A900080402010050303060002F800F804070731
:102AA0000601008040201020408005070706000036
:102AB00070880810200020050707060000708808AD
:102AC00068A8A870050707060000708888F888883D
:102AD00088050707060000F08888F08888F0050759
:102AE0000706000070888080808870050707060050
:102AF00000F08888888888F0050707060000F880BD
:102B000080F08080F8050707060000F88080F080DC
:102B10008080050707060000708880B888887005E7
:102B20000707060000888888F88888880107070654
:102B300002008080808080808005070706000038C2
:102B40001010101090600507070600008890A0C0C4
:102B5000A09088050707060000808080808080F8AC
:102B600005070706000088D8A88888888805070711
:102B70000600008888C8A89888880507070600000E
:102B800070888888888870050707060000F08888A4
:102B9000F080808005070706000070888888A8906C
:102BA00068050707060000F08888F0A090880507F0
:102BB00007060000788080700808F0050707060007
:102BC00000F8202020202020050707060000888824
:102BD00088888888700507070600008888888888A4
:102BE00050200507070600008888888888A85005B7
:102BF00007070600008888502050888805070706C8
:102C0000000088888850202020050707060000F86B
:102C10000810204080F8030707060100E08080804C
:102C20008080E005050506000180402010080307AC
:102C300007060100E02020202020E0050303060015
:102C400004205088050101060000F8020202060275
:102C5000058040050505060000700878887805079E
:102C6000070600008080B0C88888F00505050600CA
:102C700000708080887005070706000008086898C3
:102C80008888780505050600007088F880700507BB
:102C9000070600003048E0404040400506060600B8
:102CA000FF7088887808700507070600008080B0EC
:102CB000C88888880107070602008000808080801D
:102CC000800308080601FF200020202020A04004E7
:102CD0000707060000808090A0C0A09003070706A9
:102CE0000100C04040404040E0050505060000D01E
:102CF000A8A8A8A8050505060000B0C8888888050A
:102D0000050506000070888888700506060600FF25
:102D1000F08888F080800506060600FF78888878AD
:102D20000808050505060000B0C880808005050577
:102D300006000070807008F004070706000040409D
:102D4000E040404030050505060000888888986806
:102D50000505050600008888885020050505060041
:102D6000008888A8A8500505050600008850205056
:102D7000880506060600FF8888887808700505051E
:102D8000060000F8102040F8030707060100204065
:102D9000408040402001070706020080808080803C
:102DA00080800307070601008040402040408005E6
:102DB0000202060002689000000006000000000009
:102DC00006000000000006000000000006000000F1
:102DD00000000600000000000600000000000600E1
:102DE00000000000060000000000060000000000D7
:102DF00006000000000006000000000006000000C1
:102E000000000600000000000600000000000600B0
:102E100000000000060000000000060000000000A6
:102E20000600000000000600000000000600000090
:102E30000000060000000000060000000000060080
:102E40000000000006000000000006000000000076
:102E50000600000000000600000000000600000060
:102E60000000060000000000060000000000060050
:102E70000000000006000000000006000000000046
:102E80000600000107070602008000808080808025
:102E90000507070600002070A8A0A87020050707F6
:102EA000060000304040E04050A80505050600003F
:102EB0008870507088050707060000885020F820A9
:102EC000F8200107070602008080800080808005CE
:102ED000080806000030482050502090600301018F
:102EE000060107A0050707060000F888B8B8B888EB
:102EF000F8050707060001700878887800F80505CE
:102F0000050600012850A05028050303060001F81B
:102F100008080202020602064080050707060000B4
:102F2000F888A88898A8F8050101060006F80404A6
:102F3000040600036090906005070706000020204B
:102F4000F8202000F804050506000360902040F0FA
:102F5000030505060003E020E020E002020206026D
:102F60000640800508080600FF8888888898E88061
:102F7000800507070600007898987818181802024C
:102F800002060202C0C00202020602FF40800305E0
:102F90000506000340C04040E00507070600017039
:102FA0008888887000F8050505060001A0502850A3
:102FB000A00507070600008890A858B8080805076C
:102FC000070600008890B8489820380508080600D1
:102FD00000C040C048D83808080507070600002090
:102FE000002040808870050808060000402000701E
:102FF00088F888880508080600001020007088F806
:1030000088880508080600002050007088F8888825
:103010000508080600006890007088F88888050890
:10302000080600005000708888F88888050808069F
:1030300000002050207088F88888050707060000E7
:103040003860A0B8E0A0B80508080600FF708880C6
:103050008088702060050808060000402000F88085
:10306000F080F8050808060000081000F880F080DD
:10307000F8050808060000205000F880F080F805E8
:1030800007070600005000F880F080F803080806E3
:103090000100804000E0404040E0030808060100D5
:1030A000204000E0404040E003080806010040A046
:1030B00000E0404040E0030707060100A000E040B8
:1030C0004040E0050707060000704848E84848709F
:1030D00005080806000068900088C8A898880508B8
:1030E0000806000040207088888888700508080657
:1030F0000000102070888888887005080806000085
:1031000020500070888888700508080600006890C4
:1031100000708888887005080806000050007088D4
:1031200088888870050505060001885020508805AC
:1031300008080600FF1070A8A8A8A8704005080895
:1031400006000040208888888888700508080600E6
:1031500000102088888888887005080806000020EC
:10316000500088888888700508080600005000888C
:10317000888888887005080806000010208850207C
:103180002020200509090600FFC040704848704013
:1031900040E00408080601FF609090A09090E08055
:1031A00005080806000040200070087888780508A7
:1031B00008060000102000700878887805080806C6
:1031C0000000205000700878887805080806000084
:1031D000689000700878887805070706000050009E
:1031E00070087888780508080600002050207008CC
:1031F000788878050606060000D02878A0A8500533
:1032000006060600FF70808870206005080806002A
:10321000004020007088F880700508080600001043
:1032200020007088F8807005080806000020500013
:103230007088F8807005070706000050007088F855
:10324000807003080806010080400040C04040E054
:1032500003080806010020400040C04040E0030889
:103260000806010040A00040C04040E003070706F8
:103270000100A00040C04040E0050707060000A094
:1032800040A010788870050808060000689000B01B
:10329000C8888888050808060000402000708888D3
:1032A0008870050808060000102000708888887063
:1032B00005080806000020500070888888700508FE
:1032C0000806000068900070888888700507070667
:1032D00000005000708888887005050506000120F0
:1032E00000F800200507070600FF1070A8A8A870C6
:1032F0004005080806000040200088888898680576
:1033000008080600001020008888889868050808CA
:103310000600002050008888889868050707060086
:1033200000500088888898680509090600FF102069
:1033300000888888F808700407070601FFC040600D
:10334000506040E00508080600FF50008888887833
:103350000870486F6D652025732573257320666995
:10336000727374002066697273740A005A005900FF
:103370005800486F6D6520005344206361726420DB
:103380006F6B0A006F70656E526F6F7420666169B3
:103390006C65640A00766F6C756D652E696E697474
:1033A000206661696C65640A00534420696E697423
:1033B000206661696C0A006175746F25692E67006B
:1033C0004D3234004D3233202573005772697469D1
:1033D0006E6720746F2066696C653A20006F7065B7
:1033E0006E206661696C65642C2046696C653A20C4
:1033F000006F70656E206661696C65642C2046699B
:103400006C653A200046696C652073656C65637471
:1034100065640A002053697A653A200046696C6544
:10342000206F70656E65643A20006F70656E20666F
:1034300061696C65642C2046696C653A20002066E1
:10344000696C653A20004E6F7720002220706F7300
:10345000002220706172656E743A22005355425208
:103460004F5554494E452043414C4C20746172677E
:1034700065743A22004B494C4C45442E200074722E
:1034800079696E6720746F2063616C6C207375625C
:103490002D67636F64652066696C65732077697456
:1034A0006820746F6F206D616E79206C6576656C35
:1034B000732E204D4158206C6576656C2069733AF7
:1034C000004572726F723A0025753A2530327500E8
:1034D000253032753A253032750025756420253047
:1034E00032753A25303275005A00590058000920CB
:1034F000000000000000000000000000007FFFE06E
:103500000000000000000000000000007000E0006B
:10351000000000000000000000000061F8600000F2
:103520000000000000000000000041F82000000042
:1035300000000000000000000040F020000000003B
:1035400000000000000000004060200000000000BB
:10355000000000000000005801A07F800000000073
:103560000000004104005C63A0FFC00000000000F8
:1035700000002082005EF7A0FFC0000000000000F5
:10358000002082005EF7A0FFC000000000000000E5
:103590004104005C63A07F80000000000000008206
:1035A00008005801A07F8000000000000001041006
:1035B00000406020FFC00000000000000104100077
:1035C00040F020FFC0000000000000008208004121
:1035D000F820FFC00000000000000041040061F876
:1035E000603F00000000000000000000007000E0EC
:1035F0001E0000000000000001FFFF807FFFE00CC4
:103600000000000000000001FFFF8000000000003B
:10361000000000000000000000007FFFE00000004C
:103620000000000000000000007000E0000000004A
:103630000000000000000000630C600000000000BB
:1036400000000000000000470E2000000000000005
:103650000000000000004F0F2000000000000000EC
:1036600000000000005F0FA000000000000000004C
:10367000000000005E07A07F800000000000000046
:10368000410400406020FFC0000000000000002056
:10369000820040F020FFC0000000000000002082F7
:1036A0000040F020FFC000000000000000410400C6
:1036B0004060207F80000000000000008208005E63
:1036C00007A07F80000000000000010410005F0FD1
:1036D000A0FFC0000000000000010410004F0F20F8
:1036E000FFC000000000000000820800470E20FF1D
:1036F000C000000000000000410400630C603F00B7
:10370000000000000000000000007000E01E00004B
:10371000000000000001FFFF807FFFE00C000000C0
:103720000000000001FFFF800000004D3134302018
:103730005330004D313034205330004A656C6C7981
:10374000424F582069732072656164790000060950
:1037500000FE000000000001090008FE000005084E
:103760000806000040F0C888889878100508080608
:103770000000C0F88888888888F8050505060001DB
:103780002030F830200508080600002070F82020BE
:103790002020E00509090600FF2070A8A8B8888845
:1037A00070200509090600FFE080C0B0A828302875
:1037B000280509090600FFF8A88888888888A8F8DD
:1037C000050A0A0600FE205050505088A8A88870AC
:1037D00003030306000340A0405A2070726F626525
:1037E000206F75742E206265640A005A2070726F13
:1037F0006265206F75742E20626564004732382040
:103800005A20466F7262696464656E0A00473238F6
:10381000205A20466F7262696464656E00205A3ACD
:10382000200020593A200042656420583A20004385
:10383000616E6E6F74206F70656E2073756264695F
:10384000722000656E7175657565696E672022006E
:103850006563686F3A004A656C6C79424F5820691D
:10386000732072656164792E00526573756D696E9F
:1038700067207072696E7400436C69636B20746FAB
:1038800020726573756D652E2E2E004E6F206D6F44
:1038900076652E0050726F7465637465642050699C
:1038A0006E0A005374616E646172642044657669C7
:1038B0006174696F6E3A20002052616E67653A202C
:1038C00000204D61783A2000204D696E3A20004D6D
:1038D00065616E3A200046696E697368656421000F
:1038E0002072616E67653A2000206D61783A200091
:1038F000206D696E3A2000207369676D613A20007F
:10390000206D65616E3A20003A207A3A2000206FDF
:10391000662000205A00205900205800476F696E29
:103920006720746F3A00436C6F636B776973650A45
:1039300000436F756E7465722D0020446972656373
:1039400074696F6E3A2000202020616E676C653AC2
:1039500020005374617274696E67207261646975C6
:10396000733A2000506F736974696F6E696E6720D7
:103970007468652070726F62652E2E2E0A003F4EAD
:10398000756D626572206F66206C65677320696E65
:10399000206D6F76656D656E74206E6F7420706C2F
:1039A00061757369626C652028302D3135292E0AC6
:1039B00000590058003F53616D706C652073697A3F
:1039C00065206E6F7420706C61757369626C652020
:1039D00028342D3530292E0A004D3438205A2D50E8
:1039E000726F6265205265706561746162696C69AD
:1039F000747920546573740A003F285629657262F1
:103A00006F7365206C6576656C20697320696D70D5
:103A10006C61757369626C652028302D34292E0A1B
:103A200000466163746F7279205265736574004754
:103A30006F204261636B0064656661756C74732E00
:103A40002020202020202020202020202020202076
:103A50002020202020202000746865697220666183
:103A600063746F72792020202020202020202020C5
:103A700020202020202020200068617665206265BB
:103A8000656E20726573657420746F20202020207D
:103A900020202020202020202000537563636573A0
:103AA000732120416C6C2073657474696E67732098
:103AB00020202020202020202020004D3530320AD8
:103AC0004D3530300076616C7565732E20202020D6
:103AD00020202020202020202020202020200072B4
:103AE0006573657420746F2064656661756C7420FD
:103AF000202020202020202000452D737465707325
:103B00002C2077696C6C20626520202020202020EA
:103B100020200073657474696E67732C206C696B68
:103B20006520504944206F722020202000534420FB
:103B3000636172642C2062757420616C6C2020209B
:103B400020202020202000746F20796F757220665D
:103B5000696C6573206F6E207468652020202020BA
:103B6000004E6F7468696E672077696C6C206861BD
:103B70007070656E202020202020006D656D6F72B2
:103B8000792028454550524F4D292E2020202020B5
:103B9000202020200074686520696E7465726E6153
:103BA0006C2073657474696E677320202020004652
:103BB0006163746F727920726573657420776970C0
:103BC00065732020202020200072657365742079A1
:103BD0006F7572204A656C6C79424F582E202020F8
:103BE000202000686F6C6420666F7220352073653A
:103BF000636F6E647320746F20202020002752654D
:103C0000736574212720627574746F6E20616E6411
:103C1000202020202020002D2D203F202D2D205041
:103C20007265737320746865202020202020202076
:103C3000005265736574212028636C69636B2026CC
:103C400020686F6C64290000476F204261636B003D
:103C500044616E676572205A6F6E65004D6F7469BE
:103C60006F6E0054656D70657261747572650047A2
:103C70006F204261636B0043616E6E6F7420656EEE
:103C8000746572207375626469723A2000022E2E88
:103C900000476F204261636B0020204D3835312092
:103CA0005A005A2D50726F6265204F6666736574B4
:103CB00020286D6D293A0A00204400204900202068
:103CC0004D3330312050005049442073657474697D
:103CD0006E67733A0A002046002042002048002008
:103CE000204D3134352053004D6174657269616C2B
:103CF0002068656174757020706172616D657465AE
:103D000072733A0A0020204D34323020530041753E
:103D1000746F20426564204C6576656C696E673A05
:103D20000A00205A0020590020204D3230362058F9
:103D300000486F6D65206F66667365743A0A0020EF
:103D40004500205A002059002058002042002054ED
:103D50000020204D323035205300416476616E637F
:103D600065643A20533C6D696E5F66656564726197
:103D700074653E20543C6D696E5F74726176656C4B
:103D80005F66656564726174653E20423C6D696E74
:103D90005F7365676D656E745F74696D655F6D7384
:103DA0003E20583C6D61785F78795F6A65726B3E42
:103DB000205A3C6D61785F7A5F6A65726B3E204580
:103DC0003C6D61785F655F6A65726B3E0A002054E6
:103DD0000020520020204D323034205000416363D7
:103DE000656C65726174696F6E2028756E69747395
:103DF0002F7332293A20503C7072696E745F616390
:103E000063656C3E20523C726574726163745F61DD
:103E10006363656C3E20543C74726176656C5F61CF
:103E20006363656C3E0A00204500205A002059005B
:103E300020204D3230312058004D6178696D756D0C
:103E400020416363656C65726174696F6E202875CB
:103E50006E6974732F7332293A0A00204500205A84
:103E60000020590020204D3230332058004D617819
:103E7000696D756D2066656564726174657320286F
:103E8000756E6974732F73293A0A00204500205A11
:103E90000020590020204D3932205800537465709D
:103EA000732070657220756E69743A0A0020204D87
:103EB0003230302044300A0020204D32303020444F
:103EC000002044697361626C65640A0046696C6134
:103ED0006D656E742073657474696E67733A002043
:103EE000204D3134392043203B20556E69747320B6
:103EF000696E2043656C736975730A002020473230
:103F000031202020203B20556E69747320696E207B
:103F10006D6D0A0066696C616D656E743A20007A99
:103F20005F6D696E3A2000795F6D696E3A200078A6
:103F30005F6D696E3A20005265706F7274696E67CA
:103F400020656E6473746F70207374617475730A86
:103F50000024F4D43050C38E20C2A24017828B704C
:103F600011127A910D816CD90AA861E108C75866CF
:103F700007615143061E4B5D05C145A7041A411157
:103F800004093D9803713931034036DB02653391F2
:103F900002D4305402802E1D02632CEE01752AC516
:103FA00001B028A001102781018F2564012B244B2B
:103FB00001E0223401AC211F018D200D01801FFC86
:103FC00000841EED00971DDF00B81CD200E61BC662
:103FD00000201BBC00641AB200B219A8000A19A084
:103FE000006A189900D117910040178B00B516840C
:103FF0000031167E00B31579003A157300C7146FAF
:104000000058146A00EE1366008813630025135EDF
:1040100000C7125B006C12570015125400C11151F9
:104020000070114F0021114B00D61049008D104730
:10403000004610440002104200C00F4000800F3EB6
:1040400000420F3C00060F3B00CB0E3800930E37AA
:10405000005C0E3500270E3400F30D3200C10D3127
:1040600000900D3000600D2E00320D2D00050D2C3E
:1040700000D90C2B00AE0C2900850C29005C0C2704
:1040800000350C27000E0C2600E80B2400C40B247E
:1040900000A00B23007D0B23005A0B2100390B21BC
:1040A00000180B2000F80A1F00D90A1E00BB0A1EC8
:1040B000009D0A1D00800A1D00630A1C00470A1BA0
:1040C000002C0A1B00110A1A00F7091A00DD091951
:1040D00000C4091900AB091900920917007B0918DF
:1040E00000630917004C091600360916002009164E
:1040F000000A091500F5081500E0081400CC0814A2
:1041000000B8081400A4081400900813007D0812D9
:10411000006B0813005808120046081200340811FA
:1041200000230811001208110001081100F0071007
:1041300000E0071000D0071000C0071000B0070F04
:1041400000A107100091070E0083070F0074070FEE
:104150000065070E0057070E0049070E003B070DCC
:10416000002E070E0020070D0013070D0006070D97
:1041700000F9060C00ED060D00E0060C00D4060C5C
:1041800000C8060C00BC060C00B0060C00A4060B10
:104190000099060C008D060B0082060B0077060BBB
:1041A000006C060B0061060A0057060B004C060A5D
:1041B0000042060A0038060A002E060A0024060AF3
:1041C000001A060A001006090007060A00FD050984
:1041D00000F4050900EB050900E2050900D905090D
:1041E00000D0050900C7050900BE050900B505088E
:1041F00000AD050800A50509009C05080094050808
:10420000008C050800840508007C0508007405087A
:10421000006C050700650508005D050700560508E8
:10422000004E050700470507004005080038050750
:1042300000310507002A050700230507001C0506B5
:1042400000160507000F0507000805060002050710
:1042500000FB040600F5040700EE040600E804066F
:1042600000E2040700DB040600D5040600CF0406C4
:1042700000C9040600C3040600BD040600B7040616
:1042800000B1040500AC040600A6040600A0040565
:10429000009B04060095040500900406008A0405AE
:1042A0000085040500800406007A040500750405F5
:1042B00000700405006B0405006604050061040538
:1042C000005C04050057040500520405004D040578
:1042D0000048040500430405003E0404003A0405B8
:1042E0000035040500300404002C040500270404F4
:1042F00000230405001E0404001A0404001604052B
:1043000000110404000D0404000904050004040461
:104310000000040400FC030400F8030400F4030498
:1043200000F0030400EC030400E8030400E40304C9
:1043300000E0030400DC030400D8030400D40304F9
:1043400000D0030400CC030400C8030300C503032A
:104350000024F404D9201BC40C5C0E9804C4095F2B
:104360000265077101F405F900FB04B300480487F6
:1043700000C10369005803550003034500BE023A1B
:10438000008402310053022A002902250004022081
:1043900000E4011C00C8011900AF011700980114C6
:1043A0000084011300710110006101100051010E21
:1043B0000043010D0036010B002B010B0020010B07
:1043C00000150109000C01090003010800FB0008A9
:1043D00000F3000800EB000700E4000600DE000622
:1043E00000D8000600D2000600CC000500C700057A
:1043F00000C2000500BD000400B9000400B50004BF
:1044000000B1000400AD000400A9000400A50003F1
:1044100000A20003009F0004009B0003009800031B
:10442000009500020093000300900003008D00023D
:10443000008B000300880002008600020084000355
:1044400000810002007F0002007D0002007B00026C
:10445000007900020077000100760002007400027B
:104460000072000100710002006F0002006D000187
:10447000006C0002006A0001006900020067000190
:104480000066000100650001006400020062000196
:104490000061000100600001005F0002005D00019A
:1044A000005C0001005B0001005A0001005900019E
:1044B000005800010057000100560001005500019E
:1044C000005400010053000000530001005200019D
:1044D0000051000100500001004F0001004E00009B
:1044E000004E0001004D0001004C0001004B000097
:1044F000004B0001004A0001004900010048000093
:10450000004800010047000100460000004600018D
:104510000045000000450001004400010043000088
:104520000043000100420000004200010041000081
:104530000041000100400001003F0000003F000179
:10454000003E0000003E0001003D0000003D000173
:10455000003C0000003C0000003C0001003B00006B
:10456000003B0001003A0000003A00010039000061
:104570000039000100380000003800000038000158
:104580000037000000370001003600000036000050
:104590000036000100350000003500000035000144
:1045A000003400000034000000340001003300003B
:1045B0000033000000330001003200000032000030
:1045C0000032000100310000003100000031000124
:1045D000003000000030000000300001002F00001B
:1045E000002F0000002F0000002F0001002E00000F
:1045F000002E0000002E0001002D0000002D000004
:10460000002D0000002D0001002C0000002C0000F7
:10461000002C0000002C0001002B0000002B0000EB
:10462000002B0000002B0001002A0000002A0000DF
:10463000002A0000002A00010029000000290000D3
:1046400000290000002900000029000100280000C6
:1046500000280000002800000028000000280001B9
:1046600000270000002700000027000000270000AE
:1046700000270001002600000026000000260000A0
:104680000026000000260001002500000025000093
:104690000025000000250000002500000025000185
:1046A000002400000024000000240000002400007A
:1046B000002400010023000000230000002300006C
:1046C000002300000023000000230000002300015D
:1046D0000022000000220000002200000022000052
:1046E0000022000000220001002100000021000043
:1046F0000021000000210000002100000021000036
:104700000021000100200000002000000020000027
:104710000020000000200000002000000020000019
:1047200000200001001F0000001F0000001F00000B
:10473000001F0000001F0000001F0000001F0001FC
:10474000001E0000001E0000001E0000001E0000F1
:10475000004D383420582059205A204500000000D0
:104760000000000000000000C00000000000000089
:104770000001E0000000000000000007F800000059
:1047800000000000001FFE00000000000000007E8E
:104790001F8000000000000000F807C3603043F1F4
:1047A000FDFBF0E1E0C37070E3FDFDFBF8E3F043D7
:1047B0007070E30F80330CE7390378F1B303807333
:1047C00006E6198378F1B303F8FB066619C36DB3E7
:1047D0001B03F81F062739C36FB3FB07800F0EC3F7
:1047E000F1C367371F0F819F1CE1E1C3673E0FFDD7
:1047F000FDFBF8F807C3623C03F1FC63F07E1F8009
:10480000000000000000001FFE000000000000008B
:104810000007F8000000000000000001E0000000B8
:10482000000000000000C0000000000000000000C8
:104830000000000000000000004361703A454D4553
:104840005247454E43595F5041525345523A300A00
:10485000004361703A434153455F4C494748545FB8
:104860004252494748544E4553533A300A00436137
:10487000703A544F47474C455F4C49474854533A68
:10488000300A004361703A534F4654574152455FD6
:10489000504F5745523A300A004361703A4C4556E2
:1048A000454C494E475F444154413A310A00436107
:1048B000703A5A5F50524F42453A310A0043617094
:1048C0003A4155544F4C4556454C3A310A004361E4
:1048D000703A5052494E545F4A4F423A310A0043AF
:1048E00061703A50524F47524553533A300A004391
:1048F00061703A4155544F5245504F52545F5445A0
:104900004D503A310A004361703A454550524F4D7F
:104910003A310A004649524D574152455F4E414D8A
:10492000453A4D61726C696E204A422D4D61726C40
:10493000696E2D322E302D5243342E332D642028B3
:104940006769746875622E636F6D2F696D61646548
:1049500033642F4D61726C696E2F72656C65617383
:1049600065732920534F555243455F434F44455F7C
:1049700055524C3A68747470733A2F2F6769746893
:1049800075622E636F6D2F494D41444533442F4D61
:1049900061726C696E2050524F544F434F4C5F56BA
:1049A000455253494F4E3A312E30204D41434849EC
:1049B0004E455F545950453A4A656C6C79424F58A0
:1049C0002045585452554445525F434F554E543A32
:1049D0003120555549443A63656465326132662D2C
:1049E000343161322D343734382D396231322D6310
:1049F00035356336326633363766660A002F2F2028
:104A00000053657474696E672054726176656C201A
:104A1000416363656C65726174696F6E3A2000531F
:104A2000657474696E6720526574726163742041A5
:104A30006363656C65726174696F6E3A20005365DB
:104A40007474696E67205072696E74204163636587
:104A50006C65726174696F6E3A2000536574746995
:104A60006E67205072696E7420616E6420547261AA
:104A700076656C20416363656C65726174696F6E05
:104A80003A2000205A00205900580020204D61781B
:104A90003A2000205A00205900580020204D696E0D
:104AA0003A20004F6E20004F666600536F667420F8
:104AB000656E6473746F70733A20003A20007A5FF9
:104AC0006D696E3A20202D3230207A5F6D61783A20
:104AD00020203230005A206F666673657420004EC5
:104AE0006F2063617365206C696768740A00004514
:104AF0007874727564656420746F74616C3A200018
:104B0000256C642E25696D00004C6F6E67657374AB
:104B1000206A6F622074696D653A200000546F74DA
:104B2000616C207072696E742074696D653A200042
:104B3000436F6D706C657465643A20005072696EE5
:104B40007420436F756E743A2000506F7765722041
:104B5000537570706C793A2047656E6572696300B1
:104B600050726F746F636F6C3A20312E3000426167
:104B700075643A203235303030300052414D505358
:104B800020312E3400494D41444533442F4D61724C
:104B90006C696E00687474703A2F2F676974687559
:104BA000622E636F6D2F00534F555243452055526F
:104BB0004C3A00323031382D31322D3138004449F1
:104BC00053545249425554494F4E20444154453A5A
:104BD0000068656174656420626564004A656C6C98
:104BE00079424F5820322E30004A454C4C59424FA2
:104BF000582056415249414E543A004A422D4D6187
:104C0000726C696E2D322E302D5243342E332D644A
:104C1000004649524D574152452056455253494F3F
:104C20004E3A00696D61646533642E636F6D2F7356
:104C30007570706F727400666F72756D2E696D613C
:104C4000646533642E636F6D00646F63732E696DEA
:104C500061646533642E636F6D0041626F7574200B
:104C600074686973204A656C6C79424F5800476FCD
:104C7000204261636B005072696E746572205374D8
:104C800061747300426F61726420496E666F0050F8
:104C900072696E74657220496E666F00476F2042BC
:104CA00061636B00202F002042403A0020403A0010
:104CB0004A656C6C79424F58204F66662E00205A28
:104CC0003A0020593A0020436F756E7420583A001C
:104CD00020453A00205A3A0020593A00583A0047F5
:104CE00032380A4D3834005072696E742070617524
:104CF000736564004D31323500004D32340050721E
:104D0000696E742061626F727465640053746F70B1
:104D1000207072696E74005072696E742066726FD2
:104D20006D205344206361726400526573756D6534
:104D3000207072696E7400506175736520707269BD
:104D40006E74004E6F2053442063617264202020F3
:104D500020202020202020202020202020005375EB
:104D600070706F72740053657474696E6773004D70
:104D700061696E74656E616E6365004D6174657224
:104D800069616C005072696E742061646A75737435
:104D90006D656E747300486F6D6520262052656CDA
:104DA00065617365005072696E742061646A757321
:104DB000746D656E747300476F204261636B0052BF
:104DC0006573656E643A20006F6B0000DE00DC00E6
:104DD00011241FBECFEFD1E2DEBFCDBF00E00CBF7C
:104DE00014E0A0E0B2E0E8E9F1E902E00BBF02C0A4
:104DF00007900D92A830B107D9F724E1A8E0B4E0FC
:104E000001C01D92AB3EB207E1F716E2C7EED6E253
:104E100000E006C021970109802FFE010F9435485C
:104E2000C63ED10780E00807A9F70F9404310D941E
:104E3000BB480C9400002F923F924F925F926F926A
:104E40007F928F929F92AF92BF92CF92DF92EF921A
:104E5000FF920F931F93CF93DF93CDB7DEB7C35A63
:104E6000D1090FB6F894DEBF0FBECDBF0091FF078A
:104E700020E6029F800111240158194F8091B4054A
:104E800080FF1AC0E0E5F8E384917F013FEFE31A69
:104E9000F30A811102C0780104C00E947564F70111
:104EA000F3CFD7018D917D01882319F00E9475649D
:104EB000F8CF8AE00E94756481E090E09093E3056A
:104EC0008093E20510922704109226048FE38093CA
:104ED000300410922F0410922E041092220410928B
:104EE00023041092240410922504F80180810F5F9E
:104EF0001F4F8032D1F38E34B1F4818190ED980F41
:104F00009A3020F08D3211F08B3269F43296DF0145
:104F100031962C9120532A30D0F3CD01FC0101961B
:104F200020812032D9F3F093CD05E093CC057F01A9
:104F3000BFEFEB1AFB0A10816AE270E0C7010F9421
:104F40008348009731F0FC01319780818032E1F392
:104F500011821D3429F0143519F0173409F0CBC033
:104F6000F70180812FEFE21AF20A8032C9F38053F1
:104F70008A3008F0C0C01093300420912E04309184
:104F80002F044AE03196429FC001439F900D1124A7
:104F9000DF0111972C91022E000C330B20533109A5
:104FA000280F391F808180538A3060F330932F049B
:104FB00020932E04DF0131968C918032D9F31D3479
:104FC000D1F42E31310591F03CF42731310571F0E7
:104FD0002C31310581F40AC02537310564F02737BB
:104FE000310524F0203A43E0340729F4B093270434
:104FF000A093260480C010922704109226040091EA
:10500000CC0561E070E0FD0131968C91882309F4B4
:1050100072C08132A1F41D3491F42032310579F44B
:10502000F0932704E093260463E270E0CF010F942D
:105030008348009709F45FC0DC011C925CC09FEBC1
:10504000D92ED80E49E1C42ECD14C0F1AF01FA011A
:1050500090814F5F5F4F9032D1F340ED490F4A305E
:1050600040F043ED490F423020F09B3211F00C9498
:105070001D40AF01AD2CB12C7501B3E0F594E79460
:10508000BA95E1F7C7018E5D9B4F7C018D2D87702E
:10509000DB0102C0AA0FBB1F8A95E2F7CD01D70141
:1050A0009C91892B8C934115510511F0401B01C037
:1050B00040E0D501A85FBB4F4C930AC08091260405
:1050C00090912704892B21F4B0932704A093260400
:1050D000808181548A3110F4DF0195CFDF01319650
:1050E0009C9190539A30D0F3CD01FC010196408100
:1050F0004032D9F3F1CF809130048D3411F40C9407
:10510000E330843511F40C94BA3F873411F00C94D9
:10511000FC3F80912E0490912F048C31910509F46D
:1051200034C784F48430910544F4823091050CF046
:1051300013C197FF1FC00C941640049709F4DEC6F4
:105140000C9416408A35910509F4AFC74CF48D31A3
:10515000910509F41EC74E9709F41FC70C94164019
:105160008B35910509F4A5C78C35910509F4A6C7BF
:105170000C94164080910C02882311F40C94164074
:105180000E94CF628AEA9AE00F942E2E0E94326427
:105190008091B40583FD8FC0C090B60AD090B70A45
:1051A000E090B80AF090B90A2091310830913208A5
:1051B0004091330850913408C701B6010F94D04094
:1051C000882309F478C08091B305811138C06091BB
:1051D0003C0270913D02072E000C880B990B0F9436
:1051E000D6409B01AC0160914006709141068091D0
:1051F0004206909143060F94D04087FF20C0C09292
:105200003108D0923208E0923308F0923408E0E599
:10521000F8E384918F010F5F1F4F882321F00E94D4
:105220007564F801F6CFE4E5F2E084918F010F5F39
:105230001F4F882321F00E947564F801F6CFC090BB
:10524000B60AD090B70AE090B80AF090B90A209157
:105250003108309132084091330850913408C70129
:10526000B6010F94394520E030E048E453E40F9450
:105270006047181604F5C0923108D0923208E092C7
:105280003308F0923408E0E5F8E384918F010F5F72
:105290001F4F882321F00E947564F801F6CFE5E3E3
:1052A000F2E084918F010F5F1F4F882321F00E944D
:1052B0007564F801F6CF2091AA0A3091AB0A4091AB
:1052C000AC0A5091AD0A6091250870912608809132
:1052D0002708909128080F94D04081111DC020917B
:1052E000AE0A3091AF0A4091B00A5091B10A609174
:1052F000290870912A0880912B0890912C080F940E
:10530000D040811109C060918F027091900280910C
:105310009102909192021AC0609126027091270228
:10532000072E000C880B990B0F94D64020918F020A
:105330003091900240919102509192020F94354128
:105340002AE037ED43E25CE30F9435410E94FC5FB5
:105350000E94F25F0C94164020910C02222311F45B
:105360000C94164011E0029709F010E00E94CF6201
:1053700082E50E94C362882309F45CC10E946162D5
:105380006B017C014090250850902608609027080A
:10539000709028082091290830912A0840912B0804
:1053A00050912C0863962CAF3DAF4EAF5FAF639723
:1053B0008091AA0A9091AB0AA091AC0AB091AD0A73
:1053C00067968CAF9DAFAEAFBFAF67972091AE0A27
:1053D0003091AF0A4091B00A5091B10A6B962CAF50
:1053E0003DAF4EAF5FAF6B9720E030E0A901C70142
:1053F000B6010F94D040882309F466C5A301920139
:1054000067966CAD7DAD8EAD9FAD67970F94D04024
:10541000811111C063962CAD3DAD4EAD5FAD63976C
:105420006B966CAD7DAD8EAD9FAD6B970F94D040FC
:10543000882309F449C520E030E0A901C701B6017D
:105440000F94D040881F8827881F18130BC080E056
:1054500090E0A0E8BFE3AB968CAF9DAFAEAFBFAF1F
:10546000AB970AC020E030E040E85FEBAB962CAF92
:105470003DAF4EAF5FAFAB97A301920167966CADA6
:105480007DAD8EAD9FAD67970F943945A3966CAFF8
:105490007DAF8EAF9FAFA39763962CAD3DAD4EAD64
:1054A0005FAD63976B966CAD7DAD8EAD9FAD6B9729
:1054B0000F943945A7966CAF7DAF8EAF9FAFA7977E
:1054C000A3962CAD3DAD4EAD5FADA397CA01B9011A
:1054D0000F9435414B015C01A7962CAD3DAD4EAD0F
:1054E0005FADA797CA01B9010F9435419B01AC018B
:1054F000C501B4010F943A450F94A5476F966CAF60
:105500007DAF8EAF9FAF6F9720E030E040E05FE36C
:105510000F9435414B015C01A7019601C701B6010B
:105520000F9435416B017C01A5019401C501B401C3
:105530000F9435419B01AC01C701B6010F94394569
:105540000F94A5479B01AC01AB966CAD7DAD8EADC4
:105550009FADAB970F9435414B015C0167962CAD25
:105560003DAD4EAD5FAD6797C301B2010F943A45B3
:1055700020E030E040E05FE30F9435416B017C01B7
:10558000A7966CAD7DAD8EAD9FADA79790586F96E9
:105590002CAD3DAD4EAD5FAD6F970F9416469B01A0
:1055A000AC01C501B4010F9435419B01AC01C701A9
:1055B000B6010F943A45A30192010F9439456B014E
:1055C0007C016B962CAD3DAD4EAD5FAD6B97639698
:1055D0006CAD7DAD8EAD9FAD63970F943A4520E0E5
:1055E00030E040E05FE30F9435412B013C016F96C2
:1055F0002CAD3DAD4EAD5FAD6F97A3966CAD7DAD5F
:105600008EAD9FADA3970F9416469B01AC01C501CB
:10561000B4010F9435419B01AC01C301B2010F9459
:105620003A4563962CAD3DAD4EAD5FAD63970F949B
:10563000394514C089E40E94C362882329F00E947E
:1056400061626B017C0103C0C12CD12C76018AE41C
:105650000E94C3628823F9F00E9461626B966CAF6E
:105660007DAF8EAF9FAF6B9720E030E0A901C701FF
:10567000B6010F94D04081111EC020E030E0A90196
:105680006B966CAD7DAD8EAD9FAD6B970F94D0409A
:10569000811111C019C420E030E0A901C701B60191
:1056A0000F94D040882309F40FC46B961CAE1DAE36
:1056B0001EAE1FAE6B97D701C601B05863968CAF74
:1056C0009DAFAEAFBFAF63976B962CAD3DAD4EAD0A
:1056D0005FAD6B97505867962CAF3DAF4EAF5FAF45
:1056E00067979C01AD01BC01CD010F9435414B0181
:1056F0005C0167962CAD3DAD4EAD5FAD6797CA01BD
:10570000B9010F9435419B01AC01C501B4010F945F
:105710003A450F94A547EB966CAF7DAF8EAF9FAF28
:10572000EB978091250890912608A0912708B091C9
:1057300028086F968CAF9DAFAEAFBFAF6F97A70134
:105740009601BC01CD010F943A45AB966CAF7DAF8D
:105750008EAF9FAFAB972091290830912A084091D6
:105760002B0850912C08A3962CAF3DAF4EAF5FAFE6
:10577000A3976B962CAD3DAD4EAD5FAD6B97A396E9
:105780006CAD7DAD8EAD9FADA3970F943A45AF96AE
:105790006CAF7DAF8EAF9FAFAF978091AA0A90910B
:1057A000AB0AA091AC0AB091AD0AE3968CAF9DAF65
:1057B000AEAFBFAFE397AB962CAD3DAD4EAD5FAD99
:1057C000AB97BC01CD010F9439456B017C01209151
:1057D000AE0A3091AF0A4091B00A5091B10AE796F3
:1057E0002CAF3DAF4EAF5FAFE797AF962CAD3DAD61
:1057F0004EAD5FADAF97E7966CAD7DAD8EAD9FAD15
:10580000E7970F9439454B015C0180912D089091E9
:105810002E08A0912F08B0913008C158DF4F88831F
:105820009983AA83BB83CF57D0409C01AD0160917F
:10583000B20A7091B30A8091B40A9091B50A0F949C
:105840003945A7966CAF7DAF8EAF9FAFA7972091DC
:10585000B60A3091B70A4091B80A5091B90AEF964A
:105860002CAF3DAF4EAF5FAFEF9780913108909175
:105870003208A0913308B0913408CD57DF4F8883A8
:105880009983AA83BB83C358D040A701960163962E
:105890006CAD7DAD8EAD9FAD63970F9435412B01FF
:1058A0003C01A501940167966CAD7DAD8EAD9FADB9
:1058B00067970F9435419B01AC01C301B2010F946E
:1058C0003A452B013C01A501940163966CAD7DAD79
:1058D0008EAD9FAD63970F9435414B015C01A701DD
:1058E000960167966CAD7DAD8EAD9FAD67970F94B9
:1058F00035419B01AC01C501B4010F943945A301A9
:1059000092010F94AD456B017C0120E030E0A901CC
:105910000F94D04087FF0AC02BED3FE049EC50E4E4
:10592000C701B6010F943A456B017C01112351F078
:105930002BED3FE049EC50E4C701B6010F94394527
:105940006B017C0120E030E0A901C701B6010F9492
:10595000D040811128C0E3962CAD3DAD4EAD5FAD7A
:10596000E3976F966CAD7DAD8EAD9FAD6F970F9445
:10597000D040811118C0E7962CAD3DAD4EAD5FAD66
:10598000E797A3966CAD7DAD8EAD9FADA3970F94B9
:10599000D040811108C0ABEDCA2EAFE0DA2EA9ECE1
:1059A000EA2EA0E4FA2EEB962CAD3DAD4EAD5FADE8
:1059B000EB97C701B6010F9435419B01AC010F94E1
:1059C00035414B015C01A7962CAD3DAD4EAD5FADB1
:1059D000A797CA01B9010F9435419B01AC01C501DC
:1059E000B4010F943A450F94A5474B015C012FE693
:1059F00032E143E85AE30F94D04087FD61C2C5010C
:105A0000B4010F94AF460F948346A1967FAF6EAF5B
:105A1000A197DB01AB2B31F4E1E0F0E0A196FFAF01
:105A2000EEAFA197A1962EAD3FADA197B90180E051
:105A300090E00F94D4404B015C019B01AC01C70185
:105A4000B6010F9416466F966CAF7DAF8EAF9FAFC9
:105A50006F97A5019401A7966CAD7DAD8EAD9FADFE
:105A6000A7970F941646EB966CAF7DAF8EAF9FAFA6
:105A7000EB97CD57DF4F288139814A815B81C3582D
:105A8000D040EF966CAD7DAD8EAD9FADEF970F948E
:105A90003945A50194010F941646EF966CAF7DAF82
:105AA0008EAF9FAFEF976F962CAD3DAD4EAD5FAD16
:105AB0006F97CA01B9010F94354120E030E040E012
:105AC0005FE30F9435419B01AC0160E070E080E83A
:105AD0009FE30F943945A7966CAF7DAF8EAF9FAF14
